:0400000080314928DA
:100008007E1480318B1E09280A2811280B1D0D2803
:100018000E28112884311E2480318B1D14281528A0
:100028001C280B1C182819281C28843159248031B5
:100038000B1F1F28202847282100921E2428252826
:100048002D282000921E29282A282D2885315B2555
:1000580080312100121F312832283A282000121F2F
:10006800362837283A288531582580312100111C37
:100078003E283F2847282000111C432844284728A9
:100088008431A62480317E10090080314B288531C7
:100098005E258031D3004330840000308500103065
:1000A80085311C2580317E102000813109292000EE
:1000B800AD01AE012E08433E860087018101013063
:1000C800A8002808AE0708302E02031C6C286D28EB
:1000D8005E28AF01B0012D08CD3E8400843003189E
:1000E800013E85000008A8003008293E86008701E7
:1000F800280881002D08CE3E840084300318013E74
:1001080085000008A8003008013E293E86008701C6
:10011800280881003008023EA8002808B0000430F2
:100128003002031C982899286F282D08023EA80041
:100138002808AD000430A5000030A600293084311D
:100148006A24803101302000A8002808AF07063053
:100158002F02031CB028B1286E2808002000A30035
:100168002400951AB828B928082920002308A000D7
:10017800A101A035A10DA035A10D4D3020078400A7
:100188008530213D850000082400940020002308C4
:10019800A000A101A035A10DA035A10D4C3020076C
:1001A80084008530213D85000008240095009601D3
:1001B80020002308A000A101A035A10DA035A10DA4
:1001C8004E30200784008530213D8500000824003A
:1001D800920020002308A000A101A035A10DA035A0
:1001E800A10D4F30200784008530213D850000088F
:1001F800A200A20E21000D0820002206EF392206D7
:1002080021008D0024009516080083317623813162
:1002180077302000A0000230A10085312E258131E1
:10022800ED302000A0000130A10085312E2581315C
:1002380022008D1400308031B220813180315B2062
:1002480081318B170B1782317722813106302000DC
:10025800B2001330B100AD30890B3029B10B302911
:10026800B20B302900328131ED2181310630200076
:10027800B2001330B100AD30890B4029B10B4029D1
:10028800B20B402900328131A5218131063020008E
:10029800B2001330B100AD30890B5029B10B502991
:1002A800B20B5029003281315D21813127298031FB
:1002B800492881302000AC002C08C3009130AC00E4
:1002C8002C08C4009130AC002C08C5006E30AC007E
:1002D8002C08C600C70153080319732974298629F5
:1002E8006030AC002C08C800C030AC002C08C90035
:1002F8006030AC002C08CA005008F739AC002C0854
:10030800D0009729C030AC002C08C8006030AC0081
:100318002C08C900C030AC002C08CA004F08F739B7
:10032800AC002C08CF004A085004AC002C08CA00C6
:1003380049084F04AC002C08C9008331C32381311C
:10034800080043302000AC002C08C3008530AC0006
:100358002C08C4008930AC002C08C5007130AC00F2
:100368002C08C600C70153080319BB29BC29CE298C
:100378006030AC002C08C800C030AC002C08C900A4
:100388006030AC002C08CA005008FB39AC002C08BF
:10039800D000DF29C030AC002C08C8006030AC00A9
:1003A8002C08C900C030AC002C08CA004F08FB3923
:1003B800AC002C08CF004A085004AC002C08CA0036
:1003C80049084F04AC002C08C9008331C32381318C
:1003D80008007E1CF1298231342A2000C3014130F3
:1003E800AC002C08C400FF30AC002C08C500C601C6
:1003F800C60AC70153080319022A032A152A6030BE
:10040800AC002C08C800C030AC002C08C900603013
:10041800AC002C08CA005008FD39AC002C08D000EC
:10042800262AC030AC002C08C8006030AC002C086C
:10043800C900C030AC002C08CA004F08FD39AC0018
:100448002C08CF004A085004AC002C08CA00490800
:100458004F04AC002C08C9008331C3238131080044
:100468002000C3014130FC007C08C400FF30FC00C0
:100478007C08C500C601C60AC70153080319452AE6
:10048800462A582A6030FC007C08C800C030FC00AE
:100498007C08C9006030FC007C08CA005008FD399F
:1004A800FC007C08D000692AC030FC007C08C80029
:1004B8006030FC007C08C900C030FC007C08CA0021
:1004C8004F08FD39FC007C08CF004A085004FC00A6
:1004D8007C08CA0049084F04FC007C08C900833125
:1004E800E523823108007E1C7B2A8231B42A7E30C3
:1004F8002000AC002C08C3008130AC002C08C400DC
:100508008130AC002C08C5007E30AC002C08C60039
:10051800C70153080319912A922A9F2A6030AC0018
:100528002C08C800C030AC002C08C9006030AC00F2
:100538002C08CA00B02AC030AC002C08C8006030B3
:10054800AC002C08C900C030AC002C08CA004F0809
:10055800FE39AC002C08CF008331C3238231080058
:100568007E30FC007C082000C3008130FC007C0841
:10057800C4008130FC007C08C5007E30FC007C088B
:10058800C600C70153080319CA2ACB2AD82A6030E3
:10059800FC007C08C800C030FC007C08C900603042
:1005A800FC007C08CA00E92AC030FC007C08C800AE
:1005B8006030FC007C08C900C030FC007C08CA0020
:1005C8004F08FE39FC007C08CF008331E5238231D7
:1005D800080022008C018D01373021008C00ED309D
:1005E8008D00C03023008D000F308C0009302400AE
:1005F8008D008C0121009513C03022009D00013030
:100608009E002700161096111514951514109411B4
:1006180062302000A0000530A100853134258231E8
:1006280061302000A0000530A10085312E258231DF
:100638008B1508002000A3002308A2002208A400AC
:100648003E2B240886008701010824009100200021
:10065800911D2F2B302B2B2B9111240011082000DA
:10066800A200240886008701220881000130A20028
:100678002208A4070130A0020030A13B200A031D74
:10068800492B210A031D492B4A2B252B0800F3006F
:100698007308F2007208F400692B74088600870159
:1006A8000108240091002000911D5B2B5C2B572B27
:1006B800911124001108F20074088600870172085D
:1006C80081000130F2007208F4070130F0020030B6
:1006D800F13B700A031D742B710A031D742B752BD3
:1006E800512B08008431F12483318231ED2283318A
:1006F8008531152583318531502583318531542540
:1007080083318431D924833185310525833184317E
:10071800362483318431E524833185310D258331B5
:100728008431FC24833184310524833183319E2331
:1007380083310800083023009F0090309D0024304A
:100748009E0033309B009C0100302000A000003048
:10075800A10085314025833100302000A000003001
:10076800A10085313A25833100302000A0000030F7
:10077800A1008531462583312000D20108000830C8
:100788002000A8002808AB002B08A8002808A9000A
:100798002B08423E860087010108A8002808AA0005
:1007A8000230A5000030A600293084316A24833144
:1007B80001302000AB022B08031DE32BE42BC82BD0
:1007C80008000830F8007808FB007B08F800780873
:1007D800F9007B08423E860087010108F800780886
:1007E800FA000230F5000030F600793084319824A0
:1007F80083310130FB027B08031D032C042CE92BF9
:100808000800200099016D3097008430960011107F
:100818001708B8001608B700210011145F3020002F
:10082800A0000530A1008531222584313130200017
:10083800980008000B112000510895000130CB07E3
:100848000030CC3D00304C02203003194B02031C11
:100858002E2C2F2C352C8431C02484312000CB0140
:10086800CC01080021001508C03917389500200070
:100878009501D1010B118B166030A0000530A10045
:1008880085312825843108002000181D4C2C4D2C5A
:10089800542C181071089700700896001814582CDA
:1008A800710897007008960008002700161C5D2C38
:1008B8005E2C612C8431892484312700961D652C97
:1008C800662C692C84317A24843108002000A70022
:1008D80022008D1020002608A1002508A000270866
:1008E80083311E23843122008D14080020003F0824
:1008F80040040319802C812C862C40088A003F086C
:100908000A0084312700961108002000410842049B
:1009180003198F2C902C952C42088A0041080A0054
:100928008431270016100800F70022008D10760881
:10093800F1007508F000770883314B2384312200D9
:100948008D140800200011103808F1003708F00055
:100958008431482484318431B32484310800200050
:10096800350836040319B92CBA2CBF2C36088A006E
:1009780035080A00843108002000330834040319BC
:10098800C62CC72CCC2C34088A0033080A008431C2
:100998000800093400340A3400340B3407340C34AA
:1009A80001340F3401340F34003421001213843021
:1009B80022009300613094002000121321001217C6
:1009C80008002100921284302200910060309200C9
:1009D8002000921221009216080040302400940052
:1009E80095010130920021000D1224009512080093
:1009F8000C302600930091019201CF3025009E050E
:100A08000800FF3020009B009A01911004309C00E0
:100A18000800C33021009E009B019C0101309D000D
:100A2800080068302100990098012200960108000A
:100A3800640080010131890B1D2D0034200021083C
:100A4800B6002008B500080020002108B4002008DE
:100A5800B300080020002108C0002008BF000800DB
:100A680020002108C2002008C10008002000210839
:100A7800BC002008BB00080020002108BE00200898
:100A8800BD00080020002108BA002008B9000800AD
:100A98000034403401340034163021009700080037
:100AA8008930220097000800200012130800200057
:0E0AB80092120800013408000800080008002F
:020000040001F9
:08000000FF3FFF3FFF3FFF3F00
:04000E00E43FFF3E8E
:00000001FF
