:0400000080314928DA
:100008007E1480318B1E09280A2811280B1D0D2803
:100018000E2811288431AE2480318B1D1428152810
:100028001C280B1C182819281C288431E924803125
:100038000B1F1F28202847282100921E2428252826
:100048002D282000921E29282A282D288531E225CE
:1000580080312100121F312832283A282000121F2F
:10006800362837283A288531DC2580312100111CB3
:100078003E283F2847282000111C432844284728A9
:100088008531362580317E10090080314B28853135
:10009800F4258031D30043308400003085001030CF
:1000A8008531AC2580317E1020008131092920005E
:1000B800AD01AE012E08433E860087018101013063
:1000C800A8002808AE0708302E02031C6C286D28EB
:1000D8005E28AF01B0012D085D3E8400853003180D
:1000E800013E85000008A8003008293E86008701E7
:1000F800280881002D085E3E840085300318013EE3
:1001080085000008A8003008013E293E86008701C6
:10011800280881003008023EA8002808B0000430F2
:100128003002031C982899286F282D08023EA80041
:100138002808AD000430A5000030A600293084311D
:10014800FA24803101302000A8002808AF070630C3
:100158002F02031CB028B1286E2808002000A30035
:100168002400951AB828B928082920002308A000D7
:10017800A101A035A10DA035A10DE930200784000B
:100188008530213D850000082400940020002308C4
:10019800A000A101A035A10DA035A10DE8302007D0
:1001A80084008530213D85000008240095009601D3
:1001B80020002308A000A101A035A10DA035A10DA4
:1001C800EA30200784008530213D8500000824009E
:1001D800920020002308A000A101A035A10DA035A0
:1001E800A10DEB30200784008530213D85000008F3
:1001F800A200A20E21000D0820002206EF392206D7
:1002080021008D00240095160800843106248131D0
:1002180007302000A0000330A1008531BE258131C0
:100228007D302000A0000230A1008531BE2581313B
:1002380022008D1400308031B220813180315B2062
:1002480081318B170B17833107238131063020004A
:10025800B2001330B100AD30890B3029B10B302911
:10026800B20B3029003282317D22813106302000E4
:10027800B2001330B100AD30890B4029B10B4029D1
:10028800B20B402900328131A5218131063020008E
:10029800B2001330B100AD30890B5029B10B502991
:1002A800B20B5029003281315D21813127298031FB
:1002B800492881302000AC002C08C3009130AC00E4
:1002C8002C08C4009130AC002C08C5006E30AC007E
:1002D8002C08C600C70153080319732974298629F5
:1002E8006030AC002C08C800C030AC002C08C90035
:1002F8006030AC002C08CA005208F739AC002C0852
:10030800D2009729C030AC002C08C8006030AC007F
:100318002C08C900C030AC002C08CA005108F739B5
:10032800AC002C08D1004A085204AC002C08CA00C2
:1003380049085104AC002C08C90084315324813188
:10034800080043302000AC002C08C3008530AC0006
:100358002C08C4008930AC002C08C5007130AC00F2
:100368002C08C600C70153080319BB29BC29CE298C
:100378006030AC002C08C800C030AC002C08C900A4
:100388006030AC002C08CA005208FB39AC002C08BD
:10039800D200DF29C030AC002C08C8006030AC00A7
:1003A8002C08C900C030AC002C08CA005108FB3921
:1003B800AC002C08D1004A085204AC002C08CA0032
:1003C80049085104AC002C08C900843153248131F8
:1003D80008008130FC007C082000C3009130FC003C
:1003E8007C08C4009130FC007C08C5006E30FC001D
:1003F8007C08C600C70153080319032A042A162AD1
:100408006030FC007C08C800C030FC007C08C900D3
:100418006030FC007C08CA005208F739FC007C08F0
:10042800D200272AC030FC007C08C8006030FC00DD
:100438007C08C900C030FC007C08CA005108F739A4
:10044800FC007C08D1004A085204FC007C08CA0061
:1004580049085104FC007C08C900843175248131A5
:1004680008004330FC007C082000C3008530FC00F5
:100478007C08C4008930FC007C08C5007130FC0091
:100488007C08C600C701530803194B2A4C2A5E2A68
:100498006030FC007C08C800C030FC007C08C90043
:1004A8006030FC007C08CA005208FB39FC007C085C
:1004B800D2006F2AC030FC007C08C8006030FC0005
:1004C8007C08C900C030FC007C08CA005108FB3910
:1004D800FC007C08D1004A085204FC007C08CA00D1
:1004E80049085104FC007C08C90084317524823114
:1004F80008007E1C812A8231C42A2000C3014130B1
:10050800AC002C08C400FF30AC002C08C500C601A4
:10051800C60AC70153080319922A932AA52A6030EC
:10052800AC002C08C800C030AC002C08C9006030F2
:10053800AC002C08CA005208FD39AC002C08D200C7
:10054800B62AC030AC002C08C8006030AC002C08BB
:10055800C900C030AC002C08CA005108FD39AC00F5
:100568002C08D1004A085204AC002C08CA004908DB
:100578005104AC002C08C90084315324823108008E
:100588002000C3014130FC007C08C400FF30FC009F
:100598007C08C500C601C60AC70153080319D52A35
:1005A800D62AE82A6030FC007C08C800C030FC006D
:1005B8007C08C9006030FC007C08CA005208FD397C
:1005C800FC007C08D200F92AC030FC007C08C80076
:1005D8006030FC007C08C900C030FC007C08CA0000
:1005E8005108FD39FC007C08D1004A085204FC007F
:1005F8007C08CA0049085104FC007C08C900843101
:100608007524823108007E1C0B2B8331442B7E30ED
:100618002000AC002C08C3008130AC002C08C400BA
:100628008130AC002C08C5007E30AC002C08C60018
:10063800C70153080319212B222B2F2B6030AC0044
:100648002C08C800C030AC002C08C9006030AC00D1
:100658002C08CA00402BC030AC002C08C800603001
:10066800AC002C08C900C030AC002C08CA005108E6
:10067800FE39AC002C08D1008431532483310800A2
:100688007E30FC007C082000C3008130FC007C0820
:10069800C4008130FC007C08C5007E30FC007C086A
:1006A800C600C701530803195A2B5B2B682B60300F
:1006B800FC007C08C800C030FC007C08C900603021
:1006C800FC007C08CA00792BC030FC007C08C800FC
:1006D8006030FC007C08C900C030FC007C08CA00FF
:1006E8005108FE39FC007C08D1008431752483311F
:1006F800080022008C018D01373021008C00ED307C
:100708008D00C03023008D000F308C00093024008C
:100718008D008C0121009513C03022009D0001300E
:100728009E00270016109611151495151410941193
:10073800F8302000A0000530A1008531C4258331A0
:10074800F7302000A0000530A1008531BE25833197
:100758008B1508002000A3002308A2002208A4008B
:10076800CE2B240886008701010824009100200070
:10077800911DBF2BC02BBB2B911124001108200009
:10078800A200240886008701220881000130A20007
:100798002208A4070130A0020030A13B200A031D53
:1007A800D92B210A031DD92BDA2BB52B0800F3000E
:1007B8007308F2007208F400F92B740886008701A8
:1007C8000108240091002000911DEB2BEC2BE72B56
:1007D800911124001108F20074088600870172083C
:1007E80081000130F2007208F4070130F002003095
:1007F800F13B700A031D042C710A031D042C052CFF
:10080800E12B080085318125843183317D238431B2
:100818008531A52584318531EC25843185316925DB
:1008280084318531F02584318531952584318431B1
:10083800C624843185317525843185319D258431DF
:1008480085318C25843184319524843184312E245A
:1008580084310800083023009F0090309D00243028
:100868009E0033309B009C0100302000A000003027
:10087800A1008531D025843100302000A00000304F
:10088800A1008531CA25843100302000A000003045
:10089800A1008531D62584312000D0010800083018
:1008A8002000A8002808AB002B08A8002808A900E9
:1008B8002B08423E860087010108A8002808AA00E4
:1008C8000230A5000030A60029308431FA24843192
:1008D80001302000AB022B08031D732C742C582CFC
:1008E80008000830F8007808FB007B08F800780852
:1008F800F9007B08423E860087010108F800780865
:10090800FA000230F5000030F600793085312825EC
:1009180084310130FB027B08031D932C942C792C25
:100928000800200099016D3097008430960011105E
:100938001708B8001608B70021001114F530200078
:10094800A0000530A1008531B22584313130200066
:10095800980008000B1120004F0895000130CB07C4
:100968000030CC3D00304C02203003194B02031CF0
:10097800BE2CBF2CC52C8531502584312000CB01DD
:10098800CC01080021001508C0391738950020004F
:100998009501CF010B118B16F630A0000530A10090
:1009A8008531B825843108002000181DDC2CDD2C89
:1009B800E42C181071089700700896001814E82C99
:1009C800710897007008960008002700161CED2C87
:1009D800EE2CF12C8531192584312700961DF52C34
:1009E800F62CF92C85310A25843108002000A7004F
:1009F80022008D1020002608A1002508A000270845
:100A08008331AE23843122008D14080020003F0872
:100A180040040319102D112D162D40088A003F0897
:100A28000A00853127009611080020004108420479
:100A380003191F2D202D252D42088A0041080A0080
:100A48008531270016100800F70022008D1076085F
:100A5800F1007508F00077088331DB238531220027
:100A68008D140800200011103808F1003708F00034
:100A78008431D8248531853143258531080020000B
:100A8800350836040319492D4A2D4F2D36088A009A
:100A980035080A008531080020003308340403199A
:100AA800562D572D5C2D34088A0033080A008531ED
:100AB8000800093400340A3400340B3407340C3489
:100AC80001340F3401340F34003421001213843000
:100AD80022009300A1309400200012132100121765
:100AE800080021009212843022009100A030920068
:100AF8002000921221009216080040302400940031
:100B080095010130920021000D1224009512080071
:100B18000C302600930091019201CF3025009E05EC
:100B28000800FF3020009B009A01911004309C00BF
:100B38000800C33021009E009B019C0101309D00EC
:100B480008006830210099009801220096010800E9
:100B5800640080010131890BAD2D0034200021088B
:100B6800B6002008B500080020002108B4002008BD
:100B7800B300080020002108C0002008BF000800BA
:100B880020002108C2002008C10008002000210818
:100B9800BC002008BB00080020002108BE00200877
:100BA800BD00080020002108BA002008B90008008C
:100BB800200012138131ED218531080020009212A6
:100BC8008231352285310800003440340134003444
:100BD800163021009700080089302200970008008D
:0A0BE80001340800080008000800AE
:020000040001F9
:08000000FF3FFF3FFF3FFF3F00
:04000E00E43FFF3E8E
:00000001FF
