:1000000080315628013401347E1480318B1D09283B
:100010000A2811280B1C0D280E2811288931D521FA
:1000200080318B1E142815281C280B1D1828192810
:100030001C288A31BF2280310B1F1F2820285428FA
:100040002100121F242825282D282000121F2928CE
:100050002A282D288831FE2080312100921E312847
:1000600032283A282000921E362837283A2888312C
:10007000F82080312100931E3E283F284728200089
:10008000931E4328442847288A313022803121009A
:10009000931C4B284C2854282000931C502851288E
:1000A00054288A315D2280317E1009008031582821
:1000B0002100803102208031E60080310320803130
:1000C000E700A0308400003085002B3089313A21D0
:1000D00080317E1020008631A22E20004308803916
:1000E000C8004808CD004335C8004808D300C21FE7
:1000F0007A287B287C2853145308031980288128E8
:100100009028530A031D852886288E280030C300B6
:100110000030C2000030C1000030C000C217982873
:100120000030C3000030C2000030C1000030C00009
:1001300047088039C8004808CD064735C800480838
:10014000D200C61FA428A528A628521452080319B5
:10015000AA28AB28BA28520A031DAF28B028B8280D
:100160000030C7000030C6000030C5000030C400B9
:10017000C617C2280030C7000030C6000030C500D6
:100180000030C40052080319C628C728CC285308D9
:10019000031DCB28CC28D5280030C3000030C20076
:1001A0000030C1000030C000C32A4008C800480821
:1001B000F00046088A31D922803171082000D90028
:1001C0007008D8005808C800C901CA01CB014B0803
:1001D000D1004A08D0004908CF004808CE0059088D
:1001E000C800C901CA01CB014B08D7004A08D60094
:1001F0004908D5004808D4004108C8004808F00064
:1002000045088A31D922803171082000D900700850
:10021000D8005808C800C901CA01CB014808CE0758
:100220004908CF3D4A08D03D4B08D13D5908C80088
:10023000C901CA01CB014808D4074908D53D4A087D
:10024000D63D4B08D73D4208C8004808F000440896
:100250008A31D922803171082000D9007008D80075
:100260005808C800C901CA01CB014808CE0749088F
:10027000CF3D4A08D03D4B08D13D5908C800C901BF
:10028000CA01CB014808D4074908D53D4A08D63DE4
:100290004B08D73D0830CE35CF0DD00DD10D890B91
:1002A0004B294108C8004808F00044088A31D92287
:1002B000803171082000D9007008D8005808CE0796
:1002C0005908CF3D0030D03DD13D4008C800480816
:1002D000F00045088A31D922803171082000D90008
:1002E0007008D8005808CE075908CF3D0030D03DDF
:1002F000D13D0830CE35CF0DD00DD10D890B7A29E7
:100300004008C8004808F00044088A31D9228031EA
:1003100071082000D9007008D8005808CE07590885
:10032000CF3D0030D03DD13D4108C8004808F00025
:1003300046088A31D922803171082000D90070081E
:10034000D8005808D4075908D53D0030D63DD73DD0
:100350004208C8004808F00045088A31D922803197
:1003600071082000D9007008D8005808D40759082F
:10037000D53D0030D63DD73D4208C8004808F000C2
:1003800046088A31D922803171082000D9007008CE
:10039000D8005808C8005908C900CA01CB01083064
:1003A000C835C90DCA0DCB0D890BD0294808D40713
:1003B0004908D53D4A08D63D4B08D73D4E08C800F0
:1003C0004F08C9005008CA005108CB001830CB367E
:1003D000CA0CC90CC80C890BE7294808D40749087E
:1003E000D53D4A08D63D4B08D73D0830CE35CF0D18
:1003F000D00DD10D890BF62953085207C800C90149
:10040000C90D4808823ED800FF30493DD9001F2A57
:100410000130D435D50DD60DD70D890B092AD11F42
:10042000122A132A142A54140130CE35CF0DD00DC0
:10043000D10D890B152AFF30D807FF30D93DD61FC3
:10044000222A232A082AD201D11F272A282A442A0D
:10045000FF304E05C800FF304F05C900FF30500582
:10046000CA007F305105CB004B084A0449044804B8
:1004700003193B2A3C2A3F2AD201D20A442A541C9F
:10048000422A432A442A3C2A52080319482A492A64
:10049000712A0130D4070030D53D0030D63D003000
:1004A000D73D571C542A552A712A5408C8005508AC
:1004B000C9005608CA005708CB000130CC00CB3722
:1004C000CA0CC90CC80CCC0B5F2A4B08D7004A08D1
:1004D000D6004908D5004808D4000130D8070030BC
:1004E000D93D5908803AC80080304802031D7A2A55
:1004F000FF305802031C7D2A7E2A882A7F30200084
:10050000D7008030D6000030D5000030D400B72AA4
:1005100020005908803AC80080304802031D922A02
:10052000013058020318952A962AA12A003020008B
:10053000D7000030D6000030D5000030D400CD0107
:10054000B72A20005808C8004808D300FF30D40557
:10055000FF30D5057F30D6050030D705531CB12AB2
:10056000B22AB32AD6175336C8004808D7004D0818
:10057000C8004808D7045708C3005608C2005508E9
:10058000C1005408C00008002000EC0121006608EA
:100590000319CB2ACC2AD02A2000ED01ED0AD52A56
:1005A00008302000E3006308ED00EA01210066083E
:1005B0000319DB2ADC2AE92A20006D35E3006308F1
:1005C000ED0021003C0820006D05E3006308EB000E
:1005D000022B20006D0AE3000130E4000030E5004A
:1005E000F42A650DE50CE40CE30BF12A2000640805
:1005F000E6006608ED0021003B0820006D05E300E1
:100600006308EB006B080319062B072B0C2B6B08F8
:10061000E3006308EC00292B0130E3006308EA07DC
:1006200004306A02031C152B162BD62A292BEC0149
:10063000EC0A3C2B0230E3006308EC003C2B033057
:10064000E3006308EC003C2B0430E3006308EC009B
:100650003C2B6C08E300E4016408003A0319312BD9
:10066000242B6308023A0319172B063A03191A2B95
:100670000C3A03191F2B242B21005E082000E300F5
:10068000E401E501E6016608F7006508F600640884
:10069000F5006308F400013087314F278231770875
:1006A0002000C7007608C6007508C5007408C4009D
:1006B0003F30C300C030C2000030C1000030C00075
:1006C00080316D20823120004308DD004208DC00CB
:1006D0004108DB004008DA008D31552582312000C9
:1006E0005A08E70067082100BE0044302000C3001C
:1006F0007A30C2000030C1000030C0004330A90091
:100700009630A8000030A7000030A600210039086C
:100710003E02F000F101031CF1038A31A52282316F
:100720007008F4007108F500890D893B8909F6000D
:10073000F700013087314F27823177082000AD0064
:100740007608AC007508AB007408AA008431EE246A
:10075000823120002908C7002808C6002708C500E4
:100760002608C40080316D2082312000430821001A
:10077000AB00200042082100AA002000410821000F
:10078000A900200040082100A8003E082000E30046
:1007900063082100B9002B082000C70021002A08A7
:1007A0002000C600210029082000C50021002808DB
:1007B0002000C4004130C3002030C2000030C1001E
:1007C0000030C00080316D20823120004308DD0000
:1007D0004208DC004108DB004008DA008D31552575
:1007E000823120005B08E9005A08E80002308A31B3
:1007F0008B22823170082000E3007108E400E501DB
:10080000E6016608F7006508F6006408F50063086D
:10081000F400003087314F27823177082000AD0087
:100820007608AC007508AB007408AA004430A90033
:100830008030A8000030A7000030A6008431EE24EC
:10084000823120002908C7002808C6002708C500F3
:100850002608C4004430C3007930C200C030C10053
:100860000030C00080316D20823120004308DD005F
:100870004208DC004108DB004008DA008D315525D4
:10088000823120005B082100B30020005A082100BB
:10089000B200243089316021823120006C08303E62
:1008A0008931602182312C308931602182312100EF
:1008B0003F08303E8931602182312C3089316021FE
:1008C000823121003D08303E8931602182312C3057
:1008D00089316021823121003E082000E300E401DB
:1008E0006308FA006408FB008E31CA2682317B0857
:1008F0002000EF007A08EE006F080F39303E893192
:100900006021823120006E0E0F39303E8931602126
:10091000823120006E080F39303E893160218231EA
:100920002C3089316021823120006908FB00680881
:10093000FA008E31CA2682317B082000EF007A0847
:10094000EE006F080F39303E89316021823120007E
:100950006E0E0F39303E8931602182312E3089315F
:100960006021823120006E080F39303E89316021CC
:1009700082312C3089316021823121003308FB0023
:100980003208FA008E31CA2682317B082000EF003F
:100990007A08EE006F0E0F39303E893160218231C6
:1009A00020006F080F39303E8931602182312000EC
:1009B0006E0E0F39303E8931602182312E308931FF
:1009C0006021823120006E080F39303E893160216C
:1009D00082310D30893160218231080020002D08DC
:1009E0008039AE002E08B7002D35AE002E08BE00AF
:1009F000AC1FFB2CFC2CFD2C3E143E080319012DD2
:100A0000022D122D3E0A031D062D072D0F2D00303D
:100A1000AD000030AC000030AB000030AA00AC17D5
:100A2000AD011A2D0030AD000030AC000030AB003D
:100A30000030AA0029088039AE002E08B7062935F3
:100A4000AE002E08BF00A81F262D272D282D3F14ED
:100A50003F0803192C2D2D2D3D2D3F0A031D312D4F
:100A6000322D3A2D0030A9000030A8000030A70038
:100A70000030A600A817A901452D0030A9000030BC
:100A8000A8000030A7000030A60029082804270489
:100A90002604031D4C2D4D2D662D0030AD00003079
:100AA000AC000030AB000030AA008030AC047F30D6
:100AB000AD043708AE002E08AD042D08A9002C089F
:100AC000A8002B08A7002A08A600A12E3E08031D97
:100AD0006A2D6B2D742D0030A9000030A800003065
:100AE000A7000030A600A12E3E08AE00AF012F08DF
:100AF000B1003F082E02B000031CB10330087F3E56
:100B0000B8000030313DB9002D08B6002C08B50002
:100B10002B08B4002A08B3000030AD000030AC0050
:100B20000030AB000030AA000030BD000030BC0037
:100B30000030BB000030BA00BF01DC2D3F080319B4
:100B4000A22DA32DBD2D0130B335B40DB50DB60DBD
:100B5000890BA42D0130AA35AB0DAC0DAD0D890B61
:100B6000AB2DBD1FB42DB52DB62D2A140130BA35CD
:100B7000BB0DBC0DBD0D890BB72D29083602031D19
:100B8000CB2D28083502031DCB2D27083402031D69
:100B9000CB2D26083302031CCE2DCF2DD82D3D178B
:100BA0002608B3022708B43B2808B53B2908B63B02
:100BB0000130AE002E08BF071A303F02031CE12DA2
:100BC000E22D9E2D36083504340433040319E92D33
:100BD000EA2D032E3A14032E0130AA35AB0DAC0DCD
:100BE000AD0D890BED2DBD1FF62DF72DF82D2A1417
:100BF0000130BA35BB0DBC0DBD0D890BF92DFF3091
:100C0000B807FF30B93DAC1F062E072EEC2DBF01F3
:100C1000BD1F0B2E0C2E282EFF303A05AE00FF30E4
:100C20003B05AF00FF303C05B0007F303D05B10013
:100C3000310830042F042E0403191F2E202E232EDA
:100C4000BF01BF0A282E2A1C262E272E282E202E32
:100C50003F0803192C2E2D2E552E0130AA070030E7
:100C6000AB3D0030AC3D0030AD3D2D1C382E392E53
:100C7000552E2A08AE002B08AF002C08B0002D0816
:100C8000B1000130B200B137B00CAF0CAE0CB20BFA
:100C9000432E3108AD003008AC002F08AB002E0801
:100CA000AA000130B8070030B93D3908803AAE00DB
:100CB00080302E02031D5E2EFF303802031C612E91
:100CC000622E6F2EFF302000B8000030B9000030D7
:100CD000AD000030AC000030AB000030AA002000B6
:100CE0003908803AAE0080302E02031D792E013083
:100CF000380203187C2E7D2E892E2000B801B90100
:100D00000030AD000030AC000030AB000030AA0075
:100D1000B70120003808AE002E08BE003E1C912E00
:100D2000922E942EAC17982E7F30AE002E08AC0574
:100D30003E36AE002E08AD003708AE002E08AD04DA
:100D40005D2D08008B314B238631EC302100DF0014
:100D50000B30E00089311C21863185302100DF0015
:100D60000C30E00089312221863141302100DF0042
:100D70000E30E00089312E218631C4302100DF00A1
:100D80000230E00089312821863121302100DF0046
:100D90000B30E00089310421863122008D148B173D
:100DA0000B178B31EC2386318831F3208631003AE2
:100DB0000319DB2EDC2ED42E8931C521863121008A
:100DC000E4006408C60024304606031DE82EE92E20
:100DD000362FC801362F24304606031DF02EF12E83
:100DE0004C2FC801C80AD42E46088A311D228631EC
:100DF000003A0319FC2EFD2E082F21004608D03E94
:100E0000E4006408C1000230E4006408C800D42E85
:100E10002100C801D42E46088A311D228631003AAD
:100E20000319132F142F082F21004608D03EE40089
:100E30006408C0000330E4006408C800D42E0D30FC
:100E40004606031D242F252F082F4108E4006408BF
:100E5000CA004008E4006408C9008C31322486319D
:100E600001302100E4006408C307082F4808E400AB
:100E7000E5016508003A03193E2F082F6408003A7F
:100E80000319EB2E013A0319F42E033A03190B2F21
:100E9000013A03191F2F082FD42E80315628200025
:100EA000A00020080319552F562F6A2FF71F592F1E
:100EB0005A2F6A2F7409A2007509A3007609A400AD
:100EC0007709A500A20A0319A30A0319A40A0319A2
:100ED000A50A722F7708A5007608A4007508A3005C
:100EE0007408A2007708760475047404031D792F32
:100EF0007A2F832F0030F7000030F6000030F50025
:100F00000030F400FB2F9630F8007808A100932FF2
:100F10000130F8007808A1070130A536A40CA30C15
:100F2000A20C890B8D2FFE302505031D982F992FBC
:100F3000882FAD2F0130F8007808A1070130A207F3
:100F40000030A33D0030A43D0030A53D0130A53662
:100F5000A40CA30CA20C890BA72FFF302505031DA1
:100F6000B22FB32F9A2FBD2F0130A1020130A2352D
:100F7000A30DA40DA50D890BB72FA41BC02FC12F46
:100F8000C72F023021020318C62FC72FB42F2118F4
:100F9000CA2FCB2FD32FFF30A205FF30A3057F3000
:100FA000A405FF30A5050310A10C2108F800F901E4
:100FB000FA01FB011830F835F90DFA0DFB0D890B1C
:100FC000DB2F7808A2047908A3047A08A4047B081C
:100FD000A50420080319ED2FEE2FF32FF71FF12F93
:100FE000F22FF32FA5172508F7002408F600230891
:100FF000F5002208F4000800093400340A340034F3
:101000000B3407340C3401340F3401340F34003402
:081010000034403401340034C7
:1011B60008000800080008000800280017150800A5
:1011C60028001715080089302200970008001630FD
:1011D600210097000800F00070082800950008001C
:1011E6002000110E890C01390800200092128C3162
:1011F600E92488310800200012138D31CA25883170
:10120600080021006008CE005F08CD00080021001C
:101216006008D4005F08D300080021006008D800E9
:101226005F08D700080021006008D6005F08D500D7
:10123600080021006008DC005F08DB0008002100D0
:101246006008DA005F08D900080021006008D000B5
:101256005F08CF00080021006008CC005F08CB00C3
:1012660008002100DF005F082800950008006400E0
:1012760080010131890B3B29003468302100990037
:101286009801220096010800C33021009E009B01B0
:101296009C0101309D000800FF3020009B009A0150
:1012A600911004309C0008000C3026009300910138
:1012B6009201CF3025009E050800F0002000111E87
:1012C600652966296129700823009A0008004030C4
:1012D6002400940095010130920021000D12240093
:1012E600951208002100921284302200910060308D
:1012F600920020009212210092160800210012137B
:10130600843022009300A1309400200012132100A3
:101316001217080021004F08500403199329942935
:10132600992950088A004F080A00893108002100CF
:101336004B084C040319A029A129A6294C088A00A8
:101346004B080A008931080021005B085C04031978
:10135600AD29AE29B3295C088A005B080A008931E9
:10136600270016100800210059085A040319BC2941
:10137600BD29C2295A088A0059080A00893127005E
:10138600961108002000911EC929CA29C5292100E5
:10139600BA0123009D1CD029D129D3291D121D165F
:1013A600190808002700161CD929DA29DD298931F0
:1013B600A72189312700961DE129E229E5298931EE
:1013C600B62189310800043026009A009801990157
:1013D600DB302100DF000830E0008931042189314B
:1013E6002000931221009316080020009901FF3077
:1013F6009700FF309600111017082100D200200038
:1014060016082100D1000130200098000800F330B2
:101416002800960095012000931021009314DF30D8
:10142600DF000830E00089312E218A317F30280024
:10143600970008002100E000DF0130306002031C45
:10144600252A262A2E2A3430600203182B2A2C2A13
:101456002E2ADF01DF0A5F0808002000931226000B
:101466001808F2007208F3001908F2007208F40076
:101476007408F1007308F00021004E088A004D0838
:101486000A008A3108007108F3007008F200F3368A
:10149600F20CF336F20C720826009100700803393C
:1014A600F2000430F235890B552A1308CF3972043D
:1014B600930008002000931001302100AC07003093
:1014C600AD3D00302D02023003192C02031C6C2A9C
:1014D6006D2A732A89319A218A312100AC01AD0126
:1014E600080021001508C03917389500163020006D
:1014F600950016302100E1006108DD000B118B1606
:10150600DE30DF000830E000893128218A3108000A
:10151600F3007308F200F20DF20D21001D087206A9
:10152600833972069D001D1400320032000021002E
:101536009D149D189F2AA02A9C2A1C08F1001B08AE
:10154600F00008007108803AF20080307202031D34
:10155600AE2A013070020318B12AB22ABE2A7009D7
:10156600F2007109F300F20A0319F30A7208F00097
:101576007308F100BE2A08000B1121005D08200047
:10158600950001302100AE070030AF3D00302F023C
:10159600053003192E02031CD12AD22AD82A8931F2
:1015A6008D218A312100AE01AF010800F800F40157
:1015B600F5017008F200F3017208F6007308F700EF
:1015C600781CE62AE72AEB2A7608F4077708F53D21
:1015D6000130F635F70D890BEC2A0310F80C780864
:1015E600031DF62AF72AE32A7508F1007408F000AD
:1015F6000800083023009F0090309D0024309E0094
:1016060033309B009C0100302100DF000030E000F9
:10161600893110218A3100302100DF000030E000DE
:10162600893116218A3100302100DF000030E000C8
:1016360089310A218A312100BA0108002100660891
:101646000319262B272B2C2B0130F0007008DE0700
:101656002E2B0130DE024208031D322B332B3E2B8C
:10166600260019082100B700260018082100B60038
:10167600C201C20A4A2B260019082100B50026001D
:1016860018082100B4000230F0007008C2000800FB
:1016960089316A218B318B3179238B318931402114
:1016A6008B318831EA208B31893181218B31883128
:1016B600E6208B318A310A228B3189314F218B31D9
:1016C6008A3174228B31893175218B3189314721D9
:1016D6008B318931E6218B31893157218B31893123
:1016E600F8218B318A31FC228B31080022008C01D3
:1016F6008D01373021008C00ED308D00C030230085
:101706008D000F308C00093024008D008C012100E3
:101716009513C03022009D0001309E002700161050
:1017260096111514951514109411DC302100DF0064
:101736000830E00089311C218B31DD302100DF00CB
:101746000830E000893122218B318B1508002100F9
:10175600BD01BF01DE01DE0A7E30F0007008A00088
:101766008130F0007008A1008130F0007008A200FE
:101776007E30F0007008A300A4012030F00070084D
:10178600A5002030F0007008A6002030F000700898
:10179600A70066080319D02BD12BD72B3C08FE399E
:1017A600F0007008BC00E02B3B08FE39F000700822
:1017B600BB00C7018831E0208B31210027083C049B
:1017C600F0007008A70026083B04F0007008A60089
:1017D60008007E1CF02B8B31AA2B2100BD01BF0116
:1017E600DE01DE0A7E30DF005F08A0008130DF0008
:1017F6005F08A1008130DF005F08A2007E30DF00B5
:101806005F08A300A4012030DF005F08A500203098
:10181600DF005F08A6002030DF005F08A70066082B
:101826000319162C172C1D2C3C08FE39DF005F0807
:10183600BC00262C3B08FE39DF005F08BB00C70151
:101846008831E3208B31210027083C04DF005F0844
:10185600A70026083B04DF005F08A6000800013049
:101866002100E0004A0A382CE035890B372C600845
:10187600E1006108E2000130E000490A432CE0354E
:10188600890B422C6008E1006108E3004A08031D49
:101896004D2C4E2C542C3C086304E0006008BC0020
:1018A600712C49084A020318592C5A2C612C3C0801
:1018B60062046304E0006008BC00712C4A08490217
:1018C6000318662C672C712C3C086204E000600843
:1018D600BC003B086304E0006008BB000330470619
:1018E600031D762C772C802C0230E0006008C700A0
:1018F6000030893134218C31842C0230E0006008BC
:10190600C70008002100BD01BF01BF0ABC1C8C2C0A
:101916008D2C922C6608031D912C922C9B2C66080C
:10192600031D962C972CA82CBB1C9A2C9B2CA82C00
:101936000030F000F1008A3146228C3100308831C7
:10194600EE208C318831E0208C312100A00141301D
:10195600F4007408A100FF30F4007408A200A3018B
:10196600A30AA4012030F4007408A5002030F40076
:101976007408A6002030F4007408A700660803194E
:10198600C52CC62CD02C3C08FD39F4007408BC00CC
:101996000230F4007408C700DE2C3B08FD39F40061
:1019A6007408BB003B08031DD92CDA2CDE2C03304F
:1019B600F4007408C70027083C04F4007408A70064
:1019C60026083B04F4007408A60008002100BD01A7
:1019D6000230F4007408BF003C1DF22CF32CF82CE6
:1019E6006608031DF72CF82C012D6608031DFC2C38
:1019F600FD2C0E2D3B1D002D012D0E2D0030F0006F
:101A0600F1008A3146228C3100308831EE208C314B
:101A16008831E0208C314330F40074082100A000A6
:101A26008530F4007408A1008930F4007408A2001F
:101A36007130F4007408A300A4012030F400740887
:101A4600A5002030F4007408A6002030F4007408C5
:101A5600A70066080319302D312D372D3C08FB39B8
:101A6600F4007408BC003C2D3B08FB39F4007408F4
:101A7600BB0027083C04F4007408A70026083B04B2
:101A8600F4007408A6003B08031D4A2D4B2D542D67
:101A96003C08031D4F2D502D542D0330F4007408BF
:101AA600C7000800031020005C0D5D0DDE005E0817
:101AB600FD007D08031D602D612D6A2D0030DD00BF
:101AC6000030DC000030DB000030DA00C92D5A0897
:101AD600DE005B08DF005C08E0005D08E1001F3007
:101AE600E136E00CDF0CDE0C890B732D5E08E2009C
:101AF6006208FC00DC17FF30DA05FF30DB05FF303B
:101B0600DC050030DD059630FD02FD1F8B2D8C2D8A
:101B1600A42D7D08803A973E0318922D932D942D7F
:101B2600612D0130DD36DC0CDB0CDA0C890B952DD2
:101B36000130DE005E08FD07031DA22DA32D942DA6
:101B4600B92D20307D02031CA92DAA2DB42D612D9F
:101B56000130DA35DB0DDC0DDD0D890BAC2D0130E6
:101B6600FD027D08031DB82DB92DAB2D7C08031988
:101B7600BD2DBE2DC92DDA09DB09DC09DD09DA0A1E
:101B86000319DB0A0319DC0A0319DD0A0800210020
:101B9600BD010330F4007408BF007830F400740807
:101BA600DE00BC1DD72DD82DDD2D6608031DDC2DCE
:101BB600DD2DE62D6608031DE12DE22DF32DBB1D5F
:101BC600E52DE62DF32D0030F000F1008A31462296
:101BD6008D3100308831EE208D318831E0208D3115
:101BE6008130F40074082100A0009130F4007408DC
:101BF600A1009130F4007408A2006E30F40074085D
:101C0600A300A4012030F4007408A5002030F400DD
:101C16007408A6002030F4007408A70066080319AB
:101C2600152E162E1C2E3C08F739F4007408BC003D
:101C3600212E3B08F739F4007408BB0027083C0442
:101C4600F4007408A70026083B04F4007408A600F4
:101C56003B08031D2F2E302E3A2E3C08031D342E32
:101C6600352E3A2E0330F4007408C700402E3C0887
:101C760003193E2E3F2E402EBC010800632E003075
:101C8600F000F1008A3146228E312100B8017A2E09
:101C960004303802031C502E512E562E0330F40009
:101CA6007408C700482E0130F4007408B8077A2E6D
:101CB600F430F0000130F1008A3146228E31482E90
:101CC60021004708F400F5017508003A03196C2E47
:101CD6007A2E7408003A0319422E013A03194B2E44
:101CE600033A03195B2E013A03195B2E7A2E3C0840
:101CF60003197E2E7F2E9F2EE601E60A22008C1700
:101D06000230210047060319892E8A2E902E0330B1
:101D16004706031D8F2E902EBF2E6030F4007408E8
:101D2600A500C030F4007408A6006030F400740802
:101D3600A700BD01BD0ABF2EE60122008C130230AA
:101D4600210047060319A82EA92EAF2E03304706F9
:101D5600031DAE2EAF2EBF2EC030F4007408A500B2
:101D66006030F4007408A600C030F4007408A700C0
:101D76000230F4007408BD0027083C04F40074081F
:101D8600A70026083B04F4007408A60008000030EB
:101D9600F000F1000430F2000030F30025308F31FE
:101DA6005C278E317A082000A5007B08A600A701D3
:101DB600A801A40128080F39A00005302002031C41
:101DC600E52EE62EEF2E28080F39033EA000280840
:101DD6002006F0392006A800270E0F39A00005308E
:101DE6002002031CF72EF82E022F270E0F39033E72
:101DF600A000A00E270820060F392006A7002708F6
:101E06000F39A00005302002031C0A2F0B2F142FB8
:101E160027080F39033EA00027082006F0392006C0
:101E2600A700260E0F39A00005302002031C1C2F28
:101E36001D2F272F260E0F39033EA000A00E2608C1
:101E460020060F392006A6002508A0002608A100B6
:101E56002708A2002808A3000130A035A10DA20D75
:101E6600A30D890B302F2308A8002208A7002108FC
:101E7600A6002008A5000130A0002008A4070C3009
:101E86002402031C472F482FDD2E2508A000260814
:101E9600A1002708A2002808A3000C30A336A20C34
:101EA600A10CA00C890B512F2108FB002008FA0079
:101EB6000800F8007808F4007408F9007208730442
:101EC600031D662F672F682FFF2F7008F40079080F
:101ED60086008701740881007008F400720879078B
:101EE600F5007508FF3E8600870174088100003002
:101EF60073020330031972020318822F832F842F73
:101F0600FF2F7008F400790A8600870174088100A3
:101F16007008F4007908023E860087017408810083
:101F26007008F40072087907F5007508FE3E860011
:101F36008701740881007008F40072087907F500BB
:101F46007508FD3E86008701740881000030730223
:101F56000730031972020318B12FB22FB32FFF2FC8
:101F66007008F4007908033E860087017408810032
:101F76007008F40072087907F5007508FC3E8600C3
:101F86008701740881000030730209300319720258
:101F96000318CE2FCF2FD02FFF2F7909F4007A09FF
:101FA600F500F40A0319F50A03307405F60000304B
:101FB6007505F7007608F4007408F9077608F2024A
:101FC6007708F33BFC30F205FF30F305F92F700874
:101FD600F400790886008701740881000130F20256
:101FE6000030F33B0130F4007408F90772087304FB
:0A1FF600031DFE2FFF2FEA2F080045
:020000040001F9
:08000000FF3FFF3FFF3FFF3F00
:04000E00E43FFF3E8E
:00000001FF
