:1000000080315628013401347E1480318B1D09283B
:100010000A2811280B1C0D280E2811288931772158
:1000200080318B1E142815281C280B1D1828192810
:100030001C288A31272280310B1F1F282028542892
:100040002100121F242825282D282000121F2928CE
:100050002A282D2888317F2080312100921E3128C6
:1000600032283A282000921E362837283A2888312C
:10007000792080312100931E3E283F284728200008
:10008000931E432844284728893188218031210044
:10009000931C4B284C2854282000931C502851288E
:1000A00054288A31102280317E100900803158286E
:1000B000803103208031EF00210080310220803127
:1000C000EF002000EE01A0308400003085002E30CB
:1000D0008831B52080317E10200087310C2F200020
:1000E00043088039CD004335D300C21F78287928D2
:1000F0007A285314530803197E287F288E28530A20
:10010000031D832884288C280030C3000030C200DF
:100110000030C1000030C000C21796280030C30074
:100120000030C2000030C1000030C00047088039F4
:10013000C8004808CD064735D200C61FA028A12810
:10014000A228521452080319A628A728B628520A32
:10015000031DAB28AC28B4280030C7000030C6000F
:100160000030C5000030C400C617BE280030C700EC
:100170000030C6000030C5000030C400520803192A
:10018000C228C328C8285308031DC728C828D12857
:100190000030C3000030C2000030C1000030C00099
:1001A000A92A4008F00046088A31AA228031710845
:1001B0002000D9007008D8005808C800C901CA0139
:1001C000CB014B08D1004A08D0004908CF004808AD
:1001D000CE005908C800C901CA01CB014B08D7009D
:1001E0004A08D6004908D5004808D4004108F00064
:1001F00045088A31AA22803171082000D900700890
:10020000D8005808C800C901CA01CB014808CE0768
:100210004908CF3D4A08D03D4B08D13D5908C80098
:10022000C901CA01CB014808D4074908D53D4A088D
:10023000D63D4B08D73D4208F00044088A31AA2237
:10024000803171082000D9007008D8005808C80013
:10025000C901CA01CB014808CE074908CF3D4A0869
:10026000D03D4B08D13D5908C800C901CA01CB0196
:100270004808D4074908D53D4A08D63D4B08D73D24
:100280000830CE35CF0DD00DD10D890B4129410855
:10029000F00044088A31AA22803171082000D90078
:1002A0007008D8005808CE075908CF3D0030D03D1F
:1002B000D13D4008F00045088A31AA2280317108FA
:1002C0002000D9007008D8005808CE075908CF3D43
:1002D0000030D03DD13D0830CE35CF0DD00DD10D01
:1002E000890B6C294008F00044088A31AA22803129
:1002F00071082000D9007008D8005808CE075908A6
:10030000CF3D0030D03DD13D4108F00046088A3154
:10031000AA22803171082000D9007008D80058083E
:10032000D4075908D53D0030D63DD73D4208F000EE
:1003300045088A31AA22803171082000D90070084E
:10034000D8005808D4075908D53D0030D63DD73DD0
:100350004208F00046088A31AA2280317108200044
:10036000D9007008D8005808C8005908C900CA0147
:10037000CB010830C835C90DCA0DCB0D890BBA2980
:100380004808D4074908D53D4A08D63D4B08D73D13
:100390004E08C8004F08C9005008CA005108CB00D9
:1003A0001830CB36CA0CC90CC80C890BD1294808A7
:1003B000D4074908D53D4A08D63D4B08D73D0830FB
:1003C000CE35CF0DD00DD10D890BE0295308520742
:1003D000C800C901C90D4808823ED800FF30493D18
:1003E000D900092A0130D435D50DD60DD70D890B8A
:1003F000F329D11FFC29FD29FE2954140130CE35E3
:10040000CF0DD00DD10D890BFF29FF30D807FF305C
:10041000D93DD61F0C2A0D2AF229D201D11F112A4B
:10042000122A2E2AFF304E05C800FF304F05C900A2
:10043000FF305005CA007F305105CB004B084A04FD
:10044000490448040319252A262A292AD201D20A56
:100450002E2A541C2C2A2D2A2E2A262A5208031909
:10046000322A332A5B2A0130D4070030D53D0030D0
:10047000D63D0030D73D571C3E2A3F2A5B2A540800
:10048000C8005508C9005608CA005708CB000130FB
:10049000CC00CB37CA0CC90CC80CCC0B492A4B0872
:1004A000D7004A08D6004908D5004808D4000130D2
:1004B000D8070030D93D5908803AC800803048023A
:1004C000031D642AFF305802031C672A682A722A17
:1004D0007F302000D7008030D6000030D5000030BB
:1004E000D4009D2A20005908803AC8008030480274
:1004F000031D7C2A0130580203187F2A802A8B2A88
:1005000000302000D7000030D6000030D500003089
:10051000D400CD019D2A20005808D300FF30D40517
:10052000FF30D5057F30D6050030D705531C992AFA
:100530009A2A9B2AD6175336D7004D08C800480878
:10054000D7045708C3005608C2005508C100540814
:10055000C00008002000E9016F080319B02AB12A81
:10056000B42AEB01EB0AB62A0830EB00EA016F0867
:100570000319BB2ABC2ACB2A6B08E2006A0AC12AEB
:10058000E235890BC02A6208EB0021003E082000FA
:100590006B05E800D92A6A08E2006B0AD02AE23625
:1005A000890BCF2A6208EB0021003D0820006B0573
:1005B000E80068080319DD2ADE2AE12A6808E90054
:1005C000F82A0130E2006208EA0704306A02031CDC
:1005D000EA2AEB2AB72AF82AE901E90A0B2B0230AA
:1005E000E9000B2B0330E9000B2B0430E9000B2B47
:1005F0006908E200E3016308003A0319002BF52AB9
:100600006208023A0319EC2A063A0319EF2A0C3A57
:100610000319F22AF52A21004D082000E200E30127
:10062000E401E5016508F7006408F6006308F500D9
:100630006208F4000130863161268231770820009B
:10064000C7007608C6007508C5007408C4003F30AE
:10065000C300C030C2000030C1000030C000803193
:100660006F20823120004308DD004208DC00410891
:10067000DB004008DA008D31F325823120005A0872
:100680002100C00044302000C3007A30C200003096
:10069000C1000030C0004330A9009630A8000030EF
:1006A000A7000030A60021003B084002F000F10145
:1006B000031CF1038A31742282317008F40071083E
:1006C000F500890D893B8909F600F7000130863174
:1006D0006126823177082000AD007608AC007508ED
:1006E000AB007408AA008431B724823120002908A5
:1006F000C7002808C6002708C5002608C4008031A6
:100700006F208231200043082100AB002000420806
:100710002100AA00200041082100A9002000400873
:100720002100A8004008BB002B082000C7002100C2
:100730002A082000C600210029082000C500210049
:1007400028082000C4004130C3002030C20000301F
:10075000C1000030C00080316F208231200043088A
:10076000DD004208DC004108DB004008DA008D3182
:10077000F325823120005B08E7005A08E6000230CA
:100780008A315A22823170082000E2007108E300A9
:10079000E401E5016508F7006408F6006308F50068
:1007A0006208F4000030863161268231770820002B
:1007B000AD007608AC007508AB007408AA004430A0
:1007C000A9008030A8000030A7000030A6008431C6
:1007D000B724823120002908C7002808C60027084E
:1007E000C5002608C4004430C3007930C200C030C0
:1007F000C1000030C00080316F20823120004308EA
:10080000DD004208DC004108DB004008DA008D31E1
:10081000F325823120005B082100B50020005A0832
:100820002100B40024308831E4208231200069089E
:10083000303E8831E42082312C308831E42082310E
:1008400021004108303E8831E42082312C3088314B
:10085000E420823121003F08303E8831E42082319B
:100860002C308831E4208231210040082000E20051
:10087000E3016208FA006308FB008F316E278231C2
:100880007B082000ED007A08EC006D080F39303E3F
:100890008831E420823120006C0E0F39303E8831DF
:1008A000E420823120006C080F39303E8831E4208A
:1008B00082312C308831E420823120006708FB002F
:1008C0006608FA008F316E2782317B082000ED0028
:1008D0007A08EC006D080F39303E8831E42082310F
:1008E00020006C0E0F39303E8831E42082312E30EA
:1008F0008831E420823120006C080F39303E883185
:10090000E42082312C308831E42082312100350806
:10091000FB003408FA008F316E2782317B082000FB
:10092000ED007A08EC006D0E0F39303E8831E4207E
:10093000823120006D080F39303E8831E420823149
:1009400020006C0E0F39303E8831E42082312E3089
:100950008831E420823120006C080F39303E883124
:10096000E42082310D308831E420823108002000FB
:100970002D088039B7002D35BE00AC1FC02CC12C0E
:10098000C22C3E143E080319C62CC72CD72C3E0A95
:10099000031DCB2CCC2CD42C0030AD000030AC008F
:1009A0000030AB000030AA00AC17AD01DF2C0030E6
:1009B000AD000030AC000030AB000030AA002908C8
:1009C0008039AE002E08B7062935BF00A81FE92CD4
:1009D000EA2CEB2C3F143F080319EF2CF02C002DD0
:1009E0003F0A031DF42CF52CFD2C0030A90000302B
:1009F000A8000030A7000030A600A817A901082D04
:100A00000030A9000030A8000030A7000030A60088
:100A10002908280427042604031D0F2D102D292D35
:100A20000030AD000030AC000030AB000030AA0058
:100A30008030AC047F30AD043708AE002E08AD0422
:100A40002D08A9002C08A8002B08A7002A08A6003A
:100A5000602E3E08031D2D2D2E2D372D0030A900B0
:100A60000030A8000030A7000030A600602E3E082D
:100A7000AE00AF012F08B1003F082E02B000031CEA
:100A8000B10330087F3EB8000030313DB9002D0879
:100A9000B6002C08B5002B08B4002A08B3000030BB
:100AA000AD000030AC000030AB000030AA000030D8
:100AB000BD000030BC000030BB000030BA00BF01F8
:100AC0009F2D3F080319652D662D802D0130B3350C
:100AD000B40DB50DB60D890B672D0130AA35AB0DE0
:100AE000AC0DAD0D890B6E2DBD1F772D782D792D99
:100AF0002A140130BA35BB0DBC0DBD0D890B7A2D02
:100B000029083602031D8E2D28083502031D8E2D5F
:100B100027083402031D8E2D26083302031C912D55
:100B2000922D9B2D3D172608B3022708B43B2808B9
:100B3000B53B2908B63B0130AE002E08BF071A307E
:100B40003F02031CA42DA52D612D36083504340465
:100B500033040319AC2DAD2DC62D3A14C62D01302A
:100B6000AA35AB0DAC0DAD0D890BB02DBD1FB92D48
:100B7000BA2DBB2D2A140130BA35BB0DBC0DBD0DED
:100B8000890BBC2DFF30B807FF30B93DAC1FC92D14
:100B9000CA2DAF2DBF01BD1FCE2DCF2DEB2DFF30A8
:100BA0003A05AE00FF303B05AF00FF303C05B0001A
:100BB0007F303D05B100310830042F042E040319A5
:100BC000E22DE32DE62DBF01BF0AEB2D2A1CE92DF6
:100BD000EA2DEB2DE32D3F080319EF2DF02D182EF4
:100BE0000130AA070030AB3D0030AC3D0030AD3DD8
:100BF0002D1CFB2DFC2D182E2A08AE002B08AF0053
:100C00002C08B0002D08B1000130B200B137B00C93
:100C1000AF0CAE0CB20B062E3108AD003008AC00A4
:100C20002F08AB002E08AA000130B8070030B93DEC
:100C30003908803AAE0080302E02031D212EFF308D
:100C40003802031C242E252E322EFF302000B8003F
:100C50000030B9000030AD000030AC000030AB0017
:100C60000030AA0020003908803AAE0080302E0201
:100C7000031D3C2E0130380203183F2E402E4C2E0F
:100C80002000B801B9010030AD000030AC000030E8
:100C9000AB000030AA00B70120003808BE003E1C9F
:100CA000522E532E552EAC17592E7F30AE002E08E3
:100CB000AC053E36AD003708AE002E08AD04202D41
:100CC00008002000A00020080319672E682E7C2E43
:100CD000F71F6B2E6C2E7C2E7409A2007509A300E1
:100CE0007609A4007709A500A20A0319A30A03192B
:100CF000A40A0319A50A842E7708A5007608A40083
:100D00007508A3007408A2007708760475047404BB
:100D1000031D8B2E8C2E952E0030F7000030F60030
:100D20000030F5000030F4000B2F9630A100A32E08
:100D30000130F8007808A1070130A536A40CA30CF7
:100D4000A20C890B9D2EFE302505031DA82EA92E71
:100D5000982EBD2E0130F8007808A1070130A207B7
:100D60000030A33D0030A43D0030A53D0130A53644
:100D7000A40CA30CA20C890BB72EFF302505031D74
:100D8000C22EC32EAA2ECD2E0130A1020130A235D3
:100D9000A30DA40DA50D890BC72EA41BD02ED12EFB
:100DA000D72E023021020318D62ED72EC42E21189A
:100DB000DA2EDB2EE32EFF30A205FF30A3057F30B5
:100DC000A405FF30A5050310A10C2108F800F901C6
:100DD000FA01FB011830F835F90DFA0DFB0D890BFE
:100DE000EB2E7808A2047908A3047A08A4047B08EF
:100DF000A50420080319FD2EFE2E032FF71F012F37
:100E0000022F032FA5172508F7002408F600230852
:100E1000F5002208F40008008B316D238731FE3085
:100E20002100CE000B30CF008831972087318330EE
:100E30002100CE000C30CF0088319D2087316430F6
:100E40002100CE000E30CF008831A9208731AA3092
:100E50002100CE000230CF008831A3208731193025
:100E60002100CE000B30CF00883185208731220051
:100E70008D1400308C31DA2487318C313424873161
:100E80008B170B178B31FE23873188317420873104
:100E9000003A03194C2F4D2F452F893157218731A7
:100EA0002100C80024304806031D572F582F992FC2
:100EB000CA01992F24304806031D5F2F602FAF2FE2
:100EC000CA01CA0A452F48088931D1218731003A21
:100ED00003196B2F6C2F732F21004808D03EC300DD
:100EE0000230CA00452F2100CA01452F4808893128
:100EF000D1218731003A03197E2F7F2F732F2100D4
:100F00004808D03EC2000330CA00452F0D304806C5
:100F1000031D8B2F8C2F732F4308CC004208CB006E
:100F20008731B227873101302100DF005F08C50714
:100F3000732F4A08DF00E0016008003A0319A12F6F
:100F4000732F5F08003A03195A2F013A0319632FD0
:100F5000033A0319762F013A0319862F732F452F71
:100F60008031562801302100CF004C0AB82FCF35F0
:100F7000890BB72F4F08D0000130CF004B0AC12F8B
:100F8000CF35890BC02F4F08D1004C08031DC92F46
:100F9000CA2FCE2F3E085104BE00E52F4B084C024D
:100FA0000318D32FD42FD92F3E0850045104BE006C
:100FB000E52F4C084B020318DE2FDF2FE52F3E08EC
:100FC0005004BE003D085104BD0003304906031D16
:100FD000EA2FEB2FF22F0230C90000308831AF200A
:100FE0008731F42F0230C9000800093400340A3474
:100FF00000340B3407340C3401340F3401340F3413
:0A10000000340034403401340034A1
:1010B80008000800080008000800280017150800A4
:1010C80028001715080089302200970008001630FC
:1010D800210097000800F00070082800950008001B
:1010E8002000110E890C01390800200092128D3160
:1010F800322588310800200012138D318E25883161
:10110800080021004F08E4004E08E3000800210011
:101118004F08EA004E08E900080021004F08E800DF
:101128004E08E700080021004F08EE004E08ED00C9
:10113800080021004F08EC004E08EB0008002100D1
:101148004F08E6004E08E500080021004F08E200BD
:101158004E08E10008002100CE004E082800950046
:101168000800640080010131890BB628003468301A
:10117800210099009801220096010800C33021003F
:101188009E009B019C0101309D000800FF3020005B
:101198009B009A01911004309C00080021004F0820
:1011A8002200A10021004E082200A00008000C30F7
:1011B8002600930091019201CF3025009E0508007A
:1011C800F0002000111EE928EA28E528700823000D
:1011D8009A000800403024009400950101309200E4
:1011E80021000D122400951208002100921284306B
:1011F8002200910060309200200092122100921685
:10120800080021001213843022009300A1309400BA
:101218002000121321001217080021006508660437
:101228000319172918291D2966088A0065080A0064
:10123800893108002100610862040319242925293D
:101248002A2962088A0061080A0089310800F70023
:1012580022008D107608F1007508F00077088A31B1
:10126800F222893122008D14080021006D086E04D5
:1012780003193F29402945296E088A006D080A008C
:10128800893127001610080021006B086C04031927
:101298004E294F2954296C088A006B080A008931A5
:1012A8002700961108002000911E5B295C29572908
:1012B8002100BC0123009D1C6229632965291D1298
:1012C8001D16190808002100D50022008D102100E4
:1012D8005408CF005308CE0055088B314323893179
:1012E80022008D1408002700161C7B297C297F29E1
:1012F8008931392189312700961D83298429872935
:1013080089314821893108002000931226001808E5
:10131800F2001908F3007308F1007208F0002100C8
:1013280064088A0063080A0089310800043026002E
:101338009A00980199015C302100CE000830CF0056
:1013480088318520893120009312210093160800E6
:1013580020009901FF309700FF3096001110170800
:101368002100B100200016082100B0000130200043
:1013780098000800F330280096009501200093108B
:10138800210093146030CE000830CF008831A920A6
:1013980089317F302800970008002100CF00CE0156
:1013A80030304F02031CD929DA29E22934304F02A0
:1013B8000318DF29E029E229CE01CE0A4E080800E9
:1013C80021001508C03917389500163020009500FF
:1013D8001630EE000B118B165F302100CE0008305E
:1013E800CF008831A320893108007108F300700804
:1013F800F200F336F20CF336F20C72082600910074
:1014080070080339F2000430F235890B082A1308F2
:10141800CF39720493000800200093100130210096
:10142800AC070030AD3D00302D02023003192C020C
:10143800031C1F2A202A262A89311E218A312100CD
:10144800AC01AD0108000B1120006E0895000130B9
:101458002100AE070030AF3D00302F0205300319E0
:101468002E02031C382A392A3F2A893111218A3150
:101478002100AE01AF0108000830FA007A08F80030
:101488007A089F3E860087010108F9000230F500BE
:101498000030F600783089312B218A310130FA0288
:1014A8007A08031D582A592A422A0800F3007308AB
:1014B800F200F20DF20D21001D0872068339720642
:1014C8009D001D1400320032000021009D149D185B
:1014D8006E2A6F2A6B2A1C08F1001B08F00008000E
:1014E8007108803AF20080307202031D7D2A0130B3
:1014F80070020318802A812A8D2A7009F200710966
:10150800F300F20A0319F30A7208F0007308F100F5
:101518008D2A080008302100D8005808D60058083D
:101528009F3E860087010108D7000230D3000030B3
:10153800D400D630893167218A3101302100D802A0
:101548005808031DA82AA92A912A0800F800F401BE
:10155800F5017008F200F3017208F6007308F7004D
:10156800781CB72AB82ABC2A7608F4077708F53D0C
:101578000130F635F70D890BBD2A0310F80C7808F1
:10158800031DC72AC82AB42A7508F1007408F00098
:101598000800083023009F0090309D0024309E00F2
:1015A80033309B009C0100302100CE000030CF007A
:1015B80088318B208A3100302100CE000030CF00E6
:1015C800883191208A3100302100CE000030CF00D0
:1015D8008831D2208A312100BC010800F300730849
:1015E800F4000C2B74088600870101082400910080
:1015F8002000911D002B012BFC2A911174088600F4
:1016080087012400110881000130F2007208F407F4
:101618000130F0020030F13B700A031D172B710AEC
:10162800031D172B182BF62A080020006F08031932
:101638001E2B1F2B252B0130F00070082100CD0731
:10164800282B01302100CD024408031D2C2B2D2B03
:10165800382B260019082100B90026001808210097
:10166800B800C401C40A422B260019082100B7009B
:10167800260018082100B6000230C4000800210026
:10168800D1005108D200602B52088600870101085A
:10169800240091002000911D522B532B4E2B9111A9
:1016A80021005208860087012400110881000130BA
:1016B8002100D0005008D2070130CE020030CF3BC5
:1016C8004E0A031D6B2B4F0A031D6B2B6C2B482BEB
:1016D80008008831EE208B318B319B238B31883188
:1016E800BB208B3188316B208B31893105218B31BF
:1016F800883167208B318931BE218B318831CA20EE
:101708008B318931E4218B318831F9208B31883153
:10171800C2208B3189319A218B318831DB208B3182
:101728008931AC218B318A31CD228B3108002200DE
:101738008C018D01373021008C00ED308D00C030D8
:1017480023008D000F308C00093024008D008C019F
:1017580021009513C03022009D0001309E00270013
:101768001610961115149515141094115D3021005A
:10177800CE000830CF00883197208B315E302100B1
:10178800CE000830CF0088319D208B318B150800A2
:101798002100BF01C101CD01CD0A7E30A0008130FA
:1017A800A1008130A2007E30A300A4012030A50052
:1017B8002030A6002030A70020006F080319E52B71
:1017C800E62BEB2B21003E08FE39BE00F32B21004F
:1017D8003D08FE39BD00C901883161208B318A314D
:1017E80040228B31210027083E04A70026083D042B
:1017F800A60008007E1C022C8B31CC2B2100BF01D7
:10180800C101CD01CD0A7E30A0008130A100813018
:10181800A2007E30A300A4012030A5002030A6003D
:101828002030A70020006F0803191B2C1C2C212C2A
:1018380021003E08FE39BE00292C21003D08FE3952
:10184800BD00C901883164208B318A318E228B31E9
:10185800210027083E04A70026083D04A60008002A
:101868002100DB01DC015C08A03E860087018101C4
:101878000130D6005608DC0708305C02031C452CF2
:10188800462C372CDD01DE015E08D73E8600870135
:101898005B08F53E840087300318013E8500000888
:1018A80081005E08013ED73E860087015B08F63E50
:1018B800840087300318013E8500000881005E0817
:1018C800023EDE0004305E02031C6B2C6C2C482C9C
:1018D8005B08023EDB000430D3000030D400D73070
:1018E800893167218C3101302100D6005608DD0787
:1018F80006305D02031C812C822C472C0800210035
:10190800BF01C101C10ABE1C8A2C8B2C912C20005E
:101918006F08031D902C912C9C2C20006F08031D30
:10192800962C972CA92C2100BD1C9B2C9C2CA92CF7
:101938000030F000F1008931F9218C310030883114
:101948006F208C31883161208C312100A001413019
:10195800A100FF30A200A301A30AA4012030A50022
:101968002030A6002030A70020006F080319BD2CE6
:10197800BE2CC52C21003E08FD39BE000230C9002E
:10198800D02C21003D08FD39BD003D08031DCD2C9C
:10199800CE2CD02C0330C90027083E04A700260807
:1019A8003D04A6008A3140228C3108002100D10074
:1019B8002400951AE02CE12C312D21005108CE008D
:1019C800CF01CE35CF0DCE35CF0D02304E07840076
:1019D80008304F3D8038850000082400940021001D
:1019E8005108CE00CF01CE35CF0DCE35CF0D013009
:1019F8004E07840008304F3D8038850000082400D9
:101A08009500960121005108CE00CF01CE35CF0DAB
:101A1800CE35CF0D03304E07840008304F3D803857
:101A2800850000082400920021005108CE00CF0153
:101A3800CE35CF0DCE35CF0D04304E07840008309B
:101A48004F3D803885000008D000D00E0D085006A4
:101A5800EF3950068D002400951608002100BF01BB
:101A68000230C1003E1D392D3A2D402D20006F084F
:101A7800031D3F2D402D4B2D20006F08031D452DC4
:101A8800462D582D21003D1D4A2D4B2D582D003037
:101A9800F000F1008931F9218D31003088316F2053
:101AA8008D31883161208D3143302100A00085308F
:101AB800A1008930A2007130A300A4012030A50044
:101AC8002030A6002030A70020006F0803196D2DD4
:101AD8006E2D732D21003E08FB39BE00772D2100A5
:101AE8003D08FB39BD0027083E04A70026083D0431
:101AF800A6008A3140228D3121003D08031D852D25
:101B0800862D8D2D3E08031D8A2D8B2D8D2D03309E
:101B1800C90008002100BF010330C1007830CD00A2
:101B2800BE1D972D982D9E2D20006F08031D9D2DFD
:101B38009E2DA92D20006F08031DA32DA42DB62DC1
:101B48002100BD1DA82DA92DB62D0030F000F100F3
:101B58008931F9218D31003088316F208D318831FC
:101B680061208D3181302100A0009130A100913099
:101B7800A2006E30A300A4012030A5002030A600EA
:101B88002030A70020006F080319CB2DCC2DD12DB4
:101B980021003E08F739BE00D52D21003D08F73950
:101BA800BD0027083E04A70026083D04A6008A3188
:101BB80040228D3121003D08031DE32DE42DEC2D3D
:101BC8003E08031DE82DE92DEC2D0330C900F22D48
:101BD8003E080319F02DF12DF22DBE010800031067
:101BE80020005C0D5D0DFD007D08031DFC2DFD2D05
:101BF800062E0030DD000030DC000030DB00003055
:101C0800DA00632E5A08DE005B08DF005C08E0009B
:101C18005D08E1001F30E136E00CDF0CDE0C890BBB
:101C28000F2E5E08FC00DC17FF30DA05FF30DB05FD
:101C3800FF30DC050030DD059630FD02FD1F252E46
:101C4800262E3E2E7D08803A973E03182C2E2D2EE8
:101C58002E2EFD2D0130DD36DC0CDB0CDA0C890B69
:101C68002F2E0130DE005E08FD07031D3C2E3D2EA1
:101C78002E2E532E20307D02031C432E442E4E2E32
:101C8800FD2D0130DA35DB0DDC0DDD0D890B462E1F
:101C98000130FD027D08031D522E532E452E7C086F
:101CA8000319572E582E632EDA09DB09DC09DD09E2
:101CB800DA0A0319DB0A0319DC0A0319DD0A08002A
:101CC800842E0030F000F1008931F9218E31210095
:101CD800BA019B2E04303A02031C732E742E772E01
:101CE8000330C9006B2E0130FB007B08BA079B2E1E
:101CF800F430F0000130F1008931F9218E316B2E7A
:101D080021004908FB00FC017C08003A03198D2ECC
:101D18009B2E7B08003A0319652E013A03196E2E93
:101D2800033A03197C2E013A03197C2E9B2E3E0898
:101D380003199F2EA02EBB2E2000EF01EF0A2200D0
:101D48008C170230210049060319AB2EAC2EB22E97
:101D580003304906031DB12EB22ED42E6030A500E3
:101D6800C030A6006030A700BF01BF0AD42E2000F3
:101D7800EF0122008C130230210049060319C52EF9
:101D8800C62ECC2E03304906031DCB2ECC2ED42EC6
:101D9800C030A5006030A600C030A7000230BF00E8
:101DA80027083E04A70026083D04A6008A314022E1
:101DB8008E310800F8007808F90072087304031DD2
:101DC800E62EE72EE82E6D2F790886008701700829
:101DD800810072087907F4007408FF3E86008701C5
:101DE800700881000030730203300319720203186F
:101DF800FE2EFF2E002F6D2F790A860087017008AE
:101E080081007908023E8600870170088100720807
:101E18007907F4007408FE3E860087017008810087
:101E280072087907F4007408FD3E8600870170087F
:101E38008100003073020730031972020318252F3E
:101E4800262F272F6D2F7908033E860087017008FB
:101E5800810072087907F4007408FC3E8600870147
:101E680070088100003073020930031972020318E8
:101E78003E2F3F2F402F6D2F7909F4007A09F50086
:101E8800F40A0319F50A03307405F60000307505E5
:101E9800F7007608F4007408F9077608F202770864
:101EA800F33BFC30F205FF30F305672F7908860015
:101EB8008701700881000130F2020030F33B0130E5
:101EC800F4007408F90772087304031D6C2F6D2F52
:101ED8005A2F08000030F000F1000430F200003002
:101EE800F30025308E31DE268F317A082000A500D8
:101EF8007B08A600A701A801A40128080F39A000A3
:101F080005302002031C892F8A2F932F28080F39A8
:101F1800033EA00028082006F0392006A800270E56
:101F28000F39A00005302002031C9B2F9C2FA62FE1
:101F3800270E0F39033EA000A00E270820060F39F0
:101F48002006A70027080F39A00005302002031C2F
:101F5800AE2FAF2FB82F27080F39033EA000270850
:101F68002006F0392006A700260E0F39A0000530FC
:101F78002002031CC02FC12FCB2F260E0F39033E82
:101F8800A000A00E260820060F392006A600250866
:101F9800A0002608A1002708A2002808A3000130F5
:101FA800A035A10DA20DA30D890BD42F2308A800DD
:101FB8002208A7002108A6002008A5000130A000DB
:101FC8002008A4070C302402031CEB2FEC2F812FD0
:101FD8002508A0002608A1002708A2002808A300B9
:101FE8000C30A336A20CA10CA00C890BF52F2108EC
:081FF800FB002008FA000800BC
:020000040001F9
:08000000FF3FFF3FFF3FFF3F00
:04000E00E43FFF3E8E
:00000001FF
