:0400000080314928DA
:100008007E1480318B1E09280A2811280B1D0D2803
:100018000E2811288431F12480318B1D14281528CD
:100028001C280B1C182819281C28853141258031CB
:100038000B1F1F28202847282100921E2428252826
:100048002D282000921E29282A282D28863153265B
:1000580080312100121F312832283A282000121F2F
:10006800362837283A2886314D2680312100111C40
:100078003E283F2847282000111C432844284728A9
:1000880085319D2580317E10090080314B288631CD
:100098006A268031E50020308400003085001D305C
:1000A80086311D2680317E10200082311C2A2430A2
:1000B8008531F325803120003808303E8531F3251D
:1000C80080312C308531F325803120003708303ECF
:1000D8008531F32580312C308531F325803120009E
:1000E8003608303E8531F32580312C308531F325B3
:1000F800803100308531F32580312C308531F3256E
:10010800803120003108FB003008FA008031FA20E5
:1001180080317B08FD007A08FC007D080F39303EED
:100128008531F32580317C0E0F39303E8531F3253A
:1001380080317C080F39303E8531F32580312C30F1
:100148008531F325803120002F08FB002E08FA00A6
:100158008031FA2080317B08FD007A08FC007D0898
:100168000F39303E8531F32580317C0E0F39303E12
:100178008531F32580312E308531F32580317C0897
:100188000F39303E8531F32580312C308531F32508
:10019800803120002F08FB002E08FA008031FA2059
:1001A80080317B08FD007A08FC007D0E0F39303E57
:1001B8008531F32580317D080F39303E8531F325AF
:1001C80080317C0E0F39303E8531F32580312E3059
:1001D8008531F32580317C080F39303E8531F32590
:1001E80080310D308531F325803108000030F00072
:1001F800F1000430F2000030F300423081318C21EC
:1002080080317A082000C2007B08C300C401C50100
:10021800C10145080F39BD0005303D02031C1529F1
:1002280016291F2945080F39033EBD0045083D061C
:10023800F0393D06C500440E0F39BD0005303D02BA
:10024800031C272928293229440E0F39033EBD00F3
:10025800BD0E44083D060F393D06C40044080F3959
:10026800BD0005303D02031C3A293B2944294408B6
:100278000F39033EBD0044083D06F0393D06C40071
:10028800430E0F39BD0005303D02031C4C294D2992
:100298005729430E0F39033EBD00BD0E43083D06E6
:1002A8000F393D06C3004208BD004308BE0044089C
:1002B800BF004508C0000130BD35BE0DBF0DC00DE3
:1002C800890B60294008C5003F08C4003E08C300E8
:1002D8003D08C2000130BD003D08C1070C30410295
:1002E800031C772978290D294208BD004308BE0060
:1002F8004408BF004508C0000C30C036BF0CBE0C17
:10030800BD0C890B81293E08FB003D08FA00080056
:10031800F8007808F90072087304031D94299529D8
:1003280096291B2A790886008701700881007208BF
:100338007907F4007408FF3E860087017008810081
:10034800003073020330031972020318AC29AD2977
:10035800AE291B2A790A860087017008810079086E
:10036800023E860087017008810072087907F40050
:100378007408FE3E860087017008810072087907BC
:10038800F4007408FD3E8600870170088100003083
:1003980073020730031972020318D329D429D52907
:1003A8001B2A7908033E86008701700881007208BD
:1003B8007907F4007408FC3E860087017008810004
:1003C800003073020930031972020318EC29ED2971
:1003D800EE291B2A7909F4007A09F500F40A0319B1
:1003E800F50A03307405F60000307505F700760845
:1003F800F4007408F9077608F2027708F33BFC303A
:10040800F205FF30F305152A790886008701700880
:1004180081000130F2020030F33B0130F40074082F
:10042800F90772087304031D1A2A1B2A082A0800F0
:100438008431262482319A302000C6000430C70057
:1004480086312F268231D0302000C6000330C70005
:1004580086312F2682315B302000C6000030C7006D
:1004680086312926823122008D140030823199226A
:1004780082318231F42282318B170B17863159264B
:100488008231003A0319492A4A2A422A85316225CB
:1004980082312000BB007F2A243020003B06031D48
:1004A800562A572A962ABC01BC0A422A20003B0831
:1004B80085311D258231003A0319632A642A6B2A83
:1004C80020003B08D03EB8000230BC00422A200081
:1004D800BC01422A20003B0885311D258231003AA3
:1004E8000319772A782A6B2A20003B08D03EB700E8
:1004F8000330BC00422A3C082100A000A1012108C9
:10050800003A0319882A6B2A2008003A0319502A4E
:10051800013A03195A2A033A03196E2A013A0319B0
:100528006B2A6B2A422A803149282000C9002400FE
:10053800951A9F2AA02AF32A20004908C600C70155
:10054800C635C70DC635C70D5F304607840006306F
:10055800473D8038850000082400940020004908A1
:10056800C600C701C635C70DC635C70D5E3046077C
:1005780084000630473D8038850000082400950037
:10058800960120004908C600C701C635C70DC63503
:10059800C70D6030460784000630473D8038850027
:1005A80000082400920020004908C600C701C6358B
:1005B800C70DC635C70D6130460784000630473D74
:1005C800803885000008C800C80E21000D082000EA
:1005D8004806EF39480621008D00240095160800CA
:1005E8002000D301D4015408203E860087018101F0
:1005F8000130CE004E08D40708305402031C052BE6
:10060800062BF72AD501D60156084F3E86008701EA
:100618005308C43E840085300318013E8500000855
:1006280081005608013E4F3E860087015308C53EAB
:10063800840085300318013E8500000881005608B3
:10064800023ED60004305602031C2B2B2C2B082B01
:100658005308023ED3000430CB000030CC004F30AA
:1006680085315225823101302000CE004E08D50751
:1006780006305502031C412B422B072B0800220091
:100688008C018D01373021008C00ED308D00C03099
:1006980023008D000F308C00093024008D008C0160
:1006A80021009513C03022009D0001309E002700D4
:1006B8001610961115149515141094116E3020000B
:1006C800C6000630C7008631352683316D302000DC
:1006D800C6000630C70086312F2683318B150800E7
:1006E80003302000B6008130A0009130A100913085
:1006F800A2006E30A300A40165080319842B852B82
:100708008F2B6030A500C030A6006030A7003508E8
:10071800F739B500982BC030A5006030A600C0306E
:10072800A7003408F739B40027083504A7002608BD
:100738003404A6008431BE2483310800023020002E
:10074800B6004330A0008530A1008930A200713086
:10075800A300A40165080319B22BB32BBD2B60308D
:10076800A500C030A6006030A7003508FB39B500E9
:10077800C62BC030A5006030A600C030A7003408E2
:10078800FB39B40027083504A70026083404A6005E
:100798008431BE24833108002000B601B60AA001C6
:1007A8004130A100FF30A200A301A30AA4016508FB
:1007B8000319DF2BE02BEA2B6030A500C030A60020
:1007C8006030A7003508FD39B500F32BC030A5000F
:1007D8006030A600C030A7003408FD39B4002708EF
:1007E8003504A70026083404A6008431BE248331CA
:1007F80008002000C9004908CA00192C4A088600C8
:1008080087010108240091002000911D0C2C0D2C5B
:10081800082C91114A0886008701240011088100DC
:1008280001302000C8004808CA070130C60200305D
:10083800C73B460A031D242C470A031D242C252CDC
:10084800022C08008531E825843183314323843123
:100858008631162684318631622684318531D02549
:100868008431863166268431863106268431853185
:10087800092584318531DC25843186310E26843181
:100888008531FD2584318431D8248431843175241F
:1008980084310800F3007308F400682C740886009B
:1008A80087010108240091002000911D5C2C5D2C1B
:1008B800582C9111740886008701240011088100C2
:1008C8000130F2007208F4070130F0020030F13B09
:1008D800700A031D732C710A031D732C742C522C7F
:1008E8000800083023009F0090309D0024309E00AF
:1008F80033309B009C0100302000C6000030C70048
:1009080086314126843100302000C6000030C700FF
:1009180086313B26843100302000C6000030C700F5
:100928008631472684312000B30108002000B60133
:100938007E30A0008130A1008130A2007E30A3006B
:10094800A40165080319A92CAA2CB12C6030A500B4
:10095800C030A6006030A700BA2CC030A5006030B7
:10096800A600C030A7003408FE39B4008431BE2484
:10097800843108000830FA007A08F8007A081F3E27
:10098800860087010108F9000230F5000030F60002
:10099800783085318F2584310130FA027A08031DB9
:1009A800D62CD72CC02C0800200099010B309700BA
:1009B800DC30960011101708AB001608AA002100B9
:1009C80011146B302000C6000630C700863123267C
:1009D800843131302000980008000B1120003208C3
:1009E80095000130A8070030A93D003029020530E4
:1009F80003192802031C012D022D082D8531B72566
:100A080084312000A801A901080021001508C03977
:100A1800173895001630200095001630B2000B11DB
:100A28008B166C30C6000630C70086312926853102
:100A380008002000C700C60130304702031C252DDE
:100A4800262D2E2D3430470203182B2D2C2D2E2D1C
:100A5800C601C60A460808002000181D342D352D89
:100A68003C2D181071089700700896001814402D36
:100A7800710897007008960008002700161C452D7D
:100A8800462D492D8531802585312700961D4D2D10
:100A98004E2D512D85317125853108002000CD005E
:100AA80022008D1020004C08C7004B08C6004D08D6
:100AB8008331FD23853122008D1408002000911E0A
:100AC800662D672D622DB30123009D1C6C2D6D2DA5
:100AD8006F2D1D121D1619080800200061086204F8
:100AE8000319772D782D7D2D62088A0061080A0088
:100AF8008531270096110800200063086404031953
:100B0800862D872D8C2D64088A0063080A0085319C
:100B1800270016100800F70022008D107608F10053
:100B28007508F000770884314E24853122008D1431
:100B38000800200011102B08F1002A08F000853168
:100B4800302585318531AA258531080020005908CE
:100B58005A040319B02DB12DB62D5A088A00590828
:100B68000A00853108002000570858040319BD2DD4
:100B7800BE2DC32D58088A0057080A008531080081
:100B8800093400340A3400340B3407340C3401348B
:100B98000F3401340F340034210012138430220042
:100BA8009300A130940020001213210012170800AE
:100BB80021009212843022009100A030920020007F
:100BC80092122100921608004030240094009501EA
:100BD8000130920021000D12240095120800F00047
:100BE8002000111EF82DF92DF42D700823009A000D
:100BF80008000C302600930091019201CF302500A7
:100C08009E050800FF3020009B009A0191100430D7
:100C18009C000800C33021009E009B019C0101300C
:100C28009D00080068302100990098012200960173
:100C38000800640080010131890B1E2E0034200059
:100C48004708DA004608D900080020004708D800FD
:100C58004608D700080020004708E2004608E100DF
:100C6800080020004708E4004608E30008002000C8
:100C78004708DE004608DD00080020004708E000BD
:100C88004608DF00080020004708DC004608DB00B3
:100C980008002000121383317423863108002000D5
:100CA80092128331A223863108002000110E890C8C
:100CB8000139080000344034013400341630210072
:100CC80097000800893022009700080001340800C6
:060CD800080008000800FE
:020000040001F9
:08000000FF3FFF3FFF3FFF3F00
:04000E00E43FFF3E8E
:00000001FF
