:1000000080315628080001347E1480318B1D092868
:100010000A2811280B1C0D280E2811288C315A246F
:1000200080318B1E142815281C280B1D1828192810
:100030001C288C31E62480310B1F1F2820285428CF
:100040002100121F242825282D282000121F2928CE
:100050002A282D288B31492380312100921E3128F6
:1000600032283A282000921E362837283A288B3129
:10007000432380312100931E3E283F28472820003B
:10008000931E4328442847288C31A3248031210023
:10009000931C4B284C2854282000931C502851288E
:1000A00054288C31B92480317E10090080315828C1
:1000B0002100803103208031CB00463084000030A5
:1000C000850018308B3167238031B33084000030D5
:1000D000850012308B31672380317E102000833100
:1000E000B72B200023088039F9007908A8002335B0
:1000F000F9007908AE00A21F7E287F2880282E14E0
:100100002E0803198428852894282E0A031D89287F
:100110008A2892280030A3000030A2000030A100FD
:100120000030A000A2179C280030A3000030A200DD
:100130000030A1000030A00027088039F9007908BC
:10014000A8062735F9007908AD00A61FA828A92818
:10015000AA282D142D080319AE28AF28BE282D0A71
:10016000031DB328B428BC280030A7000030A60027
:100170000030A5000030A400A617C6280030A70054
:100180000030A6000030A5000030A4002D0803199F
:10019000CA28CB28D0282E08031DCF28D028D9283C
:1001A0000030A3000030A2000030A1000030A00009
:1001B000C72A2008F9007908F00026088D31922519
:1001C000803171082000B4007008B3003308F900D2
:1001D000FA01FB01FC017C08AC007B08AB007A084B
:1001E000AA007908A9003408F900FA01FB01FC0112
:1001F0007C08B2007B08B1007A08B0007908AF0033
:100200002108F9007908F00025088D319225803108
:1002100071082000B4007008B3003308F900FA0137
:10022000FB01FC017908A9077A08AA3D7B08AB3DD0
:100230007C08AC3D3408F900FA01FB01FC017908A7
:10024000AF077A08B03D7B08B13D7C08B23D22087B
:10025000F9007908F00024088D3192258031710869
:100260002000B4007008B3003308F900FA01FB0164
:10027000FC017908A9077A08AA3D7B08AB3D7C08F8
:10028000AC3D3408F900FA01FB01FC017908AF0725
:100290007A08B03D7B08B13D7C08B23D0830A935F5
:1002A000AA0DAB0DAC0D890B4F292108F900790877
:1002B000F00024088D319225803171082000B400AF
:1002C0007008B3003308A9073408AA3D0030AB3DDD
:1002D000AC3D2008F9007908F00025088D31922501
:1002E000803171082000B4007008B3003308A907FA
:1002F0003408AA3D0030AB3DAC3D0830A935AA0D0D
:10030000AB0DAC0D890B7E292008F9007908F000AF
:1003100024088D319225803171082000B4007008C6
:10032000B3003308A9073408AA3D0030AB3DAC3D0B
:100330002108F9007908F00026088D3192258031D6
:1003400071082000B4007008B3003308AF07340808
:10035000B03D0030B13DB23D2208F9007908F0000F
:1003600025088D319225803171082000B400700875
:10037000B3003308AF073408B03D0030B13DB23DA3
:100380002208F9007908F00026088D319225803185
:1003900071082000B4007008B3003308F900340875
:1003A000FA00FB01FC010830F935FA0DFB0DFC0DDC
:1003B000890BD4297908AF077A08B03D7B08B13D95
:1003C0007C08B23D2908F9002A08FA002B08FB0036
:1003D0002C08FC001830FC36FB0CFA0CF90C890BCD
:1003E000EB297908AF077A08B03D7B08B13D7C085E
:1003F000B23D0830A935AA0DAB0DAC0D890BFA2919
:100400002E082D07F900FA01FA0D7908823EB30093
:10041000FF307A3DB400232A0130AF35B00DB10D65
:10042000B20D890B0D2AAC1F162A172A182A2F1471
:100430000130A935AA0DAB0DAC0D890B192AFF307F
:10044000B307FF30B43DB11F262A272A0C2AAD017D
:10045000AC1F2B2A2C2A482AFF302905F900FF302F
:100460002A05FA00FF302B05FB007F302C05FC002D
:100470007C087B047A04790403193F2A402A432A22
:10048000AD01AD0A482A2F1C462A472A482A402A8D
:100490002D0803194C2A4D2A752A0130AF07003068
:1004A000B03D0030B13D0030B23D321C582A592ACF
:1004B000752A2F08F9003008FA003108FB003208CD
:1004C000FC000130FD00FC37FB0CFA0CF90CFD0BB5
:1004D000632A7C08B2007B08B1007A08B000790872
:1004E000AF000130B3070030B43D3408803AF90062
:1004F00080307902031D7E2AFF303302031C812ADB
:10050000822A8C2A7F302000B2008030B100003077
:10051000B0000030AF00BB2A20003408803AF90058
:1005200080307902031D962A013033020318992A7C
:100530009A2AA52A00302000B2000030B100003015
:10054000B0000030AF00A801BB2A20003308F9003A
:100550007908AE00FF30AF05FF30B0057F30B10540
:100560000030B2052E1CB52AB62AB72AB1172E368E
:10057000F9007908B2002808F9007908B2043208B5
:10058000A3003108A2003008A1002F08A000080035
:1005900020004908A7004808A6004708A50046080B
:1005A000A4004130A3002030A2000030A1000030A0
:1005B000A00080317120823120002308B800220879
:1005C000B7002108B6002008B50086318A2682319E
:1005D00020003608C3003508C20002308D311725CF
:1005E000823170082000C0007108C1000A30C13695
:1005F000C00C890BF72A4008F4004108F500E730E9
:10060000F6000330F7008D31312582317508200066
:10061000D1007408D00024308B31BA2382312100FC
:100620004408303E8B31BA2382312C308B31BA23CF
:10063000823121004308303E8B31BA2382312C3085
:100640008B31BA23823120005908303E8B31BA23D6
:1006500082312C308B31BA23823130308B31BA2346
:1006600082312C308B31BA23823120005808C000EF
:10067000C1014008FA004108FB00853100258231A4
:100680007B082000C5007A08C40045080F39303EB9
:100690008B31BA2382312000440E0F39303E8B312A
:1006A000BA238231200044080F39303E8B31BA23FF
:1006B00082312C308B31BA23823120004308FB0079
:1006C0004208FA008531002582317B082000C500F0
:1006D0007A08C40045080F39303E8B31BA23823185
:1006E0002000440E0F39303E8B31BA2382312E3038
:1006F0008B31BA238231200044080F39303E8B31D0
:10070000BA2382312C308B31BA2382312000510838
:10071000FB005008FA008531002582317B0820005B
:10072000C5007A08C400450E0F39303E8B31BA231C
:100730008231200045080F39303E8B31BA23823197
:100740002000440E0F39303E8B31BA2382312E30D7
:100750008B31BA238231200044080F39303E8B316F
:10076000BA2382310D308B31BA23823108008E31A9
:1007700032268331AF302100A0000E30A1008B3132
:100780008D238331FF302100A0000630A1008B3182
:100790009623833172302100A0000730A1008B31F5
:1007A000B1238331C8302100A0000230A1008B3179
:1007B000A823833122008D1400308F3155278331D7
:1007C0008F31A92783318B170B178E31AF268331D9
:1007D0008B313E238331003A0319EF2BF02BE82BAA
:1007E0008C313B2483312100B1003108C000432CFF
:1007F00024304006031DFD2BFE2B592CC201C20ADA
:10080000E82B40088C3190248331003A0319092CDD
:100810000A2C152C21004008D03EB1003108BE0042
:100820000230B1003108C200E82B2100C201E82BE0
:1008300040088C3190248331003A0319202C212C5C
:10084000152C21004008D03EB1003108BD00033016
:10085000B1003108C200E82B0D304006031D312CD9
:10086000322C152C3E08B1003108C4003D08B100FF
:100870003108C3008F310227833101302100B100DC
:100880003108BF07152C4208B100B2013208003A06
:1008900003194B2C152C3108003A0319F82B013A97
:1008A0000319012C033A0319182C013A03192C2CB3
:1008B000152CE82B80315628F8007808F4007408CD
:1008C000F90072087304031D662C672C682CFF2C3A
:1008D0007008F400790886008701740881007008A8
:1008E000F40072087907F5007508FF3E860087015D
:1008F0007408810000307302033003197202031878
:10090000822C832C842CFF2C7008F400790A86003A
:100910008701740881007008F4007908023E86009F
:100920008701740881007008F40072087907F500E7
:100930007508FE3E86008701740881007008F40087
:1009400072087907F5007508FD3E86008701740876
:100950008100003073020730031972020318B12CB2
:10096000B22CB32CFF2C7008F4007908033E8600EB
:100970008701740881007008F40072087907F50097
:100980007508FC3E86008701740881000030730200
:100990000930031972020318CE2CCF2CD02CFF2C57
:1009A0007909F4007A09F500F40A0319F50A03300D
:1009B0007405F60000307505F7007608F400740839
:1009C000F9077608F2027708F33BFC30F205FF30B6
:1009D000F305F92C7008F400790886008701740883
:1009E00081000130F2020030F33B0130F400740862
:1009F000F90772087304031DFE2CFF2CEA2C080073
:100A00000030F000F1000430F2000030F300253037
:100A100084315C2485317A082000A5007B08A6007B
:100A2000A701A801A40128080F39A0000530200261
:100A3000031C1B2D1C2D252D28080F39033EA0005B
:100A400028082006F0392006A800270E0F39A0003C
:100A500005302002031C2D2D2E2D382D270E0F3989
:100A6000033EA000A00E270820060F392006A7008D
:100A700027080F39A00005302002031C402D412D0E
:100A80004A2D27080F39033EA00027082006F03919
:100A90002006A700260E0F39A00005302002031CF7
:100AA000522D532D5D2D260E0F39033EA000A00EB2
:100AB000260820060F392006A6002508A0002608D3
:100AC000A1002708A2002808A3000130A035A10D2D
:100AD000A20DA30D890B662D2308A8002208A700EC
:100AE0002108A6002008A5000130A0002008A407C6
:100AF0000C302402031C7D2D7E2D132D2508A00013
:100B00002608A1002708A2002808A3000C30A3365D
:100B1000A20CA10CA00C890B872D2108FB0020083A
:100B2000FA0008000330FC007C082000D9002100F6
:100B3000BC1D9B2D9C2DA12D4B08031DA02DA12D6F
:100B4000AA2D4B08031DA52DA62DB72DBB1DA92D24
:100B5000AA2DB72D0030F000F1008C31CF24853163
:100B600000308B31392385318B3128238531813019
:100B7000FC007C082100B3009130FC007C08B4002C
:100B80009130FC007C08B5006E30FC007C08B6009B
:100B9000B7014B080319CD2DCE2DE02D6030FC00A0
:100BA0007C08B800C030FC007C08B9006030FC0054
:100BB0007C08BA003C08F739FC007C08BC00F12D29
:100BC000C030FC007C08B8006030FC007C08B90034
:100BD000C030FC007C08BA003B08F739FC007C08F8
:100BE000BB003A083C04FC007C08BA0039083B040E
:100BF000FC007C08B9008D315025853121003B086F
:100C0000031D032E042E0D2E3C08031D082E092E55
:100C10000D2E0330FC007C08C10008000230FC00EF
:100C20007C082000D90021003C1D172E182E1D2EF7
:100C30004B08031D1C2E1D2E262E4B08031D212E96
:100C4000222E332E3B1D252E262E332E0030F00073
:100C5000F1008C31CF24863100308B31392386313D
:100C60008B31282386314330FC007C082100B300FF
:100C70008530FC007C08B4008930FC007C08B5009D
:100C80007130FC007C08B600B7014B080319492EEF
:100C90004A2E5C2E6030FC007C08B800C030FC009E
:100CA0007C08B9006030FC007C08BA003C08FB39C5
:100CB000FC007C08BC006D2EC030FC007C08B80035
:100CC0006030FC007C08B900C030FC007C08BA0031
:100CD0003B08FB39FC007C08BB003A083C04FC00E4
:100CE0007C08BA0039083B04FC007C08B9008D314F
:100CF0005025863121003B08031D7F2E802E892E32
:100D00003C08031D842E852E892E0330FC007C08B0
:100D1000C100080003102000370D380DB900390854
:100D2000BF003F08031D952E962E9F2E0030B80061
:100D30000030B7000030B6000030B500FE2E350898
:100D4000B9003608BA003708BB003808BC001F30AD
:100D5000BC36BB0CBA0CB90C890BA82E3908BD00E7
:100D60003D08BE00B717FF30B505FF30B605FF30B0
:100D7000B7050030B8059630BF02BF1FC02EC12E88
:100D8000D92E3F08803A973E0318C72EC82EC92E89
:100D9000962E0130B836B70CB60CB50C890BCA2E9E
:100DA0000130B9003908BF07031DD72ED82EC92E30
:100DB000EE2E20303F02031CDE2EDF2EE92E962E73
:100DC0000130B535B60DB70DB80D890BE12E0130E8
:100DD000BF023F08031DED2EEE2EE02E3E08031944
:100DE000F22EF32EFE2EB509B609B709B809B50AD9
:100DF0000319B60A0319B70A0319B80A0800200034
:100E0000D901D90A2100BC1C062F072F0C2F4B0833
:100E1000031D0B2F0C2F152F4B08031D102F112F07
:100E2000222FBB1C142F152F222F0030F000F100B1
:100E30008C31CF24863100308B31392386318B3190
:100E4000282386312100B3014130FC007C08B40026
:100E5000FF30FC007C08B500B601B60AB7014B08AC
:100E60000319332F342F4A2F6030FC007C08B80060
:100E7000C030FC007C08B9006030FC007C08BA007F
:100E80003C08FD39FC007C08BC000230FC007C08FA
:100E9000C100642FC030FC007C08B8006030FC004A
:100EA0007C08B900C030FC007C08BA003B08FD3962
:100EB000FC007C08BB003B08031D5F2F602F642FE4
:100EC0000330FC007C08C1003A083C04FC007C08AC
:100ED000BA0039083B04FC007C08B9008D3150256C
:100EE00086310800A62F0030F000F1008C31CF24AD
:100EF00087312000D601BD2F043020005602031C8C
:100F0000822F832F892F0330F40074082100C10041
:100F1000792F0130F4007408D607BD2F2C30F00073
:100F20000130F1008C31CF2487318B312B23873175
:100F3000792F2C30F0000130F1008C31CF24873133
:100F40002000D6018B312B238731BD2F2100410892
:100F5000F400F5017508003A0319AF2FBD2F74088E
:100F6000003A0319732F013A03197C2F033A03192E
:100F70008E2F013A0319992FBD2F21003C08031928
:100F8000C22FC32FC82FCB01CB0A22008C17CB2F27
:100F9000CB0122008C13080022008C018D01373018
:100FA00021008C00ED308D00C03023008D000F300B
:100FB0008C00093024008D008C0121009513C03075
:100FC00022009D0001309E00270016109611151476
:100FD00095151410941125302100A0000B30A100AC
:100FE0008B318D23873126302100A0000B30A100EA
:100FF0008B31962387318B150800093400340A346D
:1010000000340B3407340C3401340F3401340F3402
:0A1010000034003440340134003491
:1016480008000800080008002800171508002800EE
:101658001711080028001715080089302200970084
:1016680008001630210097000800F00070082800D4
:10167800950008002000110E890C0139080020008F
:10168800921286310E268B31080020001213853104
:1016980092258B31080021002108C6002008C500CA
:1016A800080021002108CA002008C90008002100FC
:1016B8002108C8002008C70008002100A000200851
:1016C800280095000800640080010131890B682B0F
:1016D8000034683021009900980122009601080022
:1016E800C33021009E009B019C0101309D00080031
:1016F800FF3020009B009A01911004309C000800E4
:10170800210021082000E100210020082000E0003D
:101718000800210021082000E900210020082000FD
:10172800E8000800210021082000E7002100200827
:101738002000E60008000C30260093009101920179
:10174800CF3025009E050800210021082000E30075
:10175800210020082000E2000800210021082000C4
:10176800DF00210020082000DE000800F000200033
:10177800111EBF2BC02BBB2B700823009A0008003A
:1017880040302400940095010130920021000D1290
:101798002400951208002100921284302200910042
:1017A8006030920020009212210092160800210059
:1017B8001213843022009300A130940020001213E9
:1017C8002100121708002000620863040319ED2B9A
:1017D800EE2BF32B63088A0062080A008B3108009D
:1017E80020005E085F040319FA2BFB2B002C5F080E
:1017F8008A005E080A008B310800F70022008D106D
:101808007608F1007508F00077088D31DA258C31FB
:1018180022008D140800200099010B309700DC305D
:10182800960011101708E5001608E40031309800FA
:1018380008002000680869040319232C242C292C8B
:1018480069088A0068080A008C3127001610080009
:101858002000660867040319322C332C382C6708DB
:101868008A0066080A008C312700961108002000BB
:10187800911E3F2C402C3B2CD70123009D1C452C4E
:10188800462C482C1D121D16190808002100A70017
:1018980022008D1021002608A1002508A000270895
:1018A8008E3105268C3122008D1408002700161C65
:1018B8005E2C5F2C622C8C311D248C312700961DE8
:1018C800662C672C6A2C8C312C248C31080004304F
:1018D80026009A009801990124302100A0000B30BD
:1018E800A1008B3184238C312000931221009316A0
:1018F8000800F3302800960095012000931021007D
:1019080093140230A0000030A1008B31B1238C3138
:101918007F302800970008002100A100A001303086
:101928002102031C982C992CA12C34302102031875
:101938009E2C9F2CA12CA001A00A200808002000A2
:10194800931226001808F2007208F3001908F20032
:101958007208F4007408F1007308F00020006108B0
:101968008A0060080A008C310800200093100130BA
:10197800CA070030CB3D00304B02023003194A023F
:10198800031CC72CC82CCE2C8B31F4238C3120009F
:10199800CA01CB0108007108F3007008F200F336A1
:1019A800F20CF336F20C7208260091007008033925
:1019B800F2000430F235890BDE2C1308CF3972049B
:1019C800930008000B1120006A0895000130CC072D
:1019D8000030CD3D00304D02053003194C02031C88
:1019E800F62CF72CFD2C8B31E7238C312000CC0111
:1019F800CD01080021001508C039173895001630A8
:101A08002000950016302100A20022082000EA00DC
:101A18000B118B1627302100A0000B30A1008B3151
:101A2800A8238C310800F3007308F200F20DF20DC0
:101A380021001D087206833972069D001D140032AC
:101A48000032000021009D149D182B2D2C2D282DCF
:101A58001C08F1001B08F0000800F801F901741CCB
:101A6800362D372D3B2D7608F8077708F93D0130DC
:101A7800F635F70D890B3C2D0130F536F40C890B42
:101A8800412D74087504031D4A2D4B2D332D7908FB
:101A9800F5007808F40008000830F8007808FB0022
:101AA8007B08F8007808F9007B08B23E86008701B9
:101AB8000108F8007808FA000230F5000030F60056
:101AC80079308C3101248D310130FB027B08031DF4
:101AD8006E2D6F2D542D080008302100A80028080D
:101AE800AB002B08A8002808A9002B08B23E8600E6
:101AF80087010108A8002808AA000230A5000030C4
:101B0800A600A9308C314A248D3101302100AB0266
:101B18002B08031D902D912D752D0800F800F40158
:101B2800F5017008F200F3017208F6007308F70077
:101B3800781C9F2DA02DA42D7608F4077708F53D75
:101B48000130F635F70D890BA52D0310F80C780830
:101B5800031DAF2DB02D9C2D7508F1007408F00001
:101B68000800083023009F0090309D0024309E001C
:101B780033309B009C0100302100A0000030A10000
:101B88008B3155238D3100302100A0000030A10099
:101B98008B315B238D3100302100A0000030A10083
:101BA8008B314F238D312000D7010800F3007308D3
:101BB800F2007208F400F82D740886008701010805
:101BC800240091002000911DEA2DEB2DE62D9111A6
:101BD80024001108F2007408860087017208810049
:101BE8000130F2007208F4070130F0020030F13BD6
:101BF800700A031D032E710A031D032E042EE02D07
:101C080008002100A3002308A2002208A400252E12
:101C18002408860087010108240091002000911DF6
:101C2800162E172E122E9111240011082100A20041
:101C3800240886008701220881000130A2002208BA
:101C4800A4070130A0020030A13B200A031D302E5A
:101C5800210A031D302E312E0C2E08008B31C4238F
:101C68008E318731CC278E318B316D238E318B317C
:101C780035238E318B31DB238E318B3131238E31FD
:101C88008C317D248E318B317C238E318C31FE2436
:101C98008E318B31CF238E318B3174238E318C3141
:101CA8006B248E318B319F238E318C310F248E31F2
:101CB8008D31B5258E3108002000D9017E30FC0019
:101CC8007C082100B3008130FC007C08B40081301E
:101CD800FC007C08B5007E30FC007C08B600B7012B
:101CE8004B080319782E792E8B2E6030FC007C0867
:101CF800B800C030FC007C08B9006030FC007C08EB
:101D0800BA003C08FE39FC007C08BC00A02EC0309C
:101D1800FC007C08B8006030FC007C08B900C030CA
:101D2800FC007C08BA003B08FE39FC007C08BB00BC
:101D3800C1018B3128238E318D3150258E31210000
:101D48003A083C04FC007C08BA0039083B04FC0053
:101D58007C08B90008007E1CB32E8E31602E20004E
:101D6800D9017E302100AC002C08B3008130AC00D2
:101D78002C08B4008130AC002C08B5007E30AC00D3
:101D88002C08B600B7014B080319CB2ECC2EDE2E3B
:101D98006030AC002C08B800C030AC002C08B9008A
:101DA8006030AC002C08BA003C08FE39AC002C08A6
:101DB800BC00F32EC030AC002C08B8006030AC007A
:101DC8002C08B900C030AC002C08BA003B08FE391A
:101DD800AC002C08BB00C1018B312E238E318D3114
:101DE80070258E3121003A083C04AC002C08BA005A
:101DF80039083B04AC002C08B90008000130210068
:101E0800A100440A082FA135890B072F2108A20039
:101E18002208A3000130A100430A132FA135890B22
:101E2800122F2108A2002208A4004408031D1D2F18
:101E38001E2F242F3C082404A1002108BC00412F98
:101E4800430844020318292F2A2F312F3C08230462
:101E58002404A1002108BC00412F440843020318B0
:101E6800362F372F412F3C082304A1002108BC003E
:101E78003B082404A1002108BB0003304106031DD0
:101E8800462F472F502F0230A1002108C1000030F3
:101E98008B3161238F31542F0230A1002108C100FA
:101EA80008002100A3002400951A5B2F5C2FA82F9F
:101EB80021002308A000A101A035A10DA035A10D86
:101EC8000A30200784008830213D8500000824005E
:101ED800940021002308A000A101A035A10DA03580
:101EE800A10D0930200784008830213D85000008B5
:101EF80024009500960121002308A000A101A03527
:101F0800A10DA035A10D0B30200784008830213D9C
:101F1800850000082400920021002308A000A101E8
:101F2800A035A10DA035A10D0C3020078400883004
:101F3800213D85000008A200A20E0D082206EF39F7
:101F480022068D002400951608002100AD01AE017F
:101F58002E08B33E8600870181010130A8002808B9
:101F6800AE0708302E02031CBA2FBB2FAC2FAF01CF
:101F7800B0012D08FD3E840087300318013E85001E
:101F88000008A8003008A93E8600870128088100BB
:101F98002D08FE3E840087300318013E85000008A6
:101FA800A8003008013EA93E860087012808810064
:101FB8003008023EA8002808B00004303002031C94
:101FC800E62FE72FBD2F2D08023EA8002808AD00F8
:101FD8000430A5000030A600A9308C314A248F3186
:101FE80001302100A8002808AF0706302F02031C83
:081FF800FE2FFF2FBC2F080093
:020000040001F9
:08000000FF3FFF3FFF3FFF3F00
:04000E00E43FFF3E8E
:00000001FF
