:1000000080315628080001347E1480318B1D092868
:100010000A2811280B1C0D280E2811288E310326C2
:1000200080318B1E142815281C280B1D1828192810
:100030001C288E31772680310B1F1F28202854283A
:100040002100121F242825282D282000121F2928CE
:100050002A282D288D310F2580312100921E31282C
:1000600032283A282000921E362837283A288D3127
:10007000092580312100931E3E283F284728200073
:10008000931E4328442847288E314B268031210077
:10009000931C4B284C2854282000931C502851288E
:1000A00054288E31612680317E1009008031582815
:1000B000803103208031EA00463084000030850022
:1000C0001F308D3139258031C130840000308500EA
:1000D00008308D31392580317E1020008331B62BD8
:1000E000200023088039F9007908A8002335F90099
:1000F0007908AE00A21F7D287E287F282E142E08A6
:1001000003198328842893282E0A031D8828892808
:1001100091280030A3000030A2000030A100003080
:10012000A000A2179B280030A3000030A2000030DE
:10013000A1000030A00027088039F9007908A8063E
:100140002735F9007908AD00A61FA728A828A928F7
:100150002D142D080319AD28AE28BD282D0A031D26
:10016000B228B328BB280030A7000030A60000301A
:10017000A5000030A400A617C5280030A700003055
:10018000A6000030A5000030A4002D080319C928DE
:10019000CA28CF282E08031DCE28CF28D828003003
:1001A000A3000030A2000030A1000030A000C62A49
:1001B0002008F9007908F00026088F3101278031E6
:1001C00071082000B4007008B3003308F900FA0188
:1001D000FB01FC017C08AC007B08AB007A08AA009C
:1001E0007908A9003408F900FA01FB01FC017C0838
:1001F000B2007B08B1007A08B0007908AF0021088E
:10020000F9007908F00025088F3101278031710845
:100210002000B4007008B3003308F900FA01FB01B4
:10022000FC017908A9077A08AA3D7B08AB3D7C0848
:10023000AC3D3408F900FA01FB01FC017908AF0775
:100240007A08B03D7B08B13D7C08B23D2208F90038
:100250007908F00024088F310127803171082000CF
:10026000B4007008B3003308F900FA01FB01FC0187
:100270007908A9077A08AA3D7B08AB3D7C08AC3D0C
:100280003408F900FA01FB01FC017908AF077A088C
:10029000B03D7B08B13D7C08B23D0830A935AA0DC0
:1002A000AB0DAC0D890B4E292108F9007908F0003F
:1002B00024088F310127803171082000B4007008B4
:1002C000B3003308A9073408AA3D0030AB3DAC3D6C
:1002D0002008F9007908F00025088F3101278031C6
:1002E00071082000B4007008B3003308A90734086F
:1002F000AA3D0030AB3DAC3D0830A935AA0DAB0D91
:10030000AC0D890B7D292008F9007908F00024083C
:100310008F310127803171082000B4007008B300CC
:100320003308A9073408AA3D0030AB3DAC3D210895
:10033000F9007908F00026088F3101278031710813
:100340002000B4007008B3003308AF073408B03D94
:100350000030B13DB23D2208F9007908F0002508CF
:100360008F310127803171082000B4007008B3007C
:100370003308AF073408B03D0030B13DB23D22082C
:10038000F9007908F00026088F31012780317108C3
:100390002000B4007008B3003308F9003408FA00F4
:1003A000FB01FC010830F935FA0DFB0DFC0D890B42
:1003B000D3297908AF077A08B03D7B08B13D7C08A6
:1003C000B23D2908F9002A08FA002B08FB002C0886
:1003D000FC001830FC36FB0CFA0CF90C890BEA29EE
:1003E0007908AF077A08B03D7B08B13D7C08B23D83
:1003F0000830A935AA0DAB0DAC0D890BF9292E08D3
:100400002D07F900FA01FA0D7908823EB300FF309A
:100410007A3DB400222A0130AF35B00DB10DB20DD6
:10042000890B0C2AAC1F152A162A172A2F14013003
:10043000A935AA0DAB0DAC0D890B182AFF30B307F7
:10044000FF30B43DB11F252A262A0B2AAD01AC1F6F
:100450002A2A2B2A472AFF302905F900FF302A05CE
:10046000FA00FF302B05FB007F302C05FC007C08D8
:100470007B047A04790403193E2A3F2A422AAD01FB
:10048000AD0A472A2F1C452A462A472A3F2A2D080B
:1004900003194B2A4C2A742A0130AF070030B03DB3
:1004A0000030B13D0030B23D321C572A582A742A20
:1004B0002F08F9003008FA003108FB003208FC0070
:1004C0000130FD00FC37FB0CFA0CF90CFD0B622A25
:1004D0007C08B2007B08B1007A08B0007908AF0050
:1004E0000130B3070030B43D3408803AF900803061
:1004F0007902031D7D2AFF303302031C802A812AE2
:100500008B2A7F302000B2008030B1000030B00074
:100510000030AF00BA2A20003408803AF900803059
:100520007902031D952A013033020318982A992A6B
:10053000A42A00302000B2000030B1000030B0002A
:100540000030AF00A801BA2A20003308F90079086A
:10055000AE00FF30AF05FF30B0057F30B105003091
:10056000B2052E1CB42AB52AB62AB1172E36F900C8
:100570007908B2002808F9007908B2043208A3000B
:100580003108A2003008A1002F08A00008002000B8
:100590004908A7004808A6004708A5004608A40087
:1005A0004130A3002030A2000030A1000030A000A4
:1005B00080317020823120002308B8002208B70063
:1005C0002108B6002008B500853190258231200031
:1005D0003608C3003508C20002308E31A8268231A9
:1005E00070082000C0007108C1000A30C136C00C7C
:1005F000890BF62A4008F4004108F500E730F600C0
:100600000330F7008E31C226823175082000D100F8
:100610007408D00024308D317125823120005E08AD
:10062000303E8D31712582312C308D3171258231F2
:1006300020005C08303E8D31712582312C308D31A7
:100640007125823120005A08303E8D31712582316A
:100650002C308D317125823100308D317125823100
:100660002C308D317125823120005908C000C10124
:100670004008FA004108FB008431FE2482317B08E7
:100680002000C5007A08C40045080F39303E8D317E
:10069000712582312000440E0F39303E8D31712595
:1006A0008231200044080F39303E8D31712582316E
:1006B0002C308D317125823120004308FB00420827
:1006C000FA008431FE2482317B082000C5007A08BC
:1006D000C40045080F39303E8D317125823120002C
:1006E000440E0F39303E8D31712582312E308D31DF
:1006F00071258231200044080F39303E8D3171253B
:1007000082312C308D317125823120005108FB005F
:100710005008FA008431FE2482317B082000C50095
:100720007A08C400450E0F39303E8D317125823173
:10073000200045080F39303E8D317125823120006F
:10074000440E0F39303E8D31712582312E308D317E
:1007500071258231200044080F39303E8D317125DA
:1007600082310D308D317125823108008F31A12702
:100770008331AE302100A0000730A1008D315F250C
:1007800083315E302100A0000730A1008D315F254C
:100790008331C7302100A0000230A1008D312D250A
:1007A000833122008D14003087310A27833186314E
:1007B000052683318B170B178D3104258331003AC1
:1007C0000319E32BE42BDC2B8D31E425833121004D
:1007D000B10031082000E300402C243020006306E3
:1007E000031DF32BF42B572CE401E40ADC2B20002F
:1007F00063088731ED278331003A0319002C012C5F
:10080000102C20006308D03E2100B10031082000E8
:10081000DD0002302100B10031082000E400DC2BB3
:100820002000E401DC2B200063088731ED278331B1
:10083000003A03191C2C1D2C102C20006308D03EFC
:100840002100B10031082000DB0003302100B1009D
:1008500031082000E400DC2B0D3020006306031D6E
:10086000322C332C102C5D082100B10031082000FF
:10087000DE005B082100B10031082000DC00102CF4
:1008800064082100B100B2013208003A0319492C72
:10089000102C3108003A0319ED2B013A0319F72BFC
:1008A000033A0319132C013A03192C2C102CDC2BBE
:1008B00080315628F8007808F4007408F9007208AE
:1008C0007304031D642C652C662CFD2C7008F40049
:1008D000790886008701740881007008F4007208A6
:1008E0007907F5007508FF3E8600870174088100CE
:1008F000003073020330031972020318802C812C1C
:10090000822CFD2C7008F400790A86008701740897
:1009100081007008F4007908023E8600870174089F
:1009200081007008F40072087907F5007508FE3E32
:1009300086008701740881007008F4007208790746
:10094000F5007508FD3E86008701740881000030BF
:1009500073020730031972020318AF2CB02CB12CAC
:10096000FD2C7008F4007908033E860087017408A6
:1009700081007008F40072087907F5007508FC3EE4
:100980008600870174088100003073020930031962
:1009900072020318CC2CCD2CCE2CFD2C7909F4003E
:1009A0007A09F500F40A0319F50A03307405F60014
:1009B00000307505F7007608F4007408F90776082A
:1009C000F2027708F33BFC30F205FF30F305F72C19
:1009D0007008F400790886008701740881000130EE
:1009E000F2020030F33B0130F4007408F90772089A
:1009F0007304031DFC2CFD2CE82C08000030F000D3
:100A0000F1000430F2000030F300253084315A2424
:100A100084317A082000A5007B08A600A701A80160
:100A2000A40128080F39A00005302002031C192D4D
:100A30001A2D232D28080F39033EA0002808200670
:100A4000F0392006A800270E0F39A000053020023B
:100A5000031C2B2D2C2D362D270E0F39033EA00005
:100A6000A00E270820060F392006A70027080F39F7
:100A7000A00005302002031C3E2D3F2D482D2708E5
:100A80000F39033EA00027082006F0392006A700F2
:100A9000260E0F39A00005302002031C502D512DC9
:100AA0005B2D260E0F39033EA000A00E260820065F
:100AB0000F392006A6002508A0002608A100270857
:100AC000A2002808A3000130A035A10DA20DA30D9E
:100AD000890B642D2308A8002208A7002108A6007E
:100AE0002008A5000130A0002008A4070C30240233
:100AF000031C7B2D7C2D112D2508A0002608A100AC
:100B00002708A2002808A3000C30A336A20CA10CD1
:100B1000A00C890B852D2108FB002008FA00080095
:100B200003102000370D380DB9003908BF003F0809
:100B3000031D9B2D9C2DA52D0030B8000030B70063
:100B40000030B6000030B500042E3508B900360874
:100B5000BA003708BB003808BC001F30BC36BB0CDD
:100B6000BA0CB90C890BAE2D3908BD003D08BE008A
:100B7000B717FF30B505FF30B605FF30B7050030B9
:100B8000B8059630BF02BF1FC62DC72DDF2D3F0809
:100B9000803A973E0318CD2DCE2DCF2D9C2D0130C0
:100BA000B836B70CB60CB50C890BD02D0130B90096
:100BB0003908BF07031DDD2DDE2DCF2DF42D20308C
:100BC0003F02031CE42DE52DEF2D9C2D0130B535A2
:100BD000B60DB70DB80D890BE72D0130BF023F08E8
:100BE000031DF32DF42DE62D3E080319F82DF92DE4
:100BF000042EB509B609B709B809B50A0319B60A2A
:100C00000319B70A0319B80A08002100AD01AE01A3
:100C10002E08C13E8600870181010130A800280806
:100C2000AE0708302E02031C162E172E082EAF0119
:100C3000B0012D08003E840088300318013E850075
:100C40000008A8003008A93E860087012808810016
:100C50002D08013E840088300318013E85000008FD
:100C6000A8003008013EA93E8600870128088100BF
:100C70003008023EA8002808B00004303002031CEF
:100C8000422E432E192E2D08023EA8002808AD0042
:100C90000430A5000030A600A9308D31F32586313F
:100CA00001302100A8002808AF0706302F02031CDE
:100CB0005A2E5B2E182E08000330FC007C08200002
:100CC000DA008130FC007C082100C1009130FC007A
:100CD0007C08C2009130FC007C08C3006E30FC0030
:100CE0007C08C400C50120006A080319782E792EFB
:100CF0008D2E6030FC007C082100C600C030FC0056
:100D00007C08C7006030FC007C08C8002000580840
:100D1000F739FC007C08D800A02EC030FC007C080D
:100D20002100C6006030FC007C08C700C030FC0019
:100D30007C08C80020005708F739FC007C08D70061
:100D40002100480820005804FC007C082100C8004D
:100D5000470820005704FC007C082100C7008E31A2
:100D6000E126863108000230FC007C082000DA0011
:100D70004330FC007C082100C1008530FC007C0869
:100D8000C2008930FC007C08C3007130FC007C0884
:100D9000C400C50120006A080319CF2ED02EE42E0E
:100DA0006030FC007C082100C600C030FC007C08DC
:100DB000C7006030FC007C08C80020005808FB39E0
:100DC000FC007C08D800F72EC030FC007C08210015
:100DD000C6006030FC007C08C700C030FC007C0806
:100DE000C80020005708FB39FC007C08D700210010
:100DF000480820005804FC007C082100C80047086F
:100E000020005704FC007C082100C7008E31E12639
:100E1000863108002100A3002400951A102F112FFD
:100E20005D2F21002308A000A101A035A10DA03550
:100E3000A10D0D30200784008830213D8500000879
:100E40002400940021002308A000A101A035A10DD9
:100E5000A035A10D0C30200784008830213D85008D
:100E6000000824009500960121002308A000A1019C
:100E7000A035A10DA035A10D0E30200784008830CB
:100E8000213D850000082400920021002308A000D5
:100E9000A101A035A10DA035A10D0F3020078400C0
:100EA0008830213D85000008A200A20E0D08220610
:100EB000EF3922068D002400951608002000DA0183
:100EC000DA0A2100C1014130FC007C08C200FF3079
:100ED000FC007C08C300C401C40AC50120006A08E4
:100EE0000319732F742F882F6030FC007C082100B9
:100EF000C600C030FC007C08C7006030FC007C08E5
:100F0000C80020005808FD39FC007C08D8009B2F41
:100F1000C030FC007C082100C6006030FC007C086A
:100F2000C700C030FC007C08C80020005708FD390D
:100F3000FC007C08D7002100480820005804FC0071
:100F40007C082100C800470820005704FC007C08EA
:100F50002100C7008E31E126873108002000DA0128
:100F60007E30FC007C082100C1008130FC007C0840
:100F7000C2008130FC007C08C3007E30FC007C088D
:100F8000C400C50120006A080319C72FC82FD62F37
:100F90006030FC007C082100C600C030FC007C08EA
:100FA000C7006030FC007C08C800E92FC030FC009E
:100FB0007C082100C6006030FC007C08C700C030FF
:100FC000FC007C08C80020005708FE39FC007C08A3
:100FD000D7008E31E126873108002100A100A00151
:100FE00030302102031CF52FF62FFE2F3430210262
:100FF0000318FB2FFC2FFE2FA001A00A20080800D9
:10100000093400340A3400340B3407340C3401340E
:101010000F3401340F3400340034403401340034D0
:1019F000080008000800080089302200970008004D
:101A000016302100970008002000110E890C0139C2
:101A10000800200092128631B3268D310800200084
:101A2000121386315C268D31080021002108B60092
:101A30002008B500080021002108BC002008BB00D8
:101A4000080021002108C0002008BF000800210074
:101A50002108BE002008BD00080021002108B800B0
:101A60002008B700080021002108B4002008B300B6
:101A70000800640080010131890B3A2D0034683080
:101A8000210099009801220096010800C33021002E
:101A90009E009B019C0101309D000800FF3020004A
:101AA0009B009A01911004309C000800210021083D
:101AB0002000E800210020082000E70008002100A5
:101AC00021082000E600210020082000E500080091
:101AD0000C302600930091019201CF3025009E0525
:101AE0000800F0002000111E762D772D722D700851
:101AF00023009A0008004030240094009501013032
:101B0000920021000D12240095120800210092126B
:101B10008430220091006030920020009212210057
:101B200092160800210012138430220093006130C5
:101B3000940020001213210012170800210037081A
:101B400038040319A42DA52DAA2D38088A003708BA
:101B50000A008D3108002100330834040319B12D27
:101B6000B22DB72D34088A0033080A008D310800E1
:101B7000F70022008D107608F1007508F000770854
:101B80008F3149278D3122008D140800200067080D
:101B900068040319CC2DCD2DD22D68088A00670862
:101BA0000A008D3127001610080020006508660421
:101BB0000319DB2DDC2DE12D66088A0065080A007B
:101BC0008D312700961108002000911EE82DE92D87
:101BD000E42DD60123009D1CEE2DEF2DF12D1D12BD
:101BE0001D16190808002100A70022008D102100F1
:101BF0002608A1002508A00027088F3174278D3101
:101C000022008D1408002700161C072E082E0B2E0C
:101C10008D31C6258E312700961D0F2E102E132EC6
:101C20008D31D5258E310800043026009A009801A8
:101C30009901F8302100A0000C30A1008D3115254C
:101C40008E31200093122100931608002000990184
:101C50000B309700DC309600111017082100BA00F5
:101C6000200016082100B90031302000980008003B
:101C7000F330280096009501200093102100931462
:101C80000230A0000030A1008D3133258E317F302D
:101C90002800970008002000931226001808F20080
:101CA0007208F3001908F2007208F4007408F100D9
:101CB0007308F000210036088A0035080A008E31CA
:101CC0000800200093100130CA070030CB3D0030DF
:101CD0004B02023003194A02031C6F2E702E762E1F
:101CE0008D31AB258E312000CA01CB0108000B11CC
:101CF0002000690895000130CC070030CD3D003050
:101D00004D02053003194C02031C872E882E8E2E9F
:101D10008D319E258E312000CC01CD01080021009F
:101D20001508C03917389500163020009500163078
:101D30002100A20022082000E9000B118B16FB30C5
:101D40002100A0000C30A1008D312D258E3108001E
:101D5000F3007308F200F20DF20D21001D08720667
:101D6000833972069D001D140032003200002100EC
:101D70009D149D18BC2EBD2EB92E1C08F1001B0809
:101D8000F0000800F801F901741CC72EC82ECC2EF3
:101D90007608F8077708F93D0130F635F70D890B1D
:101DA000CD2E0130F536F40C890BD22E7408750453
:101DB000031DDB2EDC2EC42E7908F5007808F40014
:101DC00008000830F8007808FB007B08F800780865
:101DD000F9007B08C03E860087010108F8007808FA
:101DE000FA000230F5000030F60079308D31B82568
:101DF0008E310130FB027B08031DFF2E002FE52EE4
:101E00000800F800F401F5017008F200F30172080F
:101E1000F6007308F700781C0E2F0F2F132F76088B
:101E2000F4077708F53D0130F635F70D890B142FCF
:101E30000310F80C7808031D1E2F1F2F0B2F750899
:101E4000F1007408F0000800083023009F00903073
:101E50009D0024309E0033309B009C010030210007
:101E6000A0000030A1008D3121258F3100302100EC
:101E7000A0000030A1008D3127258F3100302100D6
:101E8000A0000030A1008D311B258F312000D6012C
:101E90000800F3007308F2007208F400672F74085A
:101EA000860087010108240091002000911D592F10
:101EB0005A2F552F911124001108F2007408860042
:101EC0008701720881000130F2007208F4070130C6
:101ED000F0020030F13B700A031D722F710A031DDE
:101EE000722F732F4F2F08002100A3002308A20098
:101EF0002208A400942F24088600870101082400EA
:101F000091002000911D852F862F812F9111240093
:101F100011082100A2002408860087012208810000
:101F20000130A2002208A4070130A0020030A13B2A
:101F3000200A031D9F2F210A031D9F2FA02F7B2FF7
:101F400008008D317B258F318F31CF278F318D3137
:101F50003F258F318D3100258F318D3192258F3185
:101F60008C31FC248F318E3138268F318D314E25C6
:101F70008F318E318F268F318D3186258F318D3186
:101F800046258F318E3114268F318D3168258F3162
:101F90008E3126268F318F3124278F310800220081
:101FA0008C018D01373021008C00ED308D00C03068
:101FB00023008D000F308C00093024008D008C012F
:101FC00021009513C03022009D0001309E002700A3
:101FD000161096111514951514109411F93021004E
:101FE000A0000C30A1008D3156258F31FA30210030
:101FF000A0000C30A1008D315F258F318B150800BA
:020000040001F9
:08000000FF3FFF3FFF3FFF3F00
:04000E00E43FFF3E8E
:00000001FF
