:1000000080315628080001347E1480318B1D092868
:100010000A2811280B1C0D280E2811288E31E626DF
:1000200080318B1E142815281C280B1D1828192810
:100030001C288F316C2780310B1F1F282028542843
:100040002100121F242825282D282000121F2928CE
:100050002A282D288D31E72580312100921E312854
:1000600032283A282000921E362837283A288D3127
:10007000E12580312100931E3E283F28472820009B
:10008000931E4328442847288E31F72680312100CB
:10009000931C4B284C2854282000931C502851288E
:1000A00054288F31562780317E100900803158281E
:1000B000803103208031E900453084000030850024
:1000C00022308E3117268031C13084000030850007
:1000D00008308E31172680317E1020008431BC2CF0
:1000E000200023088039A8002335AE00A21F7928FC
:1000F0007A287B282E142E0803197F2880288F2821
:100100002E0A031D842885288D280030A300003086
:10011000A2000030A1000030A000A21797280030F4
:10012000A3000030A2000030A1000030A00027088A
:100130008039F9007908A8062735AD00A61FA12847
:10014000A228A3282D142D080319A728A828B7280A
:100150002D0A031DAC28AD28B5280030A7000030BB
:10016000A6000030A5000030A400A617BF2800306C
:10017000A7000030A6000030A5000030A4002D0824
:100180000319C328C428C9282E08031DC828C92854
:10019000D2280030A3000030A2000030A1000030BF
:1001A000A000AA2A2008F00026088F31B827803145
:1001B00071082000B4007008B3003308F900FA0198
:1001C000FB01FC017C08AC007B08AB007A08AA00AC
:1001D0007908A9003408F900FA01FB01FC017C0848
:1001E000B2007B08B1007A08B0007908AF0021089E
:1001F000F00025088F31B827803171082000B40045
:100200007008B3003308F900FA01FB01FC0179081A
:10021000A9077A08AA3D7B08AB3D7C08AC3D3408B1
:10022000F900FA01FB01FC017908AF077A08B03D3B
:100230007B08B13D7C08B23D2208F00024088F31D4
:10024000B827803171082000B4007008B30033086B
:10025000F900FA01FB01FC017908A9077A08AA3D17
:100260007B08AB3D7C08AC3D3408F900FA01FB018A
:10027000FC017908AF077A08B03D7B08B13D7C08E6
:10028000B23D0830A935AA0DAB0DAC0D890B422942
:100290002108F00024088F31B82780317108200030
:1002A000B4007008B3003308A9073408AA3D003031
:1002B000AB3DAC3D2008F00025088F31B8278031D8
:1002C00071082000B4007008B3003308A90734088F
:1002D000AA3D0030AB3DAC3D0830A935AA0DAB0DB1
:1002E000AC0D890B6D292008F00024088F31B82748
:1002F000803171082000B4007008B3003308A907EA
:100300003408AA3D0030AB3DAC3D2108F000260882
:100310008F31B827803171082000B4007008B30015
:100320003308AF073408B03D0030B13DB23D22087C
:10033000F00025088F31B827803171082000B40003
:100340007008B3003308AF073408B03D0030B13D4A
:10035000B23D2208F00026088F31B827803171089D
:100360002000B4007008B3003308F9003408FA0024
:10037000FB01FC010830F935FA0DFB0DFC0D890B72
:10038000BB297908AF077A08B03D7B08B13D7C08EE
:10039000B23D2908F9002A08FA002B08FB002C08B6
:1003A000FC001830FC36FB0CFA0CF90C890BD22936
:1003B0007908AF077A08B03D7B08B13D7C08B23DB3
:1003C0000830A935AA0DAB0DAC0D890BE1292E081B
:1003D0002D07F900FA01FA0D7908823EB300FF30CB
:1003E0007A3DB4000A2A0130AF35B00DB10DB20D1F
:1003F000890BF429AC1FFD29FE29FF292F14013098
:10040000A935AA0DAB0DAC0D890B002AFF30B3073F
:10041000FF30B43DB11F0D2A0E2AF329AD01AC1FE8
:10042000122A132A2F2AFF302905F900FF302A0546
:10043000FA00FF302B05FB007F302C05FC007C0808
:100440007B047A0479040319262A272A2A2AAD0173
:10045000AD0A2F2A2F1C2D2A2E2A2F2A272A2D08B3
:100460000319332A342A5C2A0130AF070030B03D2B
:100470000030B13D0030B23D321C3F2A402A5C2A98
:100480002F08F9003008FA003108FB003208FC00A0
:100490000130FD00FC37FB0CFA0CF90CFD0B4A2A6D
:1004A0007C08B2007B08B1007A08B0007908AF0080
:1004B0000130B3070030B43D3408803AF900803091
:1004C0007902031D652AFF303302031C682A692A5A
:1004D000732A7F302000B2008030B1000030B000BD
:1004E0000030AF009E2A20003408803AF9008030A6
:1004F0007902031D7D2A013033020318802A812AE4
:100500008C2A00302000B2000030B1000030B00072
:100510000030AF00A8019E2A20003308AE00FF3053
:10052000AF05FF30B0057F30B1050030B2052E1C9D
:100530009A2A9B2A9C2AB1172E36B2002808F90065
:100540007908B2043208A3003108A2003008A100E3
:100550002F08A000080020004808A7004708A600B0
:100560004608A5004508A4004130A3002030A200A1
:100570000030A1000030A0008031702082312000C6
:100580002308B8002208B7002108B6002008B500EB
:1005900085314525823120003608C2003508C1006A
:1005A00002308F319E27823170082000BF00710811
:1005B000C0000A30C036BF0C890BDA2A3F08F400AD
:1005C0004008F500E730F6000330F7008731E027F8
:1005D000823175082000D2007408D10024308E3199
:1005E0004626823120006008303E8E314626823118
:1005F0002C308E314626823120005E08303E8E310E
:10060000462682312C308E314626823120005C080D
:10061000303E8E31462682312C308E314626823154
:1006200000308E31462682312C308E314626823182
:1006300020005B08BF00C0013F08FA004008FB0033
:1006400083319A2382317B082000C4007A08C300DA
:1006500044080F39303E8E31462682312000430E49
:100660000F39303E8E3146268231200043080F3943
:10067000303E8E31462682312C308E3146268231F4
:1006800020004208FB004108FA0083319A2382319E
:100690007B082000C4007A08C30044080F39303EAC
:1006A0008E31462682312000430E0F39303E8E3186
:1006B000462682312E308E31462682312000430874
:1006C0000F39303E8E31462682312C308E3146260F
:1006D000823120005208FB005108FA0083319A232E
:1006E00082317B082000C4007A08C300440E0F3911
:1006F000303E8E3146268231200044080F39303E8C
:100700008E31462682312000430E0F39303E8E3125
:10071000462682312E308E31462682312000430813
:100720000F39303E8E31462682310D308E314626CD
:10073000823108000030F000F1000430F200003097
:10074000F300253084312C2483317A082000A50061
:100750007B08A600A701A801A40128080F39A00062
:1007600005302002031CB52BB62BBF2B28080F39F0
:10077000033EA00028082006F0392006A800270E16
:100780000F39A00005302002031CC72BC82BD22B29
:10079000270E0F39033EA000A00E270820060F39B0
:1007A0002006A70027080F39A00005302002031CEF
:1007B000DA2BDB2BE42B27080F39033EA000270898
:1007C0002006F0392006A700260E0F39A0000530BC
:1007D0002002031CEC2BED2BF72B260E0F39033ECA
:1007E000A000A00E260820060F392006A600250826
:1007F000A0002608A1002708A2002808A3000130B5
:10080000A035A10DA20DA30D890B002C2308A80073
:100810002208A7002108A6002008A5000130A0009A
:100820002008A4070C302402031C172C182CAD2B15
:100830002508A0002608A1002708A2002808A30078
:100840000C30A336A20CA10CA00C890B212C210882
:10085000FB002008FA000800F8007808F900720888
:100860007304031D342C352C362CBB2C79088600E0
:1008700087017008810072087907F4007408FF3E50
:10088000860087017008810000307302033003196D
:10089000720203184C2C4D2C4E2CBB2C790A86006E
:1008A0008701700881007908023E86008701700880
:1008B000810072087907F4007408FE3E8600870103
:1008C0007008810072087907F4007408FD3E860004
:1008D000870170088100003073020730031972022B
:1008E0000318732C742C752CBB2C7908033E8600DE
:1008F00087017008810072087907F4007408FC3ED3
:1009000086008701700881000030730209300319E6
:10091000720203188C2C8D2C8E2CBB2C7909F400C0
:100920007A09F500F40A0319F50A03307405F60094
:1009300000307505F7007608F4007408F9077608AA
:10094000F2027708F33BFC30F205FF30F305B52CDB
:10095000790886008701700881000130F2020030BA
:10096000F33B0130F4007408F90772087304031DA7
:10097000BA2CBB2CA82C0800873138278431903042
:100980002100A0000730A1008E3105268431CF3030
:100990002100A0000630A1008E3105268431AB3045
:1009A0002100A0000230A1008E310B2684312200EC
:1009B0008D1400308531B625843186310E26843180
:1009C0008B170B178D31DC258431003A0319E92C84
:1009D000EA2CE22C8E31C72684312000E5002B2D35
:1009E000243020006506031DF62CF72C422DE6016D
:1009F000E60AE22C200065088F312E278431003A68
:100A00000319032D042D0B2D20006508D03EDF00B7
:100A10000230E600E22C2000E601E22C200065080E
:100A20008F312E278431003A0319172D182D0B2DE5
:100A300020006508D03EDD000330E600E22C0D30DA
:100A400020006506031D252D262D0B2D5F08E000D7
:100A50005D08DE000B2D66082100B100B2013208EE
:100A6000003A0319342D0B2D3108003A0319F02CEC
:100A7000013A0319FA2C033A03190E2D013A03190E
:100A80001F2D0B2DE22C8031562803102000370D2E
:100A9000380DBE003E08031D4E2D4F2D582D003041
:100AA000B8000030B7000030B6000030B500B52DFA
:100AB0003508B9003608BA003708BB003808BC0052
:100AC0001F30BC36BB0CBA0CB90C890B612D390830
:100AD000BD00B717FF30B505FF30B605FF30B705CD
:100AE0000030B8059630BE02BE1F772D782D902DB0
:100AF0003E08803A973E03187E2D7F2D802D4F2D86
:100B00000130B836B70CB60CB50C890B812D01300D
:100B1000B9003908BE07031D8E2D8F2D802DA52D00
:100B200020303E02031C952D962DA02D4F2D013017
:100B3000B535B60DB70DB80D890B982D0130BE0235
:100B40003E08031DA42DA52D972D3D080319A92DA1
:100B5000AA2DB52DB509B609B709B809B50A031903
:100B6000B60A0319B70A0319B80A08002100A3003E
:100B70002400951ABC2DBD2D0D2E21002308A000A8
:100B8000A101A035A10DA035A10D0C3020078400D6
:100B90000830213D803885000008240094002100A1
:100BA0002308A000A101A035A10DA035A10D0B3097
:100BB000200784000830213D80388500000824008B
:100BC0009500960121002308A000A101A035A10DE8
:100BD000A035A10D0D30200784000830213D80385C
:100BE000850000082400920021002308A000A10134
:100BF000A035A10DA035A10D0E30200784000830CE
:100C0000213D803885000008A200A20E0D082206B2
:100C1000EF3922068D002400951608002100AD0151
:100C2000AE012E08C13E8600870181010130A80077
:100C30002808AE0708302E02031C1F2E202E112E6E
:100C4000AF01B0013008A93E860087012D08FF3EA4
:100C5000840087300318013E8500000881003008B9
:100C6000013EA93E860087012D08003E84008830A1
:100C70000318013E8500000881003008023EB000E4
:100C800004303002031C452E462E222E2D08023E33
:100C9000AD000430A5000030A600A9308E31D62664
:100CA000863101302100A8002808AF0706302F0246
:100CB000031C5B2E5C2E212E080003302000DC007C
:100CC00081302100C1009130C2009130C3006E30EC
:100CD000C400C5012000690803196F2E702E7C2EF8
:100CE00060302100C600C030C7006030C80020005E
:100CF0005A08F739DA00872EC0302100C60060306C
:100D0000C700C030C80020005908F739D9002100B9
:100D1000480820005A042100C80047082000590450
:100D20002100C7008F31842786310800023020005F
:100D3000DC0043302100C1008530C2008930C3008F
:100D40007130C400C501200069080319A82EA92E1E
:100D5000B52E60302100C600C030C7006030C8002A
:100D600020005A08FB39DA00C02EC0302100C6002E
:100D70006030C700C030C80020005908FB39D900D6
:100D80002100480820005A042100C800470820001C
:100D900059042100C7008F318427863108002000C4
:100DA000DC01DC0A2100C1014130C200FF30C30078
:100DB000C401C40AC501200069080319E02EE12E10
:100DC000ED2E60302100C600C030C7006030C80082
:100DD00020005A08FD39DA00F82EC0302100C60084
:100DE0006030C700C030C80020005908FD39D90064
:100DF0002100480820005A042100C80047082000AC
:100E000059042100C7008F31842786310800220051
:100E10008C018D01373021008C00ED308D00C03009
:100E200023008D000F308C00093024008D008C01D0
:100E300021009513C03022009D0001309E00270044
:100E4000161096111514951514109411D130210017
:100E5000A0000D30A1008E3134268731D230210020
:100E6000A0000D30A1008E31052687318B150800BA
:100E70008E31502687318731072787318E311D26E5
:100E800087318D31D82587318D31D42587318E3109
:100E9000672687318F311B2787318E312C2687318A
:100EA0008F31412787318E315B2687318F3109277A
:100EB00087318E31242687318E313D2687318E3120
:100EC0009B2687318F31DB27873108002100A30063
:100ED0002308A400832F240886008701010824002A
:100EE00091002000911D752F762F712F91112100F7
:100EF00024088600870124001108810001302100A8
:100F0000A2002208A4070130A0020030A13B200A61
:100F1000031D8E2F210A031D8E2F8F2F6B2F08008C
:100F20002000DC017E302100C1008130C200813010
:100F3000C3007E30C400C501200069080319A12F39
:100F4000A22FAA2F60302100C600C030C700603039
:100F5000C800B52FC0302100C6006030C700C030C7
:100F6000C80020005908FE39D9008F318427873105
:100F70000800F3007308F400D32F7408860087017B
:100F80000108240091002000911DC72FC82FC32FF6
:100F90009111740886008701240011088100013036
:100FA000F2007208F4070130F0020030F13B700AE1
:100FB000031DDE2F710A031DDE2FDF2FBD2F08005A
:100FC000F801F901741CE52FE62FEA2F7608F807DF
:100FD0007708F93D0130F635F70D890BEB2F01301D
:100FE000F536F40C890BF02F74087504031DF92FE6
:100FF000FA2FE22F7908F5007808F4000800093488
:1010000000340A3400340B3407340C3401340F3408
:0E10100001340F340034003440340134003415
:101BA000080008000800080089302200970008009B
:101BB00016302100970008002000110E890C013911
:101BC000080020009212863196268D3108002000F0
:101BD000121386315D268D31080021002108B600E0
:101BE0002008B500080021002108BA002008B9002B
:101BF000080021002108BE002008BD0008002100C7
:101C00002108BC002008BB00080021002108C000FA
:101C10002008BF00080021002108B8002008B700F4
:101C2000080021002108B4002008B3000800640067
:101C300080010131890B182E003468302100990091
:101C40009801220096010800C33021009E009B01EC
:101C50009C0101309D000800FF3020009B009A018C
:101C6000911004309C000800210021082000E800A9
:101C7000210020082000E70008000C302600930017
:101C800091019201CF3025009E050800F000200050
:101C9000111E4B2E4C2E472E700823009A00080070
:101CA00040302400940095010130920021000D1273
:101CB0002400951208002100921284302200910025
:101CC000A0309200200092122100921608002100FC
:101CD0001213843022009300A130940020001213CC
:101CE0002100121708002100370838040319792E43
:101CF0007A2E7F2E38088A0037080A008E310800B5
:101D00002100330834040319862E872E8C2E3408C4
:101D10008A0033080A008E310800F70022008D1077
:101D20007608F1007508F00077088731B9278E3101
:101D300022008D140800200099010B309700DC3040
:101D4000960011101708CE001608CD00313098000B
:101D500008002000670868040319AF2EB02EB52EC6
:101D600068088A0067080A008E31270016100800EC
:101D700021003F0840040319BE2EBF2EC42E400888
:101D80008A003F080A008E312700961108002000C3
:101D9000911ECB2ECC2EC72ED80123009D1CD12EF8
:101DA000D22ED42E1D121D16190808002100A700DE
:101DB00022008D1021002608A1002508A000270878
:101DC000873166278E3122008D1408002700161CEB
:101DD000EA2EEB2EEE2E8E31A9268E312700961D8F
:101DE000F22EF32EF62E8E31B8268E31080020000A
:101DF000931226001808F2001908F3007308F10086
:101E00007208F000210036088A0035080A008F3178
:101E10000800043026009A0098019901D030210072
:101E2000A0000D30A1008D31ED258F3120009312DF
:101E3000210093160800F330280096009501200039
:101E40009310210093140230A0000030A1008E31C5
:101E500011268F317F302800970008002100A10053
:101E6000A00130302102031C362F372F3F2F343092
:101E7000210203183C2F3D2F3F2FA001A00A20086C
:101E8000080021001508C0391738950016302000C9
:101E900095001630D7000B118B16D3302100A0000F
:101EA0000D30A1008E310B268F31080020009310D9
:101EB0000130C9070030CA3D00304A020230031920
:101EC0004902031C642F652F6B2F8E3180268F31C2
:101ED0002000C901CA0108000B1120005708950015
:101EE0000130CB070030CC3D00304C0205300319E7
:101EF0004B02031C7C2F7D2F832F8E3173268F3155
:101F00002000CB01CC0108000830FA007A08F80064
:101F10007A08C03E860087010108F9000230F5000A
:101F20000030F60078308E318D268F310130FA0284
:101F30007A08031D9C2F9D2F862F0800F30073083D
:101F4000F200F20DF20D21001D08720683397206AF
:101F50009D001D1400320032000021009D149D18C8
:101F6000B22FB32FAF2F1C08F1001B08F0000800A0
:101F7000F800F401F5017008F200F3017208F600B0
:101F80007308F700781CC52FC62FCA2F7608F407F0
:101F90007708F53D0130F635F70D890BCB2F03108F
:101FA000F80C7808031DD52FD62FC22F7508F10025
:101FB0007408F0000800083023009F0090309D0056
:101FC00024309E0033309B009C0100302100A00093
:101FD0000030A1008D31F9258F3100302100A000A3
:101FE0000030A1008D31FF258F3100302100A0008D
:101FF0000030A1008D31F3258F312000D801080079
:020000040001F9
:08000000FF3FFF3FFF3FFF3F00
:04000E00E43FFF3E8E
:00000001FF
