:1000000080315628080008007E1480318B1D092895
:100010000A2811280B1C0D280E2811288931E521EA
:1000200080318B1E142815281C280B1D1828192810
:100030001C288A31C92280310B1F1F2820285428F0
:100040002100121F242825282D282000121F2928CE
:100050002A282D288831C82080312100921E31287D
:1000600032283A282000921E362837283A2888312C
:10007000C22080312100931E3E283F2847282000BF
:10008000931E4328442847288931F62180312100D6
:10009000931C4B284C2854282000931C502851288E
:1000A00054288A317E2280317E1009008031582800
:1000B00021008831AD208031E2008831AE208031CE
:1000C000E3008831AF208031E4002000ED01EE0133
:1000D000EF01A0308400003085002B308831DA2019
:1000E00080317E1020008631412E20004308803967
:1000F000CD004335D300C21F7E287F2880285314AB
:1001000053080319842885289428530A031D892835
:100110008A2892280030C3000030C2000030C1009D
:100120000030C000C2179C280030C3000030C2005D
:100130000030C1000030C00047088039C8004808BE
:10014000CD064735D200C61FA628A728A8285214D6
:1001500052080319AC28AD28BC28520A031DB12847
:10016000B228BA280030C7000030C6000030C500F1
:100170000030C400C617C4280030C7000030C600D5
:100180000030C5000030C40052080319C828C9282F
:10019000CE285308031DCD28CE28D7280030C30011
:1001A0000030C2000030C1000030C000AF2A40085B
:1001B000F00046088B313923803171082000D900C6
:1001C0007008D8005808C800C901CA01CB014B0803
:1001D000D1004A08D0004908CF004808CE0059088D
:1001E000C800C901CA01CB014B08D7004A08D60094
:1001F0004908D5004808D4004108F00045088B3173
:100200003923803171082000D9007008D8005808BF
:10021000C800C901CA01CB014808CE074908CF3D33
:100220004A08D03D4B08D13D5908C800C901CA0150
:10023000CB014808D4074908D53D4A08D63D4B08AC
:10024000D73D4208F00044088B31392380317108D2
:100250002000D9007008D8005808C800C901CA0198
:10026000CB014808CE074908CF3D4A08D03D4B088E
:10027000D13D5908C800C901CA01CB014808D407BB
:100280004908D53D4A08D63D4B08D73D0830CE3504
:10029000CF0DD00DD10D890B47294108F00044083E
:1002A0008B313923803171082000D9007008D800C3
:1002B0005808CE075908CF3D0030D03DD13D400809
:1002C000F00045088B313923803171082000D900B6
:1002D0007008D8005808CE075908CF3D0030D03DEF
:1002E000D13D0830CE35CF0DD00DD10D890B7229FF
:1002F0004008F00044088B31392380317108200018
:10030000D9007008D8005808CE075908CF3D0030F2
:10031000D03DD13D4108F00046088B313923803172
:1003200071082000D9007008D8005808D40759086F
:10033000D53D0030D63DD73D4208F00045088B3111
:100340003923803171082000D9007008D80058087E
:10035000D4075908D53D0030D63DD73D4208F000BE
:1003600046088B313923803171082000D90070088C
:10037000D8005808C8005908C900CA01CB01083084
:10038000C835C90DCA0DCB0D890BC0294808D40743
:100390004908D53D4A08D63D4B08D73D4E08C80010
:1003A0004F08C9005008CA005108CB001830CB369E
:1003B000CA0CC90CC80C890BD7294808D4074908AE
:1003C000D53D4A08D63D4B08D73D0830CE35CF0D38
:1003D000D00DD10D890BE62953085207C800C90179
:1003E000C90D4808823ED800FF30493DD9000F2A88
:1003F0000130D435D50DD60DD70D890BF929D11F74
:10040000022A032A042A54140130CE35CF0DD00D10
:10041000D10D890B052AFF30D807FF30D93DD61FF3
:10042000122A132AF829D201D11F172A182A342A8E
:10043000FF304E05C800FF304F05C900FF305005A2
:10044000CA007F305105CB004B084A0449044804D8
:1004500003192B2A2C2A2F2AD201D20A342A541CFF
:10046000322A332A342A2C2A52080319382A392AE4
:10047000612A0130D4070030D53D0030D63D003030
:10048000D73D571C442A452A612A5408C8005508FC
:10049000C9005608CA005708CB000130CC00CB3742
:1004A000CA0CC90CC80CCC0B4F2A4B08D7004A0801
:1004B000D6004908D5004808D4000130D8070030DC
:1004C000D93D5908803AC80080304802031D6A2A85
:1004D000FF305802031C6D2A6E2A782A7F302000D4
:1004E000D7008030D6000030D5000030D400A32AD9
:1004F00020005908803AC80080304802031D822A33
:10050000013058020318852A862A912A00302000DB
:10051000D7000030D6000030D5000030D400CD0127
:10052000A32A20005808D300FF30D405FF30D5059A
:100530007F30D6050030D705531C9F2AA02AA12A58
:10054000D6175336D7004D08C8004808D7045708B7
:10055000C3005608C2005508C1005408C000080076
:100560002100D10162080319B62AB72ABA2AD2019A
:10057000D20ABC2A0830D200CF0162080319C12A6E
:10058000C22AC82A5235D2003E085205D000DA2AC3
:10059000520ACB000130CC000030CD00D22A4D0DE4
:1005A000CD0CCC0CCB0BCF2A21004C08D2003D083F
:1005B0005205D00050080319DE2ADF2AE22A50082B
:1005C000D100F82A0130CB004B08CF0704304F028E
:1005D000031CEB2AEC2ABD2AF82AD101D10A0B2BE5
:1005E0000230D1000B2B0330D1000B2BD1010B2B90
:1005F0005108CB00CC014C08003A0319002BF62A15
:100600004B08023A0319ED2A063A0319F02A0C3A6C
:100610000319F32AF62A4A08CB00CC01CD01CE01FA
:100620004E08F7004D08F6004C08F5004B08F400A2
:1006300001308631ED26823177082000C700760828
:10064000C6007508C5007408C4003F30C300C03040
:10065000C2000030C1000030C000803175208231FE
:1006600020004308DD004208DC004108DB004008B0
:10067000DA008D31F225823120005A082100C000B5
:1006800042302000C3000530C2003330C100333097
:10069000C00021003A084002F000F101031CF10300
:1006A0008A31AF2282317008F4007108F500890D9B
:1006B000893B8909F600F70001308631ED26823149
:1006C00077082000C7007608C6007508C5007408C2
:1006D000C400803175208231200043082100AB0026
:1006E000200042082100AA00200041082100A900A2
:1006F000200040082100A8004008BA0002308A31DA
:100700009522823170082100CB007108CC00CD0108
:10071000CE014E08F7004D08F6004C08F5004B08D6
:10072000F40000308631ED26823177082000AD00DC
:100730007608AC007508AB007408AA004430A90024
:100740008030A8000030A7000030A6008431972434
:10075000823120002908C7002808C6002708C500E4
:100760002608C4004430C3007930C200C030C10044
:100770000030C00080317520823120004308DD0048
:100780004208DC004108DB004008DA008D31F22528
:10079000823120005B082100B50020005A082100AA
:1007A000B400243089313621823121004108303EA5
:1007B0008931362182312C30893136218231210034
:1007C0005108303E8931362182312C308931362131
:1007D000823121003F08303E8931362182312C3070
:1007E00089313621823121004008CB00CC014B08F1
:1007F0002000E20021004C082000E3008F316E272A
:100800008231200063082100D4002000620821000A
:10081000D30054080F39303E89313621823121000E
:10082000530E0F39303E8931362182312100530871
:100830000F39303E8931362182312C3089313621D1
:10084000823121002B082000DD0021002A08200031
:10085000DC00210029082000DB00210028082000FE
:10086000DA008D31F225823120005B08E3005A085E
:10087000E2008F316E278231200063082100D4000E
:10088000200062082100D30054080F39303E89311E
:10089000362182312100530E0F39303E8931362105
:1008A00082312E30893136218231210053080F39AF
:1008B000303E8931362182312C30893136218231E6
:1008C000210035082000E300210034082000E20068
:1008D0008F316E278231200063082100D400200070
:1008E00062082100D300540E0F39303E8931362181
:1008F0008231210054080F39303E8931362182314E
:100900002100530E0F39303E8931362182312E308D
:10091000893136218231210053080F39303E893127
:10092000362182310D308931362182310800200094
:100930002D088039B7002D35BE00AC1FA02CA12C8E
:10094000A22C3E143E080319A62CA72CB72C3E0A55
:10095000031DAB2CAC2CB42C0030AD000030AC002F
:100960000030AB000030AA00AC17AD01BF2C003046
:10097000AD000030AC000030AB000030AA00290808
:100980008039AE002E08B7062935BF00A81FC92C34
:10099000CA2CCB2C3F143F080319CF2CD02CE02CB1
:1009A0003F0A031DD42CD52CDD2C0030A9000030CB
:1009B000A8000030A7000030A600A817A901E82C65
:1009C0000030A9000030A8000030A7000030A600C9
:1009D0002908280427042604031DEF2CF02C092DD8
:1009E0000030AD000030AC000030AB000030AA0099
:1009F0008030AC047F30AD043708AE002E08AD0463
:100A00002D08A9002C08A8002B08A7002A08A6007A
:100A1000402E3E08031D0D2D0E2D172D0030A90070
:100A20000030A8000030A7000030A600402E3E088D
:100A3000AE00AF012F08B1003F082E02B000031C2A
:100A4000B10330087F3EB8000030313DB9002D08B9
:100A5000B6002C08B5002B08B4002A08B3000030FB
:100A6000AD000030AC000030AB000030AA00003018
:100A7000BD000030BC000030BB000030BA00BF0138
:100A80007F2D3F080319452D462D602D0130B335CC
:100A9000B40DB50DB60D890B472D0130AA35AB0D40
:100AA000AC0DAD0D890B4E2DBD1F572D582D592D59
:100AB0002A140130BA35BB0DBC0DBD0D890B5A2D62
:100AC00029083602031D6E2D28083502031D6E2DE0
:100AD00027083402031D6E2D26083302031C712DD6
:100AE000722D7B2D3D172608B3022708B43B28083A
:100AF000B53B2908B63B0130AE002E08BF071A30BF
:100B00003F02031C842D852D412D36083504340405
:100B1000330403198C2D8D2DA62D3A14A62D0130EA
:100B2000AA35AB0DAC0DAD0D890B902DBD1F992DC8
:100B30009A2D9B2D2A140130BA35BB0DBC0DBD0D6D
:100B4000890B9C2DFF30B807FF30B93DAC1FA92D94
:100B5000AA2D8F2DBF01BD1FAE2DAF2DCB2DFF3088
:100B60003A05AE00FF303B05AF00FF303C05B0005A
:100B70007F303D05B100310830042F042E040319E5
:100B8000C22DC32DC62DBF01BF0ACB2D2A1CC92DD6
:100B9000CA2DCB2DC32D3F080319CF2DD02DF82DF5
:100BA0000130AA070030AB3D0030AC3D0030AD3D18
:100BB0002D1CDB2DDC2DF82D2A08AE002B08AF00F4
:100BC0002C08B0002D08B1000130B200B137B00CD4
:100BD000AF0CAE0CB20BE62D3108AD003008AC0006
:100BE0002F08AB002E08AA000130B8070030B93D2D
:100BF0003908803AAE0080302E02031D012EFF30EE
:100C00003802031C042E052E122EFF302000B800DF
:100C10000030B9000030AD000030AC000030AB0057
:100C20000030AA0020003908803AAE0080302E0241
:100C3000031D1C2E0130380203181F2E202E2C2ECF
:100C40002000B801B9010030AD000030AC00003028
:100C5000AB000030AA00B70120003808BE003E1CDF
:100C6000322E332E352EAC17392E7F30AE002E08A3
:100C7000AC053E36AD003708AE002E08AD04002DA1
:100C800008008C3125248631A6302100D5000B3098
:100C9000D6008831CE20863106302100D5000D30B7
:100CA000D6008831D420863163302100D5000E3043
:100CB000D60089312D218631B0302100D500023097
:100CC000D6008931242186317D302100D5000930BC
:100CD000D6008831F720863122008D14003087310C
:100CE000982786318D319D2586318B170B178B31D7
:100CF000A62386318831BD208631003A0319812E22
:100D0000822E7A2E8931D52186312100C6002430E9
:100D10004606031D8C2E8D2ED32EC701D32E2430D4
:100D200021004606031D952E962EEA2EC701C70AFE
:100D30007A2E210046088A313F228631003A031973
:100D4000A22EA32EAA2E21004608D03EC3000230B8
:100D5000C7007A2E2100C7017A2E210046088A3169
:100D60003F228631003A0319B62EB72EAA2E210053
:100D70004608D03EC2000330C7007A2E0D30210055
:100D80004606031DC42EC52EAA2E4308C9004208DC
:100D9000C8008C318424863101302200B40034082C
:100DA0002100C507AA2E47082200B400B501350866
:100DB000003A0319DC2EAA2E3408003A03198F2EAC
:100DC000013A0319992E033A0319AD2E013A03197A
:100DD000BE2EAA2E7A2E803156282000A000200890
:100DE0000319F32EF42E082FF71FF72EF82E082FD5
:100DF0007409A2007509A3007609A4007709A5006B
:100E0000A20A0319A30A0319A40A0319A50A102F99
:100E10007708A5007608A4007508A3007408A2004E
:100E20007708760475047404031D172F182F212FDB
:100E30000030F7000030F6000030F5000030F4001C
:100E4000972F9630A1002F2F0130F8007808A107C6
:100E50000130A536A40CA30CA20C890B292FFE305F
:100E60002505031D342F352F242F492F0130F8007D
:100E70007808A1070130A2070030A33D0030A43D4F
:100E80000030A53D0130A536A40CA30CA20C890BA3
:100E9000432FFF302505031D4E2F4F2F362F592F7F
:100EA0000130A1020130A235A30DA40DA50D890BBF
:100EB000532FA41B5C2F5D2F632F023021020318D8
:100EC000622F632F502F2118662F672F6F2FFF304F
:100ED000A205FF30A3057F30A405FF30A505031050
:100EE000A10C2108F800F901FA01FB011830F835CE
:100EF000F90DFA0DFB0D890B772F7808A2047908FC
:100F0000A3047A08A4047B08A50420080319892FE8
:100F10008A2F8F2FF71F8D2F8E2F8F2FA517250824
:100F2000F7002408F6002308F5002208F400080062
:100F30002100D8002400951A9E2F9F2FEF2F21000B
:100F40005808D500D601D535D60DD535D60D0D307E
:100F5000550784000830563D80388500000824007D
:100F6000940021005808D500D601D535D60DD535C9
:100F7000D60D0C30550784000830563D803885006A
:100F8000000824009500960121005808D500D601DC
:100F9000D535D60DD535D60D0E3055078400083021
:100FA000563D803885000008240092002100580832
:100FB000D500D601D535D60DD535D60D0F30550710
:100FC00084000830563D803885000008D700D70ED1
:100FD0000D085706EF3957068D00240095160800B6
:100FE0002100DC0022008D1021005B08D6005A0889
:100FF000D5005C088B31F923873122008D1408005D
:10100000093400340A3400340B3407340C3401340E
:101010000F3401340F3400340034403401340034D0
:1011480008000800080028001715080028001715CF
:101158000800013401340334893022009700080064
:101168001630210097000800F0007008280095004C
:1011780008002000110E890C013908002000921285
:101188008C31C32488310800200012138D31512579
:101198008831080021005608E1005508E0000800E1
:1011A80021005608DF005508DE00080064008001B1
:1011B8000131890BDB28003468302100990098013F
:1011C800220096010800C33021009E009B019C016B
:1011D80001309D000800FF3020009B009A0191100B
:1011E80004309C000800210056082200A3002100BA
:1011F80055082200A2000800210056082200A70076
:10120800210055082200A6000800210056082200E7
:10121800AB00210055082200AA000800210056084A
:101228002200A900210055082200A80008000C305F
:101238002600930091019201CF3025009E050800F9
:10124800210056082200A500210055082200A4000C
:101258000800210056082200A1002100550822009C
:10126800A0000800F0002000111E3B293C29372966
:10127800700823009A00080040302400940095016B
:101288000130920021000D1224009512080021005F
:101298009212843022009100603092002000921255
:1012A80021009216080021001213843022009300B6
:1012B800A130940020001213210012170800220008
:1012C80024082504031969296A296F2925088A0031
:1012D80024080A0089310800220020082104031983
:1012E800762977297C2921088A0020080A00893173
:1012F80008002100620803198229832988290130FE
:10130800F0007008CA078A290130CA020800203094
:101318002100A5002030A6002030A70027083E04A1
:10132800A70026083D04A600080020302100A500DB
:101338002030A6002030A70027083E04A700260872
:101348003D04A60008002100600861040319AD29C6
:10135800AE29B32961088A0060080A00893127008C
:101368001610080021005E085F040319BC29BD2976
:10137800C2295F088A005E080A0089312700961191
:10138800080022008D107708F1007608F00079082F
:10139800F3007808F2008B31CF23893122008D14B5
:1013A80008002000911ED929DA29D5292100BC017D
:1013B80023009D1CE029E129E3291D121D161908A7
:1013C80008002700161CE929EA29ED298931A721F7
:1013D80089312700961DF129F229F5298931B6218D
:1013E800893108002000931226001808F200190815
:1013F800F3007308F1007208F000220023088A0045
:1014080022080A008A310800043026009A00980150
:101418009901A4302100D5000830D6008831F72082
:101428008A312000931221009316080020009901A8
:10143800FF309700FF309600111017082100B10007
:10144800200016082100B000013020009800080094
:10145800F330280096009501200093102100931482
:101468000330D5000030D60089312D218A317F30F4
:101478002800970008002100D600D5013030560218
:10148800031C472A482A502A3430560203184D2A8A
:101498004E2A502AD501D50A5508080021001508FA
:1014A800C0391738950016302000950016302100F5
:1014B800BB000B118B160230D5000030D6008931E5
:1014C80024218A3108007108F3007008F200F3360D
:1014D800F20CF336F20C72082600910070080339FA
:1014E800F2000430F235890B762A1308CF397204DA
:1014F800930008002000931001302100AC07003051
:10150800AD3D00302D02023003192C02031C8D2A38
:101518008E2A942A893170218A312100AC01AD01CB
:101528000800F3007308F200F20DF20D21001D0807
:101538007206833972069D001D14003200320000C5
:1015480021009D149D18A92AAA2AA62A1C08F10080
:101558001B08F00008007108803AF200803072021F
:10156800031DB82A013070020318BB2ABC2AC82AF6
:101578007009F2007109F300F20A0319F30A7208FC
:10158800F0007308F100C82A08000B1121003B087D
:101598002000950001302100AE070030AF3D00303B
:1015A8002F02053003192E02031CDB2ADC2AE22A4B
:1015B800893163218A312100AE01AF010800210081
:1015C8003E080319E82AE92AF22A03306406031DB3
:1015D800EE2AEF2AF22A0230E400FE2A3D08031D13
:1015E800F62AF72AFE2A3E08031DFB2AFC2AFE2AB1
:1015F8000330E40008000830FC007C08FA007C088E
:101608009F3E860087010108FB007A30F600003013
:10161800F7000230F8000030F9008931C5218A311D
:101628000130FC027C08031D1A2B1B2B012B080020
:1016380008302200AE002E08AC002E089F3E86001F
:1016480087010108AD0002302100DA000030DB001C
:101658002C308731F0278B3101302200AE022E0862
:10166800031D372B382B1F2B0800F800F401F50158
:101678007008F200F3017208F6007308F700781C8E
:10168800462B472B4B2B7608F4077708F53D01309E
:10169800F635F70D890B4C2B0310F80C7808031D51
:1016A800562B572B432B7508F1007408F0000800DF
:1016B8002100BF01C101CA01CA0A7E30A0008130E1
:1016C800A1008130A2007E30A300A40162080319A2
:1016D8006E2B6F2B732B3E08FE39BE007A2B3D080C
:1016E800FE39BD00E4018831A7208B3189318B2177
:1016F8008B318A31FF228B310800083023009F008C
:1017080090309D0024309E0033309B009C010030B7
:101718002100D5000030D600893109218B310030F5
:101728002100D5000030D600893112218B310030DC
:101738002100D5000030D600893100218B312100ED
:10174800BC0108007E1CAA2B8B315C2B2100BF0139
:10175800C101CA01CA0A7E30A0008130A1008130CF
:10176800A2007E30A300A40162080319BC2BBD2B84
:10177800C12B3E08FE39BE00C82B3D08FE39BD000E
:10178800E4018831AA208B31893199218B318B3141
:101798001C238B3108007108F5007008F400EC2B4D
:1017A800740886007508870001082400910020004D
:1017B800911DDF2BE02BDB2B911174088600750837
:1017C80087002400110881000130F4070030F53D3E
:1017D8000130F2020030F33B720A031DF72B730A43
:1017E800031DF72BF82BD42B08002100D80058082C
:1017F800D900182C590886000130870001082400F8
:1018080091002000911D092C0A2C052C9111210012
:101818005908860001308700240011088100013032
:101828002100D7005708D9070130D5020030D63B30
:10183800550A031D232C560A031D232C242CFE2B8A
:101848000800893140218C318C3153248C31883106
:10185800E0208C318831B4208C31893157218C318A
:101868008831B0208C318A312C228C318831EF209C
:101878008C318A3152228C3189314B218C3188311B
:10188800E7208C318A3108228C3189311B218C3137
:101898008A311A228C318B3181238C310800220045
:1018A8008C018D01373021008C00ED308D00C03067
:1018B80023008D000F308C00093024008D008C012E
:1018C80021009513C03022009D0001309E002700A2
:1018D800161096111514951514109411A5302100A1
:1018E800D5000830D6008831CE208C31A6302100B2
:1018F800D5000830D6008831D4208C318B150800EB
:1019080001302100D500490A8A2CD535890B892C4C
:101918005508D6000130D500480A932CD535890BD7
:10192800922C5508D7004908031D9B2C9C2CA02CF1
:101938003E085704BE00B72C480849020318A52CD6
:10194800A62CAB2C3E0856045704BE00B72C4908F9
:1019580048020318B02CB12CB72C3E085604BE0020
:101968003D085704BD00410849020318BC2CBD2C92
:10197800C02C0330E400C22C0230E400080021002F
:10198800BF010230C1003E1DCA2CCB2CD02C6208EE
:10199800031DCF2CD02CD92C6208031DD42CD52C98
:1019A800E62C3D1DD82CD92CE62C0030F000F10097
:1019B8008A3167228C3100308831B8208C318831E7
:1019C800A7208C3143302100A0008530A100893048
:1019D800A2007130A300A40162080319F42CF52CAD
:1019E800F92C3E08FB39BE00FC2C3D08FB39BD0034
:1019F80089318B218C318A31FF228C318A31E32263
:101A08008C3108002100BF01C101C10ABE1C0D2D87
:101A18000E2D132D6208031D122D132D1C2D620887
:101A2800031D172D182D292DBD1C1B2D1C2D292DEF
:101A38000030F000F1008A3167228D3100308831A2
:101A4800B8208D318831A7208D312100A001413087
:101A5800A100FF30A200A301A30AA4016208031990
:101A6800362D372D3D2D3E08FD39BE000230E400ED
:101A7800472D3D08FD39BD003D08031D442D452D6A
:101A8800472D0330E4008A31E3228D3189318B21DF
:101A98008D318A31FF228D3108002100BF010330CA
:101AA800C1007830CA00BE1D5A2D5B2D602D62081A
:101AB800031D5F2D602D692D6208031D642D652DA2
:101AC800762DBD1D682D692D762D0030F000F100B2
:101AD8008A3167228D3100308831B8208D318831C4
:101AE800A7208D3181302100A0009130A1009130D4
:101AF800A2006E30A300A40162080319842D852D6D
:101B0800892D3E08F739BE008C2D3D08F739BD00F8
:101B180089318B218D318A31FF228D318A31E3223F
:101B28008D3121003E0803199A2D9B2D9C2DBE0155
:101B380008002200B001B1013108A03E86008701EB
:101B4800810101302100DD005D082200B107083065
:101B58003102031CB02DB12DA02DB201B301330801
:101B68002C3E8600013087003008003E8400883013
:101B78000318013E8500000881003308013E2C3E11
:101B88008600013087003008013E84008830031841
:101B9800013E8500000881003308023EB30004308E
:101BA8003302031CD82DD92DB32D3008023EB000C6
:101BB80004302100DA000030DB002C308731F027B8
:101BC8008D3101302100DD005D082200B2070630AA
:101BD8003202031CF02DF12DB22D08000310200055
:101BE8005C0D5D0DFD007D08031DFB2DFC2D052EF4
:101BF8000030DD000030DC000030DB000030DA00AF
:101C0800622E5A08DE005B08DF005C08E0005D0811
:101C1800E1001F30E136E00CDF0CDE0C890B0E2EE4
:101C28005E08FC00DC17FF30DA05FF30DB05FF300B
:101C3800DC050030DD059630FD02FD1F242E252E23
:101C48003D2E7D08803A973E03182B2E2C2E2D2EE4
:101C5800FC2D0130DD36DC0CDB0CDA0C890B2E2E6A
:101C68000130DE005E08FD07031D3B2E3C2E2D2EA5
:101C7800522E20307D02031C422E432E4D2EFC2D69
:101C88000130DA35DB0DDC0DDD0D890B452E013019
:101C9800FD027D08031D512E522E442E7C08031987
:101CA800562E572E622EDA09DB09DC09DD09DA0A1D
:101CB8000319DB0A0319DC0A0319DD0A0800842E5C
:101CC8000030F000F1008A3167228E312000ED01EA
:101CD8009C2E04306D02031C722E732E772E033057
:101CE8002100E4006A2E0130A0002008ED079C2E98
:101CF800F430F0000130F1008A3167228E316A2E0B
:101D0800210064082000A000A1012108003A03195D
:101D18008E2E9C2E2008003A0319642E013A0319CE
:101D28006D2E033A03197C2E013A03197C2E9C2E42
:101D380021003E080319A12EA22EBC2E03306406F2
:101D48000319A72EA82EBC2EE201E20A22008C1746
:101D5800023021006406031DB22EB32ED42E60304B
:101D6800A500C030A6006030A700BF01BF0AD42E6E
:101D7800E20122008C130230210064060319C52EEB
:101D8800C62ECC2E03306406031DCB2ECC2ED42EAB
:101D9800C030A5006030A600C030A7000230BF00E8
:101DA80027083E04A70026083D04A6008A31FF2222
:101DB8008E310800F8007808F90072087304031DD2
:101DC800E62EE72EE82E6D2F790886008701700829
:101DD800810072087907F4007408FF3E86008701C5
:101DE800700881000030730203300319720203186F
:101DF800FE2EFF2E002F6D2F790A860087017008AE
:101E080081007908023E8600870170088100720807
:101E18007907F4007408FE3E860087017008810087
:101E280072087907F4007408FD3E8600870170087F
:101E38008100003073020730031972020318252F3E
:101E4800262F272F6D2F7908033E860087017008FB
:101E5800810072087907F4007408FC3E8600870147
:101E680070088100003073020930031972020318E8
:101E78003E2F3F2F402F6D2F7909F4007A09F50086
:101E8800F40A0319F50A03307405F60000307505E5
:101E9800F7007608F4007408F9077608F202770864
:101EA800F33BFC30F205FF30F305672F7908860015
:101EB8008701700881000130F2020030F33B0130E5
:101EC800F4007408F90772087304031D6C2F6D2F52
:101ED8005A2F08000030F000F1000430F200003002
:101EE800F30069308E31DE268F3120006208E90068
:101EF8006308EA00EB01EC01E8016C080F39E40023
:101F080005306402031C892F8A2F932F6C080F3920
:101F1800033EE4006C086406F0396406EC006B0EBE
:101F28000F39E40005306402031C9B2F9C2FA62F59
:101F38006B0E0F39033EE400E40E6B0864060F399C
:101F48006406EB006B080F39E40005306402031CDB
:101F5800AE2FAF2FB82F6B080F39033EE4006B0884
:101F68006406F0396406EB006A0E0F39E4000530A8
:101F78006402031CC02FC12FCB2F6A0E0F39033EFA
:101F8800E400E40E6A0864060F396406EA0069088A
:101F9800E4006A08E5006B08E6006C08E700013019
:101FA800E435E50DE60DE70D890BD42F6708EC0045
:101FB8006608EB006508EA006408E9000130E400FF
:101FC8006408E8070C306802031CEB2FEC2F812F04
:101FD8006908E4006A08E5006B08E6006C08E70099
:101FE8000C30E736E60CE50CE40C890BF52F650898
:081FF800E3006408E2000800A8
:020000040001F9
:08000000FF3FFF3FFF3FFF3F00
:04000E00E43FFF3E8E
:00000001FF
