:0400000080314928DA
:100008007E1480318B1E09280A2811280B1D0D2803
:100018000E28112883311F2380318B1D14281528A1
:100028001C280B1C182819281C2883316D238031A3
:100038000B1F1F28202847282100921E2428252826
:100048002D282000921E29282A282D28843175243D
:1000580080312100121F312832283A282000121F2F
:10006800362837283A2884316F2480312100111C22
:100078003E283F2847282000111C432844284728A9
:100088008331C92380317E10090080314B288431A7
:100098008C248031FD00FB01FC01203084000030FD
:1000A8008500153084313F2480317E102000803156
:1000B8005D28823155228031C9302000B5000230D8
:1000C800B60084315124803101302000B50002305F
:1000D800B60084315124803122008D1400308031E3
:1000E800CE2080318131292180318B170B17843143
:1000F8007B248031003A0319822883287B288331A6
:100108008E2380312000B400BC28B301B30A7B28B9
:100118003208031990289128992834080F39D03EBD
:10012800B100340E0F39D03EB000B2017B28B201C5
:1001380033080319A028A128B92834080F398331B6
:1001480037238031003A0319AA28AB28B9282000A0
:10015800340E0F39833137238031003A0319B5281B
:10016800B628B9282000B201B20A2000B3017B28C2
:100178003408C600C7014708003A0319C4289B2859
:1001880046080D3A03198C28293A031989289B280F
:10019800803149282000B8002400951AD428D52891
:1001A800282920003808B500B601B535B60DB53593
:1001B800B60D8130350784000430363D803885001F
:1001C80000082400940020003808B500B601B535B1
:1001D800B60DB535B60D8030350784000430363D90
:1001E8008038850000082400950096012000380812
:1001F800B500B601B535B60DB535B60D8230350743
:1002080084000430363D80388500000824009200C0
:1002180020003808B500B601B535B60DB535B60DB0
:100228008330350784000430363D80388500000867
:10023800B700B70E21000D0820003706EF39370642
:1002480021008D002400951608002000C201C3017A
:100258004308203E8600870181010130BD003D082A
:10026800C30708304302031C3A293B292C29C4013F
:10027800C50145083E3E860087014208F03E8400DD
:1002880083300318013E8500000881004508013EBF
:100298003E3E860087014208F13E84008330031801
:1002A800013E8500000881004508023EC500043073
:1002B8004502031C602961293D294208023EC2000B
:1002C8000430BA000030BB003E3083317E238131D8
:1002D80001302000BD003D08C40706304402031C5D
:1002E800762977293C29080022008C018D013730B6
:1002F80021008C00ED308D00C03023008D000F30C0
:100308008C00093024008D008C0121009513C03029
:1003180022009D0001309E0027001610961115142A
:1003280095151410941190302000B5000430B600D3
:100338008431572481318F302000B5000430B60055
:100348008431512481318B15080081302000A000B0
:100358009130A1009130A2006E30A300A4017D0865
:100368000319B729B829C2296030A500C030A600F2
:100378006030A7007C08F739FC00CB29C030A50005
:100388006030A600C030A7007B08F739FB002708BB
:100398007C04A70026087B04A6008231EC22813168
:1003A800080043302000A0008530A1008930A20059
:1003B8007130A300A4017D080319E329E429EE297B
:1003C8006030A500C030A6006030A7007C08FB396B
:1003D800FC00F729C030A5006030A600C030A70097
:1003E8007B08FB39FB0027087C04A70026087B0450
:1003F800A6008231EC22813108002000A0014130A2
:10040800A100FF30A200A301A30AA4017D080319DB
:100418000E2A0F2A192A6030A500C030A6006030C5
:10042800A7007C08FD39FC00222AC030A5006030F6
:10043800A600C030A7007B08FD39FB0027087C0414
:10044800A70026087B04A6008231EC22823108002E
:100458002000B8003808B900482A39088600870102
:100468000108240091002000911D3B2A3C2A372ACC
:100478009111390886008701240011088100013094
:100488002000B7003708B9070130B5020030B63B85
:10049800350A031D532A360A031D532A542A312AC2
:1004A80008008431142482318131782182318431E9
:1004B800382482318431842482318331FC2382318F
:1004C80084318824823184312824823183314A233B
:1004D800823184310824823184313024823184315C
:1004E8001F2482318331062382318231A422823152
:1004F8000800F3007308F400972A7408860087013F
:100508000108240091002000911D8B2A8C2A872A3B
:1005180091117408860087012400110881000130B8
:10052800F2007208F4070130F0020030F13B700A63
:10053800031DA22A710A031DA22AA32A812A0800E0
:10054800083023009F0090309D0024309E003330F7
:100558009B009C0100302000B5000030B6008431BB
:100568006324823100302000B5000030B6008431A9
:100578005D24823100302000B5000030B60084319F
:10058800692482312000AF0108007E302000A000DD
:100598008130A1008130A2007E30A300A4017D0833
:1005A8000319D72AD82ADF2A6030A500C030A60050
:1005B8006030A700E82AC030A5006030A600C0302F
:1005C800A7007B08FE39FB008231EC22823108004B
:1005D8000830FA007A08F8007A081F3E860087017A
:1005E8000108F9000230F5000030F6007830833158
:1005F800BB2382310130FA027A08031D042B052B34
:10060800EE2A0800200099016D309700843096008A
:1006180011101708AB001608AA00210011148D301C
:100628002000B5000430B6008431452483313130D0
:100638002000980008000B1120002E0895000130BA
:10064800A8070030A93D00302902203003192802EC
:10065800031C2F2B302B362B8331E32383312000CF
:10066800A801A90108002000B600B5013030360203
:10067800031C3F2B402B482B343036020318452BE4
:10068800462B482BB501B50A350808002100150886
:10069800C0391738950020009501AE010B118B1653
:1006A8008E30B5000430B60084314B248331080005
:1006B8002000181D602B612B682B181071089700FB
:1006C8007008960018146C2B710897007008960033
:1006D80008002700161C712B722B752B8331AC2355
:1006E80083312700961D792B7A2B7D2B83319D230F
:1006F800833108002000BC0022008D1020003B0838
:10070800B6003A08B5003C0882312C228331220019
:100718008D1408002000911E922B932B8E2BAF0175
:1007280023009D1C982B992B9B2B1D121D16190815
:1007380008002000520853040319A32BA42BA92B4B
:1007480053088A0052080A008331270096110800CE
:100758002000540855040319B22BB32BB82B5508A5
:100768008A0054080A008331270016100800F70091
:1007780022008D107608F1007508F00077088231A4
:100788007D22833122008D140800200011102B08CF
:10079800F1002A08F00083315C2383318331D623AA
:1007A8008331080020004A084B040319DC2BDD2B99
:1007B800E22B4B088A004A080A008331080020000F
:1007C800480849040319E92BEA2BEF2B49088A004A
:1007D80048080A0083310800093400340A34003418
:1007E8000B3407340C3401340F3401340F34003423
:1007F80021001213843022009300A13094002000BD
:1008080012132100121708002100921284302200CE
:100818009100A03092002000921221009216080048
:1008280040302400940095010130920021000D12FF
:100838002400951208000C302600930091019201C3
:10084800CF3025009E050800FF3020009B009A014C
:10085800911004309C000800C33021009E009B01C9
:100868009C0101309D000800683021009900980122
:10087800220096010800640080010131890B402C98
:10088800003420003608CB003508CA0008002000D4
:100898003608C9003508C800080020003608D3000B
:1008A8003508D200080020003608D5003508D400E5
:1008B800080020003608CF003508CE0008002000C8
:1008C8003608D1003508D000080020003608CD00D1
:1008D8003508CC000800200012138131A921843189
:1008E8000800200092128131D521843108002000AF
:1008F800110E890C013908000034403401340034E9
:10090800163021009700080089302200970008005F
:0A0918000134080008000800080080
:020000040001F9
:08000000FF3FFF3FFF3FFF3F00
:04000E00E43FFF3E8E
:00000001FF
