:0400000080315628CD
:100008007E1480318B1D09280A2811280B1C0D2805
:100018000E2811288431A62480318B1E1428152817
:100028001C280B1D182819281C2884310424803109
:100038000B1F1F28202854282100121F2428252898
:100048002D282000121F29282A282D28853192259D
:1000580080312100921E312832283A282000921E31
:10006800362837283A288531982580312100931E73
:100078003E283F2847282000931E43284428472825
:100088008431832480312100931C4B284C28542828
:100098002000931C5028512854288431332480315F
:1000A8007E100900803158288531B5258031FB0044
:1000B8008531B6258031FC008531B7258031D300E4
:1000C8008531B8258031D400FD012030840000300E
:1000D8008500123085315C2580317E102000833107
:1000E8002D2B2000B5002400951A7B287C28CF28CA
:1000F80020003508B200B301B235B30DB235B30DE7
:10010800A430320784000530333D8038850000086C
:100118002400940020003508B200B301B235B30DB5
:10012800B235B30DA330320784000530333D803833
:100138008500000824009500960120003508B200CB
:10014800B301B235B30DB235B30DA5303207840013
:100158000530333D803885000008240092002000D7
:100168003508B200B301B235B30DB235B30DA630C0
:10017800320784000530333D803885000008B4001C
:10018800B40E21000D0820003406EF393406210092
:100198008D002400951608007C1DD328D428DA2861
:1001A80020005408031DD928DA28E4282000540820
:1001B800031DDF28E028F128531DE328E428F1284F
:1001C8000030F000F10084311C248031003085318A
:1001D8009E2580318531B225803143302000A00032
:1001E8008530A1008930A2007130A300A401540811
:1001F8000319FF2800290A296030A500C030A6008D
:100208006030A7007C08FB39FC001329C030A5002A
:100218006030A600C030A7005308FB39D300270878
:100228007C04A70026085304A6008331EA23803102
:1002380020005308031D2129222929297C08031D90
:100248002629272929290330FB000800FC1C2D2911
:100258002E29342920005408031D332934293E2926
:1002680020005408031D39293A294B29D31C3D295C
:100278003E294B290030F000F10084311C248131E3
:10028800003085319E2581318531B22581312000AC
:10029800A0014130A100FF30A200A301A30AA401DC
:1002A800540803195829592965296030A500C03018
:1002B800A6006030A7007C08FD39FC000230FB0076
:1002C8007529C030A5006030A600C030A7005308CB
:1002D800FD39D3005308031D72297329752903308A
:1002E800FB0027087C04A70026085304A6008331D6
:1002F800EA2381310800A6290030F000F10084319A
:100308001C2481318531AF258131BC292C30F00086
:100318000130F10084311C248131862904307D02AA
:10032800031C97299829A1292C30F0000130F100ED
:1003380084311C248131FD0186290130F4007408C0
:10034800FD07BC297B08F400F5017508003A03197C
:10035800AE29BC297408003A03198029013A031907
:100368008A29033A03198A29013A03199229BC29CF
:100378007C080319C029C129CD2903307B0603193C
:10038800C629C729CD292000D401D40A22008C17F8
:10039800D1292000D40122008C1308002000C001BC
:1003A800C1014108203E8600870181010130BA0061
:1003B8003A08C10708304102031CE329E429D5297A
:1003C800BF01C20142083B3E8600870140080C3E3F
:1003D800840085300318013E85000008810042082A
:1003E800013E3B3E8600870140080D3E8400853073
:1003F8000318013E8500000881004208023EC20041
:1004080004304202031C092A0A2AE6294008023E4F
:10041800C0000430B7000030B8003B308431952468
:10042800813101302000BA003A08BF0706303F0288
:10043800031C1F2A202AE5290800FC1D242A252A36
:100448002B2A20005408031D2A2A2B2A352A20008B
:100458005408031D302A312A422AD31D342A352A4A
:10046800422A0030F000F10084311C24823100302F
:1004780085319E2582318531B22582318130200037
:10048800A0009130A1009130A2006E30A300A40119
:1004980054080319502A512A5B2A6030A500C0303D
:1004A800A6006030A7007C08F739FC00642AC03039
:1004B800A5006030A600C030A7005308F739D30064
:1004C80027087C04A70026085304A6008331EA23E2
:1004D80082310330FB0008007E1C742A8331002B14
:1004E8007E302000A0008130A1008130A2007E3043
:1004F800A300A40154080319822A832A8D2A603094
:10050800A500C030A6006030A7007C08FE39FC00BA
:10051800962AC030A5006030A600C030A700530856
:10052800FE39D3008331CE238231200027087C0492
:10053800A70026085304A600080022008C018D019C
:10054800373021008C00ED308D00C03023008D0045
:100558000F308C00093024008D008C012100951388
:10056800C03022009D0001309E0027001610961111
:100578001514951514109411BC302000B2000530E4
:10058800B300853174258231BB302000B2000530BC
:10059800B30085316E2582318B15080085313025F1
:1005A80082318231A12282318531552582318531CE
:1005B800A72582318531182582318531AB258231D5
:1005C80084314924823185314525823184315D2445
:1005D80082318531242582318431712482318531FB
:1005E8004D25823185313B2582318431E4248231A5
:1005F8008331A923823108007E302000A000813099
:10060800A1008130A2007E30A300A4015408031980
:100618000E2B0F2B192B6030A500C030A6006030C0
:10062800A7007C08FE39FC00222BC030A5006030F2
:10063800A600C030A7005308FE39D3008331EA234F
:100648008331200027087C04A70026085304A6004D
:1006580008008231D222833170302000B20002308B
:10066800B3008531742583312A302000B20001306F
:10067800B30085316E2583317F302000B200013010
:10068800B30085316225833122008D14003080311A
:10069800752083318131D22183318B170B17823139
:1006A80070228331562B803156282000B50035083A
:1006B800B600752B360886008701010824009100D2
:1006C8002000911D682B692B642B91113608860038
:1006D800870124001108810001302000B40034088B
:1006E800B6070130B2020030B33B320A031D802B3B
:1006F800330A031D802B812B5E2B0800F30073083F
:10070800F4009C2B740886008701010824009100DE
:100718002000911D902B912B8C2B91117408860031
:1007280087012400110881000130F2007208F407E3
:100738000130F0020030F13B700A031DA72B710A4B
:10074800031DA72BA82B862B0800083023009F0029
:1007580090309D0024309E0033309B009C01003077
:100768002000B2000030B30085318025833100308D
:100778002000B2000030B30085317A258331003083
:100788002000B2000030B300853186258331200077
:10079800B101080008302000BC003C08BA003C0841
:1007A8001F3E860087010108BB000230B7000030F9
:1007B800B8003A3084319524833101302000BC02DE
:1007C8003C08031DE82BE92BD12B08000830FA0060
:1007D8007A08F8007A081F3E860087010108F900A8
:1007E8000230F5000030F60078308431D5248331AA
:1007F8000130FA027A08031D022C032CEC2B0800A6
:100808000B112000300895000130AA070030AB3DDD
:1008180000302B02053003192A02031C142C152C56
:100828001B2C8431FF2484312000AA01AB0108006D
:100838007108F3007008F200F336F20CF336F20C8C
:1008480072082600910070080339F2000430F2356E
:10085800890B2B2C1308CF39720493000800200051
:1008680093100130A8070030A93D0030290202305A
:1008780003192802031C412C422C482C8431F224F1
:1008880084312000A801A9010800F330280096004F
:1008980095012000931021009314B9302000B20074
:1008A8000530B3008531622584317F3028009700F8
:1008B800080021001508C0391738950016302000A7
:1008C80095001630B0000B118B16BA30B200053007
:1008D800B3008531682584310800043026009A0069
:1008E80098019901BD302000B2000530B300853170
:1008F8008C258431200093122100931608002000D3
:10090800931226001808F2001908F3007308F10082
:100918007208F000200046088A0045080A00843161
:1009280008002000B90022008D1020003808B3000C
:100938003708B200390883315923843122008D14D5
:10094800000008002700161CAA2CAB2CAE2C843102
:10095800C62484312700961DB22CB32CB62C8431C2
:10096800B7248431080020004F0850040319BD2C17
:10097800BE2CC32C50088A004F080A008431270077
:10098800961108002000510852040319CC2CCD2CD4
:10099800D22C52088A0051080A0084312700161008
:1009A8000800F70022008D107608F1007508F000A5
:1009B800770883318223843122008D1400000800D7
:1009C800200099010B309700DC30960011101708B1
:1009D800AD001608AC00313098000800200043082C
:1009E80044040319F82CF92CFE2C44088A00430807
:1009F8000A00843108002000470848040319052D1F
:100A0800062D0B2D48088A0047080A008531080082
:100A1800093400340A3400340B3407340C340134FC
:100A28000F3401340F3400342100121384302200B3
:100A3800930061309400200012132100121708005F
:100A48002100921284302200910060309200200030
:100A5800921221009216080040302400940095015B
:100A68000130920021000D122400951208003C303C
:100A7800260093007F3091009201CF3025009E051B
:100A88000800FF3020009B009A01911004309C0060
:100A98000800C33021009E009B019C0101309D008D
:100AA800080068302100990098012200960108008A
:100AB800640080010131890B5D2D0034200033086A
:100AC800C4003208C300080020003308C8003208F8
:100AD800C700080020003308D0003208CF00080003
:100AE80020003308D2003208D10008002000330863
:100AF800CC003208CB00080020003308CE003208B2
:100B0800CD00080020003308CA003208C9000800D8
:100B180020003308C6003208C50008002000121360
:100B28008231212285310800200092128031D020A4
:100B380085310800F000700828009500080000348E
:100B48004034013400341630210097000800893001
:100B58002200970008002800171108002800171520
:100B68000800013404340234013408000800080085
:040B78000800080069
:020000040001F9
:08000000FF3FFF3FFF3FFF3F00
:04000E00E43FFF3E8E
:00000001FF
