:1000000080315628080001347E1480318B1D092868
:100010000A2811280B1C0D280E2811288F313D2786
:1000200080318B1E142815281C280B1D1828192810
:100030001C288731E72780310B1F1F2820285428D0
:100040002100121F242825282D282000121F2928CE
:100050002A282D288E313E2680312100921E3128FB
:1000600032283A282000921E362837283A288E3126
:10007000382680312100931E3E283F284728200043
:10008000931E4328442847288F314E278031210072
:10009000931C4B284C2854282000931C502851288E
:1000A00054288F31AD2780317E10090080315828C7
:1000B000803103208031E900453084000030850024
:1000C00022308E316E268031C130840000308500B0
:1000D00008308E316E2680317E10200084319E2CB7
:1000E000200023088039A8002335AE00A21F7928FC
:1000F0007A287B282E142E0803197F2880288F2821
:100100002E0A031D842885288D280030A300003086
:10011000A2000030A1000030A000A21797280030F4
:10012000A3000030A2000030A1000030A00027088A
:100130008039F9007908A8062735AD00A61FA12847
:10014000A228A3282D142D080319A728A828B7280A
:100150002D0A031DAC28AD28B5280030A7000030BB
:10016000A6000030A5000030A400A617BF2800306C
:10017000A7000030A6000030A5000030A4002D0824
:100180000319C328C428C9282E08031DC828C92854
:10019000D2280030A3000030A2000030A1000030BF
:1001A000A000AA2A2008F00026088F31DD27803120
:1001B00071082000B4007008B3003308F900FA0198
:1001C000FB01FC017C08AC007B08AB007A08AA00AC
:1001D0007908A9003408F900FA01FB01FC017C0848
:1001E000B2007B08B1007A08B0007908AF0021089E
:1001F000F00025088F31DD27803171082000B40020
:100200007008B3003308F900FA01FB01FC0179081A
:10021000A9077A08AA3D7B08AB3D7C08AC3D3408B1
:10022000F900FA01FB01FC017908AF077A08B03D3B
:100230007B08B13D7C08B23D2208F00024088F31D4
:10024000DD27803171082000B4007008B300330846
:10025000F900FA01FB01FC017908A9077A08AA3D17
:100260007B08AB3D7C08AC3D3408F900FA01FB018A
:10027000FC017908AF077A08B03D7B08B13D7C08E6
:10028000B23D0830A935AA0DAB0DAC0D890B422942
:100290002108F00024088F31DD278031710820000B
:1002A000B4007008B3003308A9073408AA3D003031
:1002B000AB3DAC3D2008F00025088F31DD278031B3
:1002C00071082000B4007008B3003308A90734088F
:1002D000AA3D0030AB3DAC3D0830A935AA0DAB0DB1
:1002E000AC0D890B6D292008F00024088F31DD2723
:1002F000803171082000B4007008B3003308A907EA
:100300003408AA3D0030AB3DAC3D2108F000260882
:100310008F31DD27803171082000B4007008B300F0
:100320003308AF073408B03D0030B13DB23D22087C
:10033000F00025088F31DD27803171082000B400DE
:100340007008B3003308AF073408B03D0030B13D4A
:10035000B23D2208F00026088F31DD278031710878
:100360002000B4007008B3003308F9003408FA0024
:10037000FB01FC010830F935FA0DFB0DFC0D890B72
:10038000BB297908AF077A08B03D7B08B13D7C08EE
:10039000B23D2908F9002A08FA002B08FB002C08B6
:1003A000FC001830FC36FB0CFA0CF90C890BD22936
:1003B0007908AF077A08B03D7B08B13D7C08B23DB3
:1003C0000830A935AA0DAB0DAC0D890BE1292E081B
:1003D0002D07F900FA01FA0D7908823EB300FF30CB
:1003E0007A3DB4000A2A0130AF35B00DB10DB20D1F
:1003F000890BF429AC1FFD29FE29FF292F14013098
:10040000A935AA0DAB0DAC0D890B002AFF30B3073F
:10041000FF30B43DB11F0D2A0E2AF329AD01AC1FE8
:10042000122A132A2F2AFF302905F900FF302A0546
:10043000FA00FF302B05FB007F302C05FC007C0808
:100440007B047A0479040319262A272A2A2AAD0173
:10045000AD0A2F2A2F1C2D2A2E2A2F2A272A2D08B3
:100460000319332A342A5C2A0130AF070030B03D2B
:100470000030B13D0030B23D321C3F2A402A5C2A98
:100480002F08F9003008FA003108FB003208FC00A0
:100490000130FD00FC37FB0CFA0CF90CFD0B4A2A6D
:1004A0007C08B2007B08B1007A08B0007908AF0080
:1004B0000130B3070030B43D3408803AF900803091
:1004C0007902031D652AFF303302031C682A692A5A
:1004D000732A7F302000B2008030B1000030B000BD
:1004E0000030AF009E2A20003408803AF9008030A6
:1004F0007902031D7D2A013033020318802A812AE4
:100500008C2A00302000B2000030B1000030B00072
:100510000030AF00A8019E2A20003308AE00FF3053
:10052000AF05FF30B0057F30B1050030B2052E1C9D
:100530009A2A9B2A9C2AB1172E36B2002808F90065
:100540007908B2043208A3003108A2003008A100E3
:100550002F08A000080020004808A7004708A600B0
:100560004608A5004508A4004130A3002030A200A1
:100570000030A1000030A0008031702082312000C6
:100580002308B8002208B7002108B6002008B500EB
:1005900085312725823120003608C2003508C10088
:1005A00024308E319D26823120006008303E8E310D
:1005B0009D2682312C308E319D26823120005E08AE
:1005C000303E8E319D2682312C308E319D268231F7
:1005D00020005C08303E8E319D2682312C308E31D9
:1005E0009D26823100308E319D2682312C308E3115
:1005F0009D26823120005B08BF00C0013F08FA0041
:100600004008FB0083317C2382317B082000C4003A
:100610007A08C30044080F39303E8E319D2682315E
:100620002000430E0F39303E8E319D26823120004E
:1006300043080F39303E8E319D2682312C308E3169
:100640009D26823120004208FB004108FA008331D8
:100650007C2382317B082000C4007A08C300440850
:100660000F39303E8E319D2682312000430E0F39E6
:10067000303E8E319D2682312E308E319D26823144
:10068000200043080F39303E8E319D2682312C30B8
:100690008E319D26823120005208FB005108FA005D
:1006A00083317C2382317B082000C4007A08C30098
:1006B000440E0F39303E8E319D2682312000440891
:1006C0000F39303E8E319D2682312000430E0F3986
:1006D000303E8E319D2682312E308E319D268231E4
:1006E000200043080F39303E8E319D2682310D3077
:1006F0008E319D26823108000030F000F100043078
:10070000F2000030F300253084310E2483317A0862
:100710002000A5007B08A600A701A801A4012808C5
:100720000F39A00005302002031C972B982BA12B1A
:1007300028080F39033EA00028082006F0392006BB
:10074000A800270E0F39A00005302002031CA92B9A
:10075000AA2BB42B270E0F39033EA000A00E2708AA
:1007600020060F392006A70027080F39A000053002
:100770002002031CBC2BBD2BC62B27080F39033EC0
:10078000A00027082006F0392006A700260E0F3902
:10079000A00005302002031CCE2BCF2BD92B260E18
:1007A0000F39033EA000A00E260820060F392006B0
:1007B000A6002508A0002608A1002708A2002808F6
:1007C000A3000130A035A10DA20DA30D890BE22BD2
:1007D0002308A8002208A7002108A6002008A500D9
:1007E0000130A0002008A4070C302402031CF92BC0
:1007F000FA2B8F2B2508A0002608A1002708A200AD
:100800002808A3000C30A336A20CA10CA00C890B65
:10081000032C2108FB002008FA000800F8007808E3
:10082000F90072087304031D162C172C182C9D2C2C
:100830007908860087017008810072087907F40042
:100840007408FF3E86008701700881000030730243
:1008500003300319720203182E2C2F2C302C9D2CE0
:10086000790A86008701700881007908023E8600B7
:1008700087017008810072087907F4007408FE3E51
:10088000860087017008810072087907F4007408F7
:10089000FD3E86008701700881000030730207303A
:1008A000031972020318552C562C572C9D2C7908CD
:1008B000033E860087017008810072087907F40002
:1008C0007408FC3E860087017008810000307302C6
:1008D00009300319720203186E2C6F2C702C9D2C9A
:1008E0007909F4007A09F500F40A0319F50A0330CE
:1008F0007405F60000307505F7007608F4007408FA
:10090000F9077608F2027708F33BFC30F205FF3076
:10091000F305972C79088600870170088100013063
:10092000F2020030F33B0130F4007408F90772085A
:100930007304031D9C2C9D2C8A2C080087311A27D8
:10094000843172302100A0000730A1008E315C2676
:100950008431B1302100A0000630A1008E315C2628
:100960008431AB302100A0000230A1008E3162261C
:10097000843122008D1400308531982584318531F1
:10098000F02584318B170B178E3133268431003AD2
:100990000319CB2CCC2CC42C8F311E278431200082
:1009A000E5000D2D243020006506031DD82CD92C20
:1009B000242DE601E60AC42C200065088F31852726
:1009C0008431003A0319E52CE62CED2C2000650853
:1009D000D03EDF000230E600C42C2000E601C42C2B
:1009E000200065088F3185278431003A0319F92CDE
:1009F000FA2CED2C20006508D03EDD000330E60027
:100A0000C42C0D3020006506031D072D082DED2C8C
:100A10005F08E0005D08DE00ED2C66082100B100F3
:100A2000B2013208003A0319162DED2C3108003AB4
:100A30000319D22C013A0319DC2C033A0319F02CC8
:100A4000013A0319012DED2CC42C803156280310D6
:100A50002000370D380DBE003E08031D302D312D0E
:100A60003A2D0030B8000030B7000030B60000303A
:100A7000B500972D3508B9003608BA003708BB0015
:100A80003808BC001F30BC36BB0CBA0CB90C890B43
:100A9000432D3908BD00B717FF30B505FF30B60547
:100AA000FF30B7050030B8059630BE02BE1F592D85
:100AB0005A2D722D3E08803A973E0318602D612D05
:100AC000622D312D0130B836B70CB60CB50C890B40
:100AD000632D0130B9003908BE07031D702D712D3B
:100AE000622D872D20303E02031C772D782D822D1C
:100AF000312D0130B535B60DB70DB80D890B7A2DF6
:100B00000130BE023E08031D862D872D792D3D083C
:100B100003198B2D8C2D972DB509B609B709B80986
:100B2000B50A0319B60A0319B70A0319B80A080067
:100B30002100A3002400951A9E2D9F2DEF2D21004A
:100B40002308A000A101A035A10DA035A10D0C30F6
:100B5000200784000830213D8038850000082400EB
:100B6000940021002308A000A101A035A10DA0350B
:100B7000A10D0B30200784000830213D803885000E
:100B8000000824009500960121002308A000A1017F
:100B9000A035A10DA035A10D0D302007840008302F
:100BA000213D8038850000082400920021002308A0
:100BB000A000A101A035A10DA035A10D0E30200788
:100BC00084000830213D803885000008A200A20E74
:100BD0000D082206EF3922068D0024009516080024
:100BE0002100AD01AE012E08C13E860087018101C2
:100BF0000130A8002808AE0708302E02031C012E81
:100C0000022EF32DAF01B0013008A93E8600870106
:100C10002D08FF3E840087300318013E8500000840
:100C200081003008013EA93E860087012D08003E64
:100C3000840088300318013E8500000881003008D8
:100C4000023EB00004303002031C272E282E042E52
:100C50002D08023EAD000430A5000030A600A930EA
:100C60008F312D27853101302100A8002808AF07DA
:100C700006302F02031C3D2E3E2E032E08000330AB
:100C80002000DC0081302100C1009130C200913091
:100C9000C3006E30C400C501200069080319512E3D
:100CA000522E5E2E60302100C600C030C70060307A
:100CB000C80020005A08F739DA00692EC030210038
:100CC000C6006030C700C030C80020005908F7399E
:100CD000D9002100480820005A042100C800470814
:100CE000200059042100C7008F31C3278631080036
:100CF00002302000DC0043302100C1008530C200FA
:100D00008930C3007130C400C5012000690803198F
:100D10008A2E8B2E972E60302100C600C030C7006F
:100D20006030C80020005A08FB39DA00A22EC0301B
:100D30002100C6006030C700C030C800200059083C
:100D4000FB39D9002100480820005A042100C800BE
:100D50004708200059042100C7008F31C32786317E
:100D600008002000DC01DC0A2100C1014130C20082
:100D7000FF30C300C401C40AC5012000690803197B
:100D8000C22EC32ECF2E60302100C600C030C70057
:100D90006030C80020005A08FD39DA00DA2EC03071
:100DA0002100C6006030C700C030C80020005908CC
:100DB000FD39D9002100480820005A042100C8004C
:100DC0004708200059042100C7008F31C32786310E
:100DD000080022008C018D01373021008C00ED309D
:100DE0008D00C03023008D000F308C0009302400AE
:100DF0008D008C0121009513C03022009D00013030
:100E00009E002700161096111514951514109411B4
:100E100028302100A0000E30A1008E318B268631B3
:100E200029302100A0000E30A1008E315C268631D1
:100E30008B1508008E31A72687318631E926873148
:100E40008E31742687318E312F2687318E312B26B5
:100E500087318E31BE2687318F31722787318E31AF
:100E6000832687318F31982787318E31B22687319B
:100E70008F31602787318E317B2687318E319426E2
:100E800087318E31F22687318731C22787310800BA
:100E90002100A3002308A400652F240886008701F1
:100EA0000108240091002000911D572F582F532F27
:100EB0009111210024088600870124001108810077
:100EC00001302100A2002208A4070130A002003056
:100ED000A13B200A031D702F210A031D702F712FC3
:100EE0004D2F08002000DC017E302100C100813040
:100EF000C2008130C3007E30C400C50120006908F3
:100F00000319832F842F8C2F60302100C600C0303E
:100F1000C7006030C800972FC0302100C600603085
:100F2000C700C030C80020005908FE39D9008F31F1
:100F3000C32787310800F3007308F400B52F740845
:100F4000860087010108240091002000911DA92F2F
:100F5000AA2FA52F9111740886008701240011087B
:100F600081000130F2007208F4070130F002003015
:100F7000F13B700A031DC02F710A031DC02FC12F42
:100F80009F2F0800083023009F0090309D002430E0
:100F90009E0033309B009C0100302100A0000030F7
:100FA000A1008E315026873100302100A000003092
:100FB000A1008E315626873100302100A00000307C
:100FC000A1008E314A2687312000D80108000B117C
:100FD0002000570895000130CB070030CC3D003091
:100FE0004C02053003194B02031CF72FF82FFE2F7C
:100FF0008E31CA2687312000CB01CC01080009348C
:1010000000340A3400340B3407340C3401340F3408
:0E10100001340F340034003440340134003415
:101C4E0008000800080008008930220097000800EC
:101C5E0016302100970008002000110E890C013962
:101C6E00080020009212863178268E31080020005E
:101C7E00121386313F268E31080021002108B6004E
:101C8E002008B500080021002108BA002008B9007C
:101C9E00080021002108BE002008BD000800210018
:101CAE002108BC002008BB00080021002108C0004C
:101CBE002008BF00080021002108B8002008B70046
:101CCE00080021002108B4002008B30008006400B9
:101CDE0080010131890B6F2E00346830210099008C
:101CEE009801220096010800C33021009E009B013E
:101CFE009C0101309D000800FF3020009B009A01DE
:101D0E00911004309C000800210021082000E800FA
:101D1E00210020082000E70008000C302600930068
:101D2E0091019201CF3025009E050800F0002000A1
:101D3E00111EA22EA32E9E2E700823009A000800BC
:101D4E0040302400940095010130920021000D12C4
:101D5E002400951208002100921284302200910076
:101D6E00A03092002000921221009216080021004D
:101D7E001213843022009300A1309400200012131D
:101D8E002100121708002100370838040319D02E3D
:101D9E00D12ED62E38088A0037080A008E31080058
:101DAE002100330834040319DD2EDE2EE32E340811
:101DBE008A0033080A008E310800F70022008D10C9
:101DCE007608F1007508F000770887319B278E3171
:101DDE0022008D140800200099010B309700DC3092
:101DEE00960011101708CE001608CD00313098005D
:101DFE0008002000670868040319062F072F0C2F10
:101E0E0068088A0067080A008F312700161008003C
:101E1E0021003F0840040319152F162F1B2F4008D1
:101E2E008A003F080A008F31270096110800200013
:101E3E00911E222F232F1E2FD80123009D1C282FE9
:101E4E00292F2B2F1D121D16190808002100A7007F
:101E5E0022008D1021002608A1002508A0002708C9
:101E6E00873148278F3122008D1408002700161C59
:101E7E00412F422F452F8F3100278F312700961D7E
:101E8E00492F4A2F4D2F8F310F278F3108002000F9
:101E9E00931226001808F2001908F3007308F100D7
:101EAE007208F000210036088A0035080A008F31CA
:101EBE000800043026009A0098019901273021006D
:101ECE00A0000E30A1008E3144268F3120009312D7
:101EDE00210093160800F33028009600950120008B
:101EEE009310210093140230A0000030A1008E3117
:101EFE0068268F317F302800970008002100A1004E
:101F0E00A00130302102031C8D2F8E2F962F3430DE
:101F1E0021020318932F942F962FA001A00A2008B8
:101F2E00080021001508C03917389500163020001A
:101F3E0095001630D7000B118B162A302100A00009
:101F4E000E30A1008E3162268F31080020009310D2
:101F5E000130C9070030CA3D00304A020230031971
:101F6E004902031CBB2FBC2FC22F8E31D7268F31B7
:101F7E002000C901CA0108000830FA007A08F800EA
:101F8E007A08C03E860087010108F9000230F5008C
:101F9E000030F60078308E31E4268F310130FA02AF
:101FAE007A08031DDB2FDC2FC52F0800F800F40183
:101FBE00F5017008F200F3017208F6007308F700DD
:101FCE00781CEA2FEB2FEF2F7608F4077708F53DF4
:101FDE000130F635F70D890BF02F0310F80C780849
:101FEE00031DFA2FFB2FE72F7508F1007408F00080
:021FFE000800D9
:020000040001F9
:08000000FF3FFF3FFF3FFF3F00
:04000E00E43FFF3E8E
:00000001FF
