:1000000080315628080001347E1480318B1D092868
:100010000A2811280B1C0D280E2811288F3148277B
:1000200080318B1E142815281C280B1D1828192810
:100030001C288F31CE2780310B1F1F2820285428E1
:100040002100121F242825282D282000121F2928CE
:100050002A282D288E31462680312100921E3128F3
:1000600032283A282000921E362837283A288E3126
:10007000402680312100931E3E283F28472820003B
:10008000931E4328442847288F3159278031210067
:10009000931C4B284C2854282000931C502851288E
:1000A00054288F31B82780317E10090080315828BC
:1000B000803103208031E900453084000030850024
:1000C00020308E3170268031BF30840000308500B2
:1000D00008308E31702680317E10200084319E2CB5
:1000E000200023088039A8002335AE00A21F7928FC
:1000F0007A287B282E142E0803197F2880288F2821
:100100002E0A031D842885288D280030A300003086
:10011000A2000030A1000030A000A21797280030F4
:10012000A3000030A2000030A1000030A00027088A
:100130008039F9007908A8062735AD00A61FA12847
:10014000A228A3282D142D080319A728A828B7280A
:100150002D0A031DAC28AD28B5280030A7000030BB
:10016000A6000030A5000030A400A617BF2800306C
:10017000A7000030A6000030A5000030A4002D0824
:100180000319C328C428C9282E08031DC828C92854
:10019000D2280030A3000030A2000030A1000030BF
:1001A000A000AA2A2008F00026088731DB2780312A
:1001B00071082000B4007008B3003308F900FA0198
:1001C000FB01FC017C08AC007B08AB007A08AA00AC
:1001D0007908A9003408F900FA01FB01FC017C0848
:1001E000B2007B08B1007A08B0007908AF0021089E
:1001F000F00025088731DB27803171082000B4002A
:100200007008B3003308F900FA01FB01FC0179081A
:10021000A9077A08AA3D7B08AB3D7C08AC3D3408B1
:10022000F900FA01FB01FC017908AF077A08B03D3B
:100230007B08B13D7C08B23D2208F00024088731DC
:10024000DB27803171082000B4007008B300330848
:10025000F900FA01FB01FC017908A9077A08AA3D17
:100260007B08AB3D7C08AC3D3408F900FA01FB018A
:10027000FC017908AF077A08B03D7B08B13D7C08E6
:10028000B23D0830A935AA0DAB0DAC0D890B422942
:100290002108F00024088731DB2780317108200015
:1002A000B4007008B3003308A9073408AA3D003031
:1002B000AB3DAC3D2008F00025088731DB278031BD
:1002C00071082000B4007008B3003308A90734088F
:1002D000AA3D0030AB3DAC3D0830A935AA0DAB0DB1
:1002E000AC0D890B6D292008F00024088731DB272D
:1002F000803171082000B4007008B3003308A907EA
:100300003408AA3D0030AB3DAC3D2108F000260882
:100310008731DB27803171082000B4007008B300FA
:100320003308AF073408B03D0030B13DB23D22087C
:10033000F00025088731DB27803171082000B400E8
:100340007008B3003308AF073408B03D0030B13D4A
:10035000B23D2208F00026088731DB278031710882
:100360002000B4007008B3003308F9003408FA0024
:10037000FB01FC010830F935FA0DFB0DFC0D890B72
:10038000BB297908AF077A08B03D7B08B13D7C08EE
:10039000B23D2908F9002A08FA002B08FB002C08B6
:1003A000FC001830FC36FB0CFA0CF90C890BD22936
:1003B0007908AF077A08B03D7B08B13D7C08B23DB3
:1003C0000830A935AA0DAB0DAC0D890BE1292E081B
:1003D0002D07F900FA01FA0D7908823EB300FF30CB
:1003E0007A3DB4000A2A0130AF35B00DB10DB20D1F
:1003F000890BF429AC1FFD29FE29FF292F14013098
:10040000A935AA0DAB0DAC0D890B002AFF30B3073F
:10041000FF30B43DB11F0D2A0E2AF329AD01AC1FE8
:10042000122A132A2F2AFF302905F900FF302A0546
:10043000FA00FF302B05FB007F302C05FC007C0808
:100440007B047A0479040319262A272A2A2AAD0173
:10045000AD0A2F2A2F1C2D2A2E2A2F2A272A2D08B3
:100460000319332A342A5C2A0130AF070030B03D2B
:100470000030B13D0030B23D321C3F2A402A5C2A98
:100480002F08F9003008FA003108FB003208FC00A0
:100490000130FD00FC37FB0CFA0CF90CFD0B4A2A6D
:1004A0007C08B2007B08B1007A08B0007908AF0080
:1004B0000130B3070030B43D3408803AF900803091
:1004C0007902031D652AFF303302031C682A692A5A
:1004D000732A7F302000B2008030B1000030B000BD
:1004E0000030AF009E2A20003408803AF9008030A6
:1004F0007902031D7D2A013033020318802A812AE4
:100500008C2A00302000B2000030B1000030B00072
:100510000030AF00A8019E2A20003308AE00FF3053
:10052000AF05FF30B0057F30B1050030B2052E1C9D
:100530009A2A9B2A9C2AB1172E36B2002808F90065
:100540007908B2043208A3003108A2003008A100E3
:100550002F08A000080020004808A7004708A600B0
:100560004608A5004508A4004130A3002030A200A1
:100570000030A1000030A0008031702082312000C6
:100580002308B8002208B7002108B6002008B500EB
:1005900085311B25823120003608C2003508C10094
:1005A00024308E31A826823120005E08303E8E3104
:1005B000A82682312C308E31A826823120005D0899
:1005C000303E8E31A82682312C308E31A8268231E1
:1005D00020005C08303E8E31A82682312C308E31CE
:1005E000A826823100308E31A82682312C308E31FF
:1005F000A826823120005B08BF00C0013F08FA0036
:100600004008FB0083317C2382317B082000C4003A
:100610007A08C30044080F39303E8E31A826823153
:100620002000430E0F39303E8E31A8268231200043
:1006300043080F39303E8E31A82682312C308E315E
:10064000A826823120004208FB004108FA008331CD
:100650007C2382317B082000C4007A08C300440850
:100660000F39303E8E31A82682312000430E0F39DB
:10067000303E8E31A82682312E308E31A82682312E
:10068000200043080F39303E8E31A82682312C30AD
:100690008E31A826823120005208FB005108FA0052
:1006A00083317C2382317B082000C4007A08C30098
:1006B000440E0F39303E8E31A82682312000440886
:1006C0000F39303E8E31A82682312000430E0F397B
:1006D000303E8E31A82682312E308E31A8268231CE
:1006E000200043080F39303E8E31A82682310D306C
:1006F0008E31A826823108000030F000F10004306D
:10070000F2000030F300253084310E2483317A0862
:100710002000A5007B08A600A701A801A4012808C5
:100720000F39A00005302002031C972B982BA12B1A
:1007300028080F39033EA00028082006F0392006BB
:10074000A800270E0F39A00005302002031CA92B9A
:10075000AA2BB42B270E0F39033EA000A00E2708AA
:1007600020060F392006A70027080F39A000053002
:100770002002031CBC2BBD2BC62B27080F39033EC0
:10078000A00027082006F0392006A700260E0F3902
:10079000A00005302002031CCE2BCF2BD92B260E18
:1007A0000F39033EA000A00E260820060F392006B0
:1007B000A6002508A0002608A1002708A2002808F6
:1007C000A3000130A035A10DA20DA30D890BE22BD2
:1007D0002308A8002208A7002108A6002008A500D9
:1007E0000130A0002008A4070C302402031CF92BC0
:1007F000FA2B8F2B2508A0002608A1002708A200AD
:100800002808A3000C30A336A20CA10CA00C890B65
:10081000032C2108FB002008FA000800F8007808E3
:10082000F90072087304031D162C172C182C9D2C2C
:100830007908860087017008810072087907F40042
:100840007408FF3E86008701700881000030730243
:1008500003300319720203182E2C2F2C302C9D2CE0
:10086000790A86008701700881007908023E8600B7
:1008700087017008810072087907F4007408FE3E51
:10088000860087017008810072087907F4007408F7
:10089000FD3E86008701700881000030730207303A
:1008A000031972020318552C562C572C9D2C7908CD
:1008B000033E860087017008810072087907F40002
:1008C0007408FC3E860087017008810000307302C6
:1008D00009300319720203186E2C6F2C702C9D2C9A
:1008E0007909F4007A09F500F40A0319F50A0330CE
:1008F0007405F60000307505F7007608F4007408FA
:10090000F9077608F2027708F33BFC30F205FF3076
:10091000F305972C79088600870170088100013063
:10092000F2020030F33B0130F4007408F90772085A
:100930007304031D9C2C9D2C8A2C080087310E27E4
:10094000843166302100A0000730A1008E31962648
:100950008431A5302100A0000630A1008E319626FA
:100960008431AB302100A0000230A1008E3164261A
:10097000843122008D14003085318C2584318531FD
:10098000E42584318B170B178E313B268431003AD6
:100990000319CB2CCC2CC42C8F3129278431200077
:1009A000E300012D243020006306031DD82CD92C30
:1009B000182DE401E40AC42C200063088F3190272D
:1009C0008431003A0319E52CE62CED2C2000630855
:1009D000D03EDE000230E400C42C2000E401C42C30
:1009E000200063088F3190278431003A0319F92CD5
:1009F000FA2CED2C20006308D03EDD000330E4002B
:100A0000C42C64082100B100B2013208003A031975
:100A10000A2DED2C3108003A0319D22C013A0319A2
:100A2000DC2C033A0319F02C013A0319ED2CED2CC0
:100A3000C42C8031562803102000370D380DBE001D
:100A40003E08031D242D252D2E2D0030B80000302A
:100A5000B7000030B6000030B5008B2D3508B90066
:100A60003608BA003708BB003808BC001F30BC3657
:100A7000BB0CBA0CB90C890B372D3908BD00B71760
:100A8000FF30B505FF30B605FF30B7050030B805BB
:100A90009630BE02BE1F4D2D4E2D662D3E08803A6B
:100AA000973E0318542D552D562D252D0130B8365F
:100AB000B70CB60CB50C890B572D0130B9003908AD
:100AC000BE07031D642D652D562D7B2D20303E0263
:100AD000031C6B2D6C2D762D252D0130B535B60DF3
:100AE000B70DB80D890B6E2D0130BE023E08031DF7
:100AF0007A2D7B2D6D2D3D0803197F2D802D8B2D9B
:100B0000B509B609B709B809B50A0319B60A031930
:100B1000B70A0319B80A08002100A3002400951A97
:100B2000922D932DE32D21002308A000A101A035D3
:100B3000A10DA035A10D0B30200784000830213D08
:100B40008038850000082400940021002308A000BC
:100B5000A101A035A10DA035A10D0A302007840008
:100B60000830213D8038850000082400950096015A
:100B700021002308A000A101A035A10DA035A10DE1
:100B80000C30200784000830213D803885000008A3
:100B90002400920021002308A000A101A035A10D8E
:100BA000A035A10D0D30200784000830213D80388C
:100BB00085000008A200A20E0D082206EF392206C9
:100BC0008D002400951608002100AD01AE012E080D
:100BD000BF3E8600870181010130A8002808AE07CA
:100BE00008302E02031CF52DF62DE72DAF01B001C4
:100BF0003008A93E860087012D08FE3E840087301C
:100C00000318013E8500000881003008013EA93E1E
:100C1000860087012D08FF3E840087300318013EBF
:100C20008500000881003008023EB0000430300228
:100C3000031C1B2E1C2EF82D2D08023EAD00043087
:100C4000A5000030A600A9308F313827853101304A
:100C50002100A8002808AF0706302F02031C312E00
:100C6000322EF72D080003302000DC0081302100F7
:100C7000BF009130C0009130C1006E30C200C3018E
:100C8000200069080319452E462E522E603021009F
:100C9000C400C030C5006030C60020005A08F739D3
:100CA000DA005D2EC0302100C4006030C500C030C5
:100CB000C60020005908F739D90021004608200055
:100CC0005A042100C6004508200059042100C5002F
:100CD0008F31E6278631080002302000DC004330E7
:100CE0002100BF008530C0008930C1007130C200D2
:100CF000C3012000690803197E2E7F2E8B2E6030E1
:100D00002100C400C030C5006030C60020005A0871
:100D1000FB39DA00962EC0302100C4006030C500D7
:100D2000C030C60020005908FB39D9002100460810
:100D300020005A042100C600450820005904210063
:100D4000C5008F31E627863108002000DC01DC0A6F
:100D50002100BF014130C000FF30C100C201C20A02
:100D6000C301200069080319B62EB72EC32E6030C8
:100D70002100C400C030C5006030C60020005A0801
:100D8000FD39DA00CE2EC0302100C4006030C5002D
:100D9000C030C60020005908FD39D900210046089E
:100DA00020005A042100C6004508200059042100F3
:100DB000C5008F31E6278631080022008C018D01A5
:100DC000373021008C00ED308D00C03023008D00C5
:100DD0000F308C00093024008D008C012100951308
:100DE000C03022009D0001309E0027001610961191
:100DF000151495151410941130302100A0000E30F8
:100E0000A1008E318D26863131302100A0000E30B8
:100E1000A1008E31962686318B1508008E31B226C0
:100E200087318631DD2687318E31762687318E31C6
:100E3000372687318E31332687318E31C926873167
:100E40008F317D2787318E31852687318F31A327DA
:100E500087318E31BD2687318F316B2787318E31B7
:100E60007D2687318E319F2687318E31FD26873151
:100E70008731B627873108002100A3002308A4008A
:100E8000592F2408860087010108240091002000C2
:100E9000911D4B2F4C2F472F9111210024088600C4
:100EA000870124001108810001302100A2002208DE
:100EB000A4070130A0020030A13B200A031D642FCB
:100EC000210A031D642F652F412F08002000DC013B
:100ED0007E302100BF008130C0008130C1007E30F3
:100EE000C200C301200069080319772F782F802FD3
:100EF00060302100C400C030C5006030C6008B2FB8
:100F0000C0302100C4006030C500C030C6002000E1
:100F10005908FE39D9008F31E62787310800F300E0
:100F20007308F400A92F74088600870101082400C3
:100F300091002000911D9D2F9E2F992F91117408D3
:100F4000860087012400110881000130F200720838
:100F5000F4070130F0020030F13B700A031DB42F9A
:100F6000710A031DB42FB52F932F080008302300FA
:100F70009F0090309D0024309E0033309B009C01E8
:100F800000302100A0000030A1008E3158268731AA
:100F900000302100A0000030A1008E315E26873194
:100FA00000302100A0000030A1008E315226873190
:100FB0002000D8010800F800F401F5017008F200E3
:100FC000F3017208F6007308F700781CE82FE92F88
:100FD000ED2F7608F4077708F53D0130F635F70D6B
:100FE000890BEE2F0310F80C7808031DF82FF92F4A
:100FF000E52F7508F1007408F0000800093400348A
:101000000A3400340B3407340C3401340F34013407
:0C1010000F34003400344034013400344C
:101C5E0008000800080008008930220097000800DC
:101C6E0016302100970008002000110E890C013952
:101C7E0008002000921286316C268E31080020005A
:101C8E001213863133268E31080021002108B6004A
:101C9E002008B500080021002108BA002008B9006C
:101CAE00080021002108BE002008BD000800210008
:101CBE002108BC002008BB00080021002108B80044
:101CCE002008B700080021002108B4002008B30046
:101CDE000800640080010131890B712E00346830D8
:101CEE00210099009801220096010800C3302100BE
:101CFE009E009B019C0101309D000800FF302000DA
:101D0E009B009A01911004309C00080021002108CC
:101D1E002000E800210020082000E7000800210034
:101D2E0021082000E600210020082000E500080020
:101D3E000C302600930091019201CF3025009E05B4
:101D4E000800F0002000111EAD2EAE2EA92E700838
:101D5E0023009A00080040302400940095010130C1
:101D6E00920021000D1224009512080021009212FB
:101D7E00843022009100A0309200200092122100A7
:101D8E009216080021001213843022009300A13015
:101D9E0094002000121321001217080021003708AA
:101DAE0038040319DB2EDC2EE12E38088A003708A2
:101DBE000A008E3108002100330834040319E82E7E
:101DCE00E92EEE2E34088A0033080A008E31080000
:101DDE00F70022008D107608F1007508F0007708E4
:101DEE0087318F278E3122008D1408002000990133
:101DFE000B309700DC30960011101708CE00160835
:101E0E00CD003130980008002000670868040319DF
:101E1E00112F122F172F68088A0067080A008F31BA
:101E2E002700161008002000650866040319202FED
:101E3E00212F262F66088A0065080A008F31270099
:101E4E00961108002000911E2D2F2E2F292FD8011C
:101E5E0023009D1C332F342F362F1D121D161908EB
:101E6E0008002100A70022008D1021002608A100E5
:101E7E002508A000270887313C278F3122008D14BA
:101E8E0008002700161C4C2F4D2F502F8F310B277B
:101E9E008F312700961D542F552F582F8F311A270B
:101EAE008F3108002000931226001808F20019083E
:101EBE00F3007308F1007208F000210036088A0062
:101ECE0035080A008F310800043026009A00980168
:101EDE0099012F302100A0000E30A1008E314C262A
:101EEE008F3120009312210093160800F330280042
:101EFE009600950120009310210093140230A0004B
:101F0E000030A1008E316A268F317F302800970075
:101F1E0008002100A100A00130302102031C982FDF
:101F2E00992FA12F3430210203189E2F9F2FA12FFE
:101F3E00A001A00A2008080021001508C039173892
:101F4E0095001630200095001630D7000B118B1619
:101F5E0032302100A0000E30A1008E3164268F3168
:101F6E000800200093100130C9070030CA3D003030
:101F7E004A02023003194902031CC62FC72FCD2F68
:101F8E008E31E2268F312000C901CA0108000B11E3
:101F9E002000570895000130CB070030CC3D0030B3
:101FAE004C02053003194B02031CDE2FDF2FE52FE9
:101FBE008E31D5268F312000CB01CC0108000830A0
:101FCE00FA007A08F8007A08BE3E860087010108FA
:101FDE00F9000230F5000030F60078308E31EF2631
:101FEE008F310130FA027A08031DFE2FFF2FE82FE2
:021FFE000800D9
:020000040001F9
:08000000FF3FFF3FFF3FFF3F00
:04000E00E43FFF3E8E
:00000001FF
