:0400000080314928DA
:100008007E1480318B1E09280A2811280B1D0D2803
:100018000E28112881313A2180318B1D142815288A
:100028001C280B1C182819281C288131872180318D
:100038000B1F1F28202847282100921E2428252826
:100048002D282000921E29282A282D2882316D2249
:1000580080312100121F312832283A282000121F2F
:10006800362837283A2882316A2280312100111C2B
:100078003E283F2847282000111C432844284728A9
:100088008131C52180317E10090080314B28F00173
:10009800F101F201F301F401F501F601F701200085
:1000A800AE01AF01B001B101B2017E102000803174
:1000B8005D288031D9208031823159228031003A3F
:1000C8000319672868286028813198218031F50054
:1000D8009728F401F40A602873080319742875280E
:1000E8007D2875080F39D03EF200750E0F39D03EC5
:1000F800F200F301602875080F39813152218031EF
:10010800003A0319882889289528750E0F398131F6
:1001180052218031003A0319922893289528F30137
:10012800F30AF401602875082000B300B40134080C
:10013800003A0319A0287F2833080D3A03197028BC
:10014800293A03196D287F288031492822008C011B
:100158008D01373021008C00ED308D00C030230038
:100168008D000F308C00093024008D008C01210097
:100178009513C03022009D0001309E002700161004
:10018800961115149515141094117330FA00023055
:10019800FB008231412280317230FA000230FB00CC
:1001A80082313B2280318B15080082310422803154
:1001B8008031AA2080318231282280318231622226
:1001C80080318231662280318131EC218031823167
:1001D800182280318131642180318131F8218031C8
:1001E80082312022803182310F22803181312221D7
:1001F80080318131012180310800083023009F00BF
:1002080090309D0024309E0033309B009C010030CC
:10021800FA000030FB0082314D2281310030FA00B3
:100228000030FB008231472281310030FA00003073
:10023800FB00823153228131F70108002000990127
:100248006D3097008430960011101708F1001608D9
:10025800F000210011147030FA000230FB008231E6
:100268002F22813131302000980008000B117608C8
:10027800200095000130AE070030AF3D00302F025E
:10028800203003192E02031C4A294B295129813198
:10029800DF2181312000AE01AF010800FB00FA0127
:1002A80030307B02031C59295A29622934307B02D9
:1002B80003185F2960296229FA01FA0A7A080800F6
:1002C80021001508C0391738950020009501F6015E
:1002D8000B118B167130FA000230FB008231352287
:1002E800813108002000181D7A297B2982291810DD
:1002F80079089700780896001814862979089700D5
:100308007808960008002700161C8B298C298F294D
:100318008131B62181312700961D93299429972987
:100328008131A721813108002000911E9C299D2937
:100338009829F70123009D1CA229A329A5291D128C
:100348001D161908080020002A082B040319AD29D6
:10035800AE29B3292B088A002A080A008131270010
:100368009611080020002C082D040319BC29BD296A
:10037800C2292D088A002C080A008131270016108E
:100388000800200011107108F9007008F800813188
:10039800762181318131D221813108002000220863
:1003A80023040319D829D929DE2923088A00220819
:1003B8000A00813108002000200821040319E529DA
:1003C800E629EB2921088A0020080A008131080063
:1003D8002100121384302200930061309400200021
:1003E80012132100121708002100921284302200F3
:1003F80091006030920020009212210092160800AD
:1004080040302400940095010130920021000D1223
:100418002400951208000C302600930091019201E7
:10042800CF3025009E050800FF3020009B009A0170
:10043800911004309C000800C33021009E009B01ED
:100448009C0101309D000800683021009900980146
:100458002200960108007B082000A3007A08A20069
:1004680008007B082000A1007A08A00008007B088B
:100478002000AB007A08AA0008007B082000AD0025
:100488007A08AC0008007B082000A7007A08A600BC
:1004980008007B082000A9007A08A80008007B084B
:1004A8002000A5007A08A40008002000110E890C7D
:1004B800013908000034403401340034163021007A
:1004C80097000800893022009700080020001213C6
:1004D8000800200092120800080008000800080020
:020000040001F9
:08000000FF3FFF3FFF3FFF3F00
:04000E00E43FFF3E8E
:00000001FF
