:0400000080314928DA
:100008007E1480318B1E09280A2811280B1D0D2803
:100018000E2811288331F72380318B1D14281528C9
:100028001C280B1C182819281C28843149248031C5
:100038000B1F1F28202847282100921E2428252826
:100048002D282000921E29282A282D28853142256E
:1000580080312100121F312832283A282000121F2F
:10006800362837283A2885313C2580312100111C53
:100078003E283F2847282000111C432844284728A9
:100088008431962480317E10090080314B288531D7
:1000980054258031D2002030840000308500113092
:1000A80085310C2580317E10200083319D2B003056
:1000B800F000F10084310F2480318130FC007C088D
:1000C8002000A0009130FC007C08A1009130FC00C9
:1000D8007C08A2006E30FC007C08A300A401520832
:1000E8000319772878288A286030FC007C08A50046
:1000F800C030FC007C08A6006030FC007C08A7002B
:100108003008F739FC007C08B0009B28C030FC00A0
:100118007C08A5006030FC007C08A600C030FC000C
:100128007C08A7002F08F739FC007C08AF002708D7
:100138003004FC007C08A70026082F04FC007C087B
:10014800A6008331BE23803120002F08031DAD286F
:10015800AE28B7283008031DB228B328B7280330C3
:10016800FC007C08AE000330FD008A30FC005630ED
:10017800890BBC28FC0BBC28FD0BBC288231432210
:10018800803108000030F000F10084310F24803104
:100198004330FC007C082000A0008530FC007C086F
:1001A800A1008930FC007C08A2007130FC007C08AA
:1001B800A300A40152080319E228E328F5286030B7
:1001C800FC007C08A500C030FC007C08A60060305C
:1001D800FC007C08A7003008FB39FC007C08B00054
:1001E8000629C030FC007C08A5006030FC007C08B3
:1001F800A600C030FC007C08A7002F08FB39FC00D3
:100208007C08AF0027083004FC007C08A7002608FB
:100218002F04FC007C08A6008331BE238031200017
:100228002F08031D1829192922293008031D1D2903
:100238001E2922290330FC007C08AE000330FD0093
:100248008A30FC005630890B2729FC0B2729FD0B27
:10025800272982314322803108000030F000F10064
:1002680084310F2481312000A0014130FC007C083A
:10027800A100FF30FC007C08A200A301A30AA4018E
:1002880052080319482949295F296030FC007C0875
:10029800A500C030FC007C08A6006030FC007C088B
:1002A800A7003008FD39FC007C08B0000230FC00D3
:1002B8007C08AE007929C030FC007C08A5006030BD
:1002C800FC007C08A600C030FC007C08A7002F08B2
:1002D800FD39FC007C08AF002F08031D742975291F
:1002E80079290330FC007C08AE0027083004FC00A4
:1002F8007C08A70026082F04FC007C08A600833190
:10030800BE2381310330FD008A30FC005630890B52
:100318008B29FC0B8B29FD0B8B29823143228131E0
:1003280008002000BE01BF013F08203E860087016B
:1003380081010130B9003908BF0708303F02031CAA
:10034800A629A7299829C001C1013E08BD3E8400FD
:1003580084300318013E85000008B90041083A3E80
:1003680086008701390881003E08BE3E840084303B
:100378000318013E85000008B9004108013E3A3ED5
:1003880086008701390881004108023EB900390812
:10039800C10004304102031CD229D329A9293E08EF
:1003A800023EB9003908BE000430B6000030B7007C
:1003B8003A3084315A24813101302000B90039089B
:1003C800C00706304002031CEA29EB29A8290800C7
:1003D8002000B4002400951AF229F329422A2000AB
:1003E8003408B100B201B135B20DB135B20D4930A2
:1003F800310784008530323D8500000824009400D0
:1004080020003408B100B201B135B20DB135B20DDA
:100418004830310784008530323D850000082400CB
:100428009500960120003408B100B201B135B20D33
:10043800B135B20D4A30310784008530323D850030
:1004480000082400920020003408B100B201B13540
:10045800B20DB135B20D4B30310784008530323DD5
:1004680085000008B300B30E21000D0820003306F4
:10047800EF39330621008D002400951608005F2A05
:100488000030F000F10084310F248231762AFF30E9
:10049800F0000130F10084310F248231762A0830CF
:1004A800F5009D30F4000630890B582AF40B582AC1
:1004B800F50B582A4B2A20002E08F400F501750880
:1004C800003A0319682A762A7408003A0319442A5C
:1004D800013A03194B2A033A03194B2A013A031923
:1004E800532A762A2000300803197B2A7C2A852A79
:1004F80003302E060319812A822A852AD201D20ABC
:10050800862AD20108000030F000F10084310F245F
:1005180082312000AE017E30FC007C08A0008130D2
:10052800FC007C08A1008130FC007C08A2007E3021
:10053800FC007C08A300A40152080319A42AA52AD8
:10054800B22A6030FC007C08A500C030FC007C08A2
:10055800A6006030FC007C08A700C32AC030FC005D
:100568007C08A5006030FC007C08A600C030FC00B8
:100578007C08A7002F08FE39FC007C08AF008331F7
:10058800BE238231080022008C018D013730210002
:100598008C00ED308D00C03023008D000F308C00B2
:1005A800093024008D008C0121009513C0302200F1
:1005B8009D0001309E002700161096111514951500
:1005C8001410941158302000B1000530B200853164
:1005D8002425823157302000B1000530B200853122
:1005E8001E2582318B1508002000B4003408B300A2
:1005F8003308B500182B3508860087010108240048
:1006080091002000911D092B0A2B052B9111240024
:1006180011082000B30035088600870133088100DF
:100628000130B3003308B5070130B1020030B23BE6
:10063800310A031D232B320A031D232B242BFF2AE7
:100648000800F3007308F2007208F400432B7408E2
:10065800860087010108240091002000911D352B98
:10066800362B312B911124001108F20074088600F2
:100678008701720881000130F2007208F407013026
:10068800F0020030F13B700A031D4E2B710A031D66
:100698004E2B4F2B2B2B08008431E12483318231E0
:1006A800C722833185310525833185314C25833136
:1006B8008431C92483318531502583318431F5242F
:1006C80083318431262483318431D52483318431A4
:1006D800FD2483318431EC2483318331DE2383315B
:1006E8008331782383310800083023009F0090303D
:1006F8009D0024309E0033309B009C010030200078
:10070800B1000030B200853130258331003020003F
:10071800B1000030B20085312A2583310030200035
:10072800B1000030B2008531362583312000AD019B
:10073800080083315023833187302000B100023014
:10074800B20085311E25833131302000B1000130DF
:10075800B20085311E25833122008D14003081318D
:10076800EC2183318131952183318B170B17BB2BFA
:10077800803149280830F8007808FB007B08F80029
:100788007808F9007B081F3E860087010108F800F9
:100798007808FA000230F5000030F600793084312C
:1007A800882483310130FB027B08031DDC2BDD2B01
:1007B800C22B0800200099016D3097008430960004
:1007C80011101708C7001608C6002100111455306B
:1007D8002000B1000530B200853112258331313057
:1007E8002000980008000B1120002C08950001300B
:1007F800A8070030A93D003029022030031928023B
:10080800031C072C082C0E2C8431B02483312000C3
:10081800A801A90108007108F3007008F200F33676
:10082800F20CF336F20C72082600910070080339B6
:10083800F2000430F235890B1E2C1308CF397204EC
:100848009300080021001508C039173895002000CA
:100858009501AC010B118B165630B1000530B20072
:1008680085311825843108002000181D3C2C3D2CAA
:10087800442C181071089700700896001814482C1A
:10088800710897007008960008002700161C4D2C68
:100898004E2C512C8431792484312700961D552CF7
:1008A800562C592C84316A24843108002000B80061
:1008B80022008D1020003708B2003608B100380831
:1008C8008231F822843122008D14080020004E085D
:1008D8004F040319702C712C762C4F088A004E088F
:1008E8000A0084312700961108002000500851049E
:1008F80003197F2C802C852C51088A0050080A0087
:100908008431270016100800F70022008D107608A1
:10091800F1007508F000770883312523843122001F
:100928008D140800200011104708F1004608F00057
:100938008431382484318431A32484310800200090
:10094800440845040319A92CAA2CAF2C45088A0091
:1009580044080A00843108002000420843040319AF
:10096800B62CB72CBC2C43088A0042080A008431F4
:100978000800093400340A3400340B3407340C34CA
:1009880001340F3401340F34003421001213843041
:1009980022009300A13094002000121321001217A6
:1009A800080021009212843022009100A0309200A9
:1009B8002000921221009216080040302400940072
:1009C80095010130920021000D12240095120800B3
:1009D8000C302600930091019201CF3025009E052E
:1009E8000800FF3020009B009A01911004309C0001
:1009F8000800C33021009E009B019C0101309D002E
:100A0800080068302100990098012200960108002A
:100A1800640080010131890B0D2D0034200032085B
:100A2800C5003108C400080020003208C30031089E
:100A3800C200080020003208CF003108CE000800AC
:100A480020003208D1003108D00008002000320808
:100A5800CB003108CA00080020003208CD00310858
:100A6800CC00080020003208C9003108C80008007E
:100A78002000121380315B2085310800200092127B
:100A88008031C620853108000034403401340034F8
:100A980016302100970008008930220097000800CE
:0A0AA80001340800080008000800EF
:020000040001F9
:08000000FF3FFF3FFF3FFF3F00
:04000E00E43FFF3E8E
:00000001FF
