:0400000080315628CD
:100008007E1480318B1D09280A2811280B1C0D2805
:100018000E2811288431A02480318B1E142815281D
:100028001C280B1D182819281C2884310924803104
:100038000B1F1F28202854282100121F2428252898
:100048002D282000121F29282A282D2885319A2595
:1000580080312100921E312832283A282000921E31
:10006800362837283A288531A02580312100931E6B
:100078003E283F2847282000931E43284428472825
:100088008431642480312100931C4B284C28542847
:100098002000931C50285128542884314E24803144
:1000A8007E100900803158288531BB258031D60063
:1000B800FD0133308400003085001230853164251D
:1000C80080317E10200083316D2B0030F000F1006C
:1000D8008431212480312000C41973287428782899
:1000E800FD1D772878287E288531B825803185310F
:1000F800B52580318130FC007C082000B3009130A8
:10010800FC007C08B4009130FC007C08B5006E301F
:10011800FC007C08B600B7015608031994289528F6
:10012800A7286030FC007C08B800C030FC007C08C0
:10013800B9006030FC007C08BA004408F739FC00BC
:100148007C08C400B828C030FC007C08B8006030C7
:10015800FC007C08B900C030FC007C08BA007D08AF
:10016800F739FC007C08FD003A084404FC007C08D0
:10017800BA0039087D04FC007C08B9008331E92302
:1001880080317D08031DC928CA28D42820004408C6
:10019800031DCF28D028D4280330FC007C08C300D6
:1001A80008000030F000F100843121248031200063
:1001B8004419DF28E028E4287D1DE328E428EA28FC
:1001C8008531B82580318531B52580314330FC0033
:1001D8007C082000B3008530FC007C08B40089301E
:1001E800FC007C08B5007130FC007C08B600B70143
:1001F800560803190029012913296030FC007C08DE
:10020800B800C030FC007C08B9006030FC007C08F5
:10021800BA004408FB39FC007C08C4002429C0301B
:10022800FC007C08B8006030FC007C08B900C030D5
:10023800FC007C08BA007D08FB39FC007C08FD0046
:100248003A084404FC007C08BA0039087D04FC0024
:100258007C08B9008331E92380317D08031D3529E5
:100268003629402920004408031D3B293C29402900
:100278000330FC007C08C30008000030F000F100E7
:100288008431212481312000C4184B294C2950295C
:10029800FD1C4F29502956298531B82581318531D2
:1002A800B52581312000B3014130FC007C08B40041
:1002B800FF30FC007C08B500B601B60AB701560845
:1002C8000319672968297E296030FC007C08B8007A
:1002D800C030FC007C08B9006030FC007C08BA0023
:1002E8004408FD39FC007C08C4000230FC007C088E
:1002F800C3009829C030FC007C08B8006030FC00BE
:100308007C08B900C030FC007C08BA007D08FD39C3
:10031800FC007C08FD007D08031D93299429982979
:100328000330FC007C08C3003A084404FC007C0845
:10033800BA0039087D04FC007C08B9008331E92340
:10034800813108002000D201D3015308333E8600D2
:10035800870181010130CD004D08D30708305302D1
:10036800031CB729B829A929D401D5015208153E7B
:10037800840085300318013E85000008CD0055082B
:100388004E3E860087014D0881005208163E8400C3
:1003980085300318013E85000008CD005508013E50
:1003A8004E3E860087014D0881005508023ECD006B
:1003B8004D08D50004305502031CE329E429BA2965
:1003C8005208023ECD004D08D2000430CA00003069
:1003D800CB004E308431B124813101302000CD0072
:1003E8004D08D40706305402031CFB29FC29B929FF
:1003F80008002000C8002400951A032A042A532A5A
:1004080020004808C500C601C535C60DC535C60D4E
:10041800A730450784008530463D85000008240044
:10042800940020004808C500C601C535C60DC5356D
:10043800C60DA630450784008530463D8500000876
:1004480024009500960120004808C500C601C5355E
:10045800C60DC535C60DA830450784008530463D14
:10046800850000082400920020004808C500C60145
:10047800C535C60DC535C60DA9304507840085307C
:10048800463D85000008C700C70E21000D08200062
:100498004706EF39470621008D002400951608000D
:1004A800792A0030F000F100843121248231902A29
:1004B800FF30F0000130F100843121248231902A8C
:1004C80004304102031C692A6A2A742AFF30F000AA
:1004D8000130F1008431212482312000C101902AA9
:1004E8000130F4007408C107902A20004308F40082
:1004F800F5017508003A0319822A902A7408003A0F
:100508000319552A013A03195C2A033A03195C2A8C
:10051800013A0319642A902A200044080319952AED
:10052800962A9F2A0330430603199B2A9C2A9F2A4E
:10053800D601D60AA02AD60108000030F000F10042
:100548008431212482312000C3017E30FC007C08E4
:10055800B3008130FC007C08B4008130FC007C08CA
:10056800B5007E30FC007C08B600B70156080319B8
:10057800BE2ABF2ACC2A6030FC007C08B800C030F4
:10058800FC007C08B9006030FC007C08BA00DD2A59
:10059800C030FC007C08B8006030FC007C08B90062
:1005A800C030FC007C08BA007D08FE39FC007C08DD
:1005B800FD008331E9238231080022008C018D017E
:1005C800373021008C00ED308D00C03023008D00C5
:1005D8000F308C00093024008D008C012100951308
:1005E800C03022009D0001309E0027001610961191
:1005F8001514951514109411BF302000C50005304E
:10060800C60085317C258231BE302000C50005300A
:10061800C6008531762582318B150800853139254C
:1006280083318231E122833185315D258331853102
:10063800AA2583318531AE25833185312125833142
:1006480084317A24833185314D25833184313824AE
:10065800833185312D258331853155258331843189
:100668008E2483318531442583318431DF248331DD
:100678008331C423833108002000C8004808C7001C
:100688004708C900602B4908860087010108240033
:1006980091002000911D512B522B4D2B91112400BC
:1006A80011082000C7004908860087014708810013
:1006B8000130C7004708C9070130C5020030C63BF2
:1006C800450A031D6B2B460A031D6B2B6C2B472B0E
:1006D8000800833112238331A1302000C500023085
:1006E800C60085317625833141302000C5000130B0
:1006F800C60085317625833154302000C50002308C
:10070800C60085316A2583318531B22583312200BF
:100718008D1400308131FD2183318131A62183314F
:100728008B170B17962B80315628F3007308F200AD
:100738007208F400B72B74088600870101082400AA
:1007480091002000911DA92BAA2BA52B9111240003
:100758001108F200740886008701720881000130D0
:10076800F2007208F4070130F0020030F13B700A21
:10077800031DC22B710A031DC22BC32B9F2B08001C
:10078800083023009F0090309D0024309E003330B5
:100798009B009C0100302000C5000030C600853158
:1007A8008825833100302000C5000030C60085311F
:1007B8008225833100302000C5000030C600853115
:1007C8008E2583312000C20108000830F80078081F
:1007D800FB007B08F8007808F9007B08323E8600A9
:1007E80087010108F8007808FA000230F5000030A7
:1007F800F60079308431ED2483310130FB027B0827
:10080800031D072C082CED2B08000B1120003208C3
:1008180095000130BD070030BE3D00303E02053076
:1008280003193D02031C192C1A2C202C853108258C
:1008380084312000BD01BE0108007108F300700872
:10084800F200F336F20CF336F20C7208260091002F
:1008580070080339F2000430F235890B302C130884
:10086800CF3972049300080021001508C0391738E1
:1008780095001630200095001630C7004708B200D2
:100888000B118B16BD30C5000530C60085317025AB
:1008980084310800200093100130BB070030BC3DB4
:1008A80000303C02023003193B02031C5C2C5D2C17
:1008B800632C8431FB2484312000BB01BC01080077
:1008C8002000931226001808F2007208F300190895
:1008D800F2007208F4007408F1007308F0002000B8
:1008E80023088A0022080A0084310800F33028000F
:1008F800960095012000931021009314BC3020002D
:10090800C5000530C60085316A2584317F3028004E
:1009180097000800043026009A0098019901C03019
:100928002000C5000530C60085319425843120009B
:1009380093122100931608002700161CA42CA52C3E
:10094800A82C8431D02484312700961DAC2CAD2CE2
:10095800B02C8431C124843108002000CC0022004E
:100968008D1020004B08C6004A08C5004C0883318A
:100978004023843122008D14080020002E082F0403
:100988000319C72CC82CCD2C2F088A002E080A0062
:10099800843127009611080020003008310403191B
:1009A800D62CD72CDC2C31088A0030080A00843178
:1009B800270016100800200099010B309700DC3042
:1009C800960011101708A7001608A60031309800E5
:1009D8000800F70022008D107608F1007508F00075
:1009E800770883319923843122008D140800200070
:1009F800200821040319012D022D072D21088A0042
:100A080020080A008531080020002408250403195D
:100A18000E2D0F2D142D25088A0024080A00853173
:100A28000800093400340A3400340B3407340C3419
:100A380001340F3401340F34003421001213843090
:100A480022009300A13094002000121321001217F5
:100A5800080021009212843022009100A0309200F8
:100A680020009212210092160800403024009400C1
:100A780095010130920021000D1224009512080002
:100A88000C302600930091019201CF3025009E057D
:100A98000800FF3020009B009A01911004309C0050
:100AA8000800C33021009E009B019C0101309D007D
:100AB800080068302100990098012200960108007A
:100AC800640080010131890B652D0034200046083F
:100AD800A1004508A000080020004608A500450818
:100AE800A400080020004608AF004508AE00080032
:100AF80020004608B1004508B0000800200046085C
:100B0800AB004508AA00080020004608AD004508CB
:100B1800AC00080020004608A9004508A800080005
:100B280020004608A3004508A20008002000121370
:100B38008031692085310800200092128031D5204B
:100B48008531080000344034013400341630210067
:100B5800970008008930220097000800200018102C
:100B68000800280017150800280015080800013497
:0A0B7800080008000800080008004B
:020000040001F9
:08000000FF3FFF3FFF3FFF3F00
:04000E00E43FFF3E8E
:00000001FF
