:0400000080314928DA
:100008007E1480318B1E09280A2811280B1D0D2803
:100018000E28112884310C2480318B1D14281528B2
:100028001C280B1C182819281C28843162248031AC
:100038000B1F1F28202847282100921E2428252826
:100048002D282000921E29282A282D28853165254B
:1000580080312100121F312832283A282000121F2F
:10006800362837283A2885315F2580312100111C30
:100078003E283F2847282000111C432844284728A9
:100088008431AF2480317E10090080314B288531BE
:100098007A258031D200FD0142308400003085008D
:1000A800103085312F2580317E10200083315D2B63
:1000B8000030F000F1008431242480312000D1196F
:1000C800662867286B28FD1D6A286B2871288531EA
:1000D800052580318531772580318130FC007C0809
:1000E8002000C2009130FC007C08C3009130FC0065
:1000F8007C08C4006E30FC007C08C500C6015208AC
:100108000319872888289A286030FC007C08C700D3
:10011800C030FC007C08C8006030FC007C08C900C6
:100128005108F739FC007C08D100AB28C030FC002E
:100138007C08C7006030FC007C08C800C030FC00A8
:100148007C08C9007D08F739FC007C08FD004908D7
:100158005104FC007C08C90048087D04FC007C08A8
:10016800C8008331D32380317D08031DBC28BD28F6
:10017800C72820005108031DC228C328C7280330F8
:10018800FC007C08D00008000030F000F100843149
:100198002424803120005119D228D328D7287D1D46
:1001A800D628D728DD288531052580318531772562
:1001B80080314330FC007C082000C2008530FC0000
:1001C8007C08C3008930FC007C08C4007130FC0046
:1001D8007C08C500C60152080319F328F42806292B
:1001E8006030FC007C08C700C030FC007C08C800F8
:1001F8006030FC007C08C9005108FB39FC007C0811
:10020800D1001729C030FC007C08C7006030FC0012
:100218007C08C800C030FC007C08C9007D08FB3998
:10022800FC007C08FD0049085104FC007C08C9005A
:1002380048087D04FC007C08C8008331D323803142
:100248007D08031D28292929332920005108031D69
:100258002E292F2933290330FC007C08D000080000
:100268000030F000F1008431242481312000D118BD
:100278003E293F294329FD1C422943294929853123
:10028800052581318531772581312000C201413032
:10029800FC007C08C300FF30FC007C08C400C501DA
:1002A800C50AC601520803195A295B297129603009
:1002B800FC007C08C700C030FC007C08C800603027
:1002C800FC007C08C9005108FD39FC007C08D100FD
:1002D8000230FC007C08D0008B29C030FC007C0870
:1002E800C7006030FC007C08C800C030FC007C08F7
:1002F800C9007D08FD39FC007C08FD007D08031D50
:10030800862987298B290330FC007C08D0004908FE
:100318005104FC007C08C90048087D04FC007C08E6
:10032800C8008331D323813108002000BE01BF01FA
:100338003F08423E8600870181010130B900390833
:10034800BF0708303F02031CAA29AB299C29C0011A
:10035800C1013E08D63E840084300318013E850062
:100368000008B90041083A3E860087013908810033
:100378003E08D73E840084300318013E85000008FB
:10038800B9004108013E3A3E8600870139088100DC
:100398004108023EB9003908C10004304102031C7B
:1003A800D629D729AD293E08023EB9003908BE0032
:1003B8000430B6000030B7003A30843173248131FC
:1003C80001302000B9003908C00706304002031C7C
:1003D800EE29EF29AC2908002000B4002400951A62
:1003E800F629F729462A20003408B100B201B135B0
:1003F800B20DB135B20D6C30310784008530323D15
:10040800850000082400940020003408B100B201DF
:10041800B135B20DB135B20D6B303107840085307E
:10042800323D85000008240095009601200034081C
:10043800B100B201B135B20DB135B20D6D30310731
:1004480084008530323D8500000824009200200099
:100458003408B100B201B135B20DB135B20D6E300C
:10046800310784008530323D85000008B300B30EA3
:1004780021000D0820003306EF39330621008D00D6
:100488002400951608006C2A0030F000F100843131
:1004980024248231832AFF30F0000130F1008431B6
:1004A80024248231832A04304E02031C5C2A5D2AEC
:1004B800672AFF30F0000130F100843124248231B2
:1004C8002000CE01832A0130F4007408CE07832A65
:1004D80020005008F400F5017508003A0319752A40
:1004E800832A7408003A0319482A013A03194F2A43
:1004F800033A03194F2A013A0319572A832A20007D
:1005080051080319882A892A922A033050060319A8
:100518008E2A8F2A922AD201D20A932AD20108005F
:100528000030F000F1008431242482312000D00111
:100538007E30FC007C08C2008130FC007C08C300CF
:100548008130FC007C08C4007E30FC007C08C500BB
:10055800C60152080319B12AB22ABF2A6030FC002A
:100568007C08C700C030FC007C08C8006030FC0074
:100578007C08C900D02AC030FC007C08C700603065
:10058800FC007C08C800C030FC007C08C9007D085D
:10059800FE39FC007C08FD008331D323823108003A
:1005A80022008C018D01373021008C00ED308D0048
:1005B800C03023008D000F308C00093024008D00DE
:1005C8008C0121009513C03022009D0001309E004F
:1005D80027001610961115149515141094117E30D5
:1005E8002000B1000530B2008531472582317D30C9
:1005F8002000B1000530B2008531412582318B15CC
:1006080008002000B4003408B3003308B500252BD7
:100618003508860087010108240091002000911DFB
:10062800162B172B122B9111240011082000B30050
:10063800350886008701330881000130B30033088C
:10064800B5070130B1020030B23B310A031D302B2F
:10065800320A031D302B312B0C2B0800F3007308D2
:10066800F2007208F400502B740886008701010814
:10067800240091002000911D422B432B3E2B911109
:1006880024001108F20074088600870172088100AE
:100698000130F2007208F4070130F0020030F13B3B
:1006A800700A031D5B2B710A031D5B2B5C2B382B17
:1006B800080083318623833194302000B100023052
:1006C800B20085314125833134302000B10001303A
:1006D800B20085314125833147302000B100023016
:1006E800B20085313525833122008D1400308131E7
:1006F800F02183318131992183318B170B17832B9B
:10070800803149288431FA2483318231D4228331DB
:1007180085312825833185316F2583318431E22461
:1007280083318531732583318531182583318431AF
:100738003B2483318431EE24833185312025833174
:1007480085310F2583318331F32383318331AE2300
:1007580083310800083023009F0090309D0024302A
:100768009E0033309B009C0100302000B100003017
:10077800B20085315325833100302000B1000030AC
:10078800B20085314D25833100302000B1000030A2
:10079800B2008531592583312000CF010800083087
:1007A800F8007808FB007B08F8007808F9007B0857
:1007B800413E860087010108F8007808FA000230F7
:1007C800F5000030F60079308431A12483310130FE
:1007D800FB027B08031DF12BF22BD72B080020000E
:1007E80099010B309700DC30960011101708A5000E
:1007F8001608A400210011147B302000B100053038
:10080800B200853135258331313020009800080049
:100818000B112000300895000130CA070030CB3D8D
:1008280000304B02053003194A02031C1C2C1D2CF6
:10083800232C8431C92484312000CA01CB0108004B
:100848007108F3007008F200F336F20CF336F20C7C
:1008580072082600910070080339F2000430F2355E
:10086800890B332C1308CF39720493000800210038
:100878001508C03917389500163020009500163035
:10088800B3003308B0000B118B167C30B100053073
:10089800B20085313B25843108002000181D552CF5
:1008A800562C5D2C181071089700700896001814C3
:1008B800612C710897007008960008002700161C24
:1008C800662C672C6A2C8431922484312700961D6B
:1008D8006E2C6F2C722C8431832484310800200004
:1008E800B80022008D1020003708B2003608B10089
:1008F800380883310523843122008D140800200034
:100908002C082D040319892C8A2C8F2C2D088A0079
:100918002C080A00843127009611080020002E08B0
:100928002F040319982C992C9E2C2F088A002E0826
:100938000A008431270016100800F70022008D10E5
:100948007608F1007508F000770883313223843186
:1009580022008D140800200011102508F100240839
:10096800F0008431512484318431BC24843108005E
:100978002000220823040319C22CC32CC82C2308E6
:100988008A0022080A008431080020002008210477
:100998000319CF2CD02CD52C21088A0020080A0056
:1009A80084310800093400340A3400340B34073425
:1009B8000C3401340F3401340F3400342100121385
:1009C800843022009300A1309400200012132100EB
:1009D8001217080021009212843022009100A030E2
:1009E8009200200092122100921608004030240044
:1009F800940095010130920021000D1224009512F7
:100A0800080020001608F0007008F2001708F0002F
:100A18007008F10008000C30260093009101920143
:100A2800CF3025009E050800FF3020009B009A016A
:100A3800911004309C000800C33021009E009B01E7
:100A48009C0101309D000800683021009900980140
:100A5800220096010800640080010131890B302DC5
:100A6800003420003208A3003108A200080020004A
:100A78003208A1003108A000080020003208AD00AB
:100A88003108AC00080020003208AF003108AE0081
:100A9800080020003208A9003108A800080020003A
:100AA8003208AB003108AA00080020003208A7006D
:100AB8003108A60008002000121380315C2085311F
:100AC8000800200092128031C820853108000034C7
:100AD8004034013400341630210097000800893072
:100AE80022009700080020001814080001340800AC
:060AF800080008000800E0
:020000040001F9
:08000000FF3FFF3FFF3FFF3F00
:04000E00E43FFF3E8E
:00000001FF
