:0400000080314928DA
:100008007E1480318B1E09280A2811280B1D0D2803
:100018000E2811288131402180318B1D1428152884
:100028001C280B1C182819281C2881318D21803187
:100038000B1F1F28202847282100921E2428252826
:100048002D282000921E29282A282D288231732243
:1000580080312100121F312832283A282000121F2F
:10006800362837283A288231702280312100111C25
:100078003E283F2847282000111C432844284728A9
:100088008131CB2180317E10090080314B28F0016D
:10009800F101F201F301F401F501F601F701200085
:1000A800AE01AF01B001B101B2017E102000803174
:1000B8005D288031DF20803182315F228031003A33
:1000C800031967286828602881319E218031F5004E
:1000D8009D28F401F40A6028730803197428752808
:1000E8007D2875080F39D03EF200750E0F39D03EC5
:1000F800B200F3016028F3017408031984288528E5
:100108009B2875080F39813158218031003A03192D
:100118008E288F289B28750E0F3981315821803100
:10012800003A0319982899289B28F301F30AF40147
:10013800602875082000B300B4013408003A031998
:10014800A6287F2833080D3A03197028293A03197D
:100158006D287F288031492822008C018D01373095
:1001680021008C00ED308D00C03023008D000F3051
:100178008C00093024008D008C0121009513C030BB
:1001880022009D0001309E002700161096111514BC
:100198009515141094117930FA000230FB00823161
:1001A800472280317830FA000230FB008231412248
:1001B80080318B15080082310A2280318031B020CD
:1001C800803182312E228031823168228031823121
:1001D8006C2280318131F221803182311E228031BE
:1001E80081316A2180318131FE218031823126229C
:1001F800803182311522803181312821803181314D
:10020800072180310800083023009F0090309D00AE
:1002180024309E0033309B009C010030FA000030EF
:10022800FB008231532281310030FA000030FB009C
:1002380082314D2281310030FA000030FB008231DA
:1002480059228131F7010800200099016D3097008B
:100258008430960011101708F1001608F0002100EC
:1002680011147630FA000230FB00823135228131D8
:1002780031302000980008000B1176082000950006
:100288000130AE070030AF3D00302F022030031997
:100298002E02031C5029512957298131E52181312A
:1002A8002000AE01AF010800FB00FA0130307B02EC
:1002B800031C5F296029682934307B0203186529EB
:1002C80066296829FA01FA0A7A080800210015083F
:1002D800C0391738950020009501F6010B118B16CF
:1002E8007730FA000230FB0082313B22813108006E
:1002F8002000181D8029812988291810790897005D
:100308007808960018148C297908970078089600C0
:1003180008002700161C9129922995298131BC21B2
:1003280081312700961D99299A299D298131AD216E
:10033800813108002000911EA229A3299E29F701D6
:1003480023009D1CA829A929AB291D121D161908CF
:10035800080020002A082B040319B329B429B92955
:100368002B088A002A080A00813127009611080004
:1003780020002C082D040319C229C329C8292D08D7
:100388008A002C080A008131270016100800200076
:1003980011107108F9007008F80081317C21813151
:1003A8008131D82181310800200022082304031953
:1003B800DE29DF29E42923088A0022080A0081317E
:1003C80008002000200821040319EB29EC29F12951
:1003D80021088A0020080A00813108002100121330
:1003E8008430220093006130940020001213210011
:1003F8001217080021009212843022009100603008
:100408009200200092122100921608004030240029
:10041800940095010130920021000D1224009512DC
:1004280008000C302600930091019201CF3025007E
:100438009E050800FF3020009B009A0191100430AF
:100448009C000800C33021009E009B019C010130E4
:100458009D0008006830210099009801220096014B
:1004680008007B082000A3007A08A20008007B0887
:100478002000A1007A08A00008007B082000AB003B
:100488007A08AA0008007B082000AD007A08AC00B2
:1004980008007B082000A7007A08A60008007B084F
:1004A8002000A9007A08A80008007B082000A50001
:1004B8007A08A40008002000110E890C01390800F0
:1004C800003440340134003416302100970008000D
:1004D800893022009700080020001213080020002D
:0C04E8009212080008000800080008003C
:020000040001F9
:08000000FF3FFF3FFF3FFF3F00
:04000E00E43FFF3E8E
:00000001FF
