:1000000080315628023401347E1480318B1D09283A
:100010000A2811280B1C0D280E2811288C31BB240E
:1000200080318B1E142815281C280B1D1828192810
:100030001C288D31352580310B1F1F28202854287E
:100040002100121F242825282D282000121F2928CE
:100050002A282D288B31AA2380312100921E312895
:1000600032283A282000921E362837283A288B3129
:10007000A42380312100931E3E283F2847282000DA
:10008000931E4328442847288C31F22480312100D4
:10009000931C4B284C2854282000931C502851288E
:1000A00054288D31082580317E1009008031582870
:1000B000803103208031EB0021008031022080312B
:1000C000CA00463084000030850018308B31C823C8
:1000D0008031B33084000030850011308B31C8236B
:1000E00080317E1020008331BB2B20002308803913
:1000F000F9007908A8002335F9007908AE00A21F9D
:100100008228832884282E142E08031988288928F9
:1001100098282E0A031D8D288E2896280030A300CB
:100120000030A2000030A1000030A000A217A028DB
:100130000030A3000030A2000030A1000030A00079
:1001400027088039F9007908A8062735F9007908C9
:10015000AD00A61FAC28AD28AE282D142D0803191C
:10016000B228B328C2282D0A031DB728B828C028F2
:100170000030A7000030A6000030A5000030A40029
:10018000A617CA280030A7000030A6000030A5003E
:100190000030A4002D080319CE28CF28D4282E081B
:1001A000031DD328D428DD280030A3000030A2008E
:1001B0000030A1000030A000CB2A2008F900790807
:1001C000F00026088D31BF25803171082000B40071
:1001D0007008B3003308F900FA01FB01FC017C0848
:1001E000AC007B08AB007A08AA007908A9003408A3
:1001F000F900FA01FB01FC017C08B2007B08B100A8
:100200007A08B0007908AF002108F9007908F000F9
:1002100025088D31BF25803171082000B400700899
:10022000B3003308F900FA01FB01FC017908A907C2
:100230007A08AA3D7B08AB3D7C08AC3D3408F90048
:10024000FA01FB01FC017908AF077A08B03D7B0891
:10025000B13D7C08B23D2208F9007908F00024087D
:100260008D31BF25803171082000B4007008B300C3
:100270003308F900FA01FB01FC017908A9077A08A3
:10028000AA3D7B08AB3D7C08AC3D3408F900FA017F
:10029000FB01FC017908AF077A08B03D7B08B13D4E
:1002A0007C08B23D0830A935AA0DAB0DAC0D890B09
:1002B00053292108F9007908F00024088D31BF2561
:1002C000803171082000B4007008B3003308A9071A
:1002D0003408AA3D0030AB3DAC3D2008F900790858
:1002E000F00025088D31BF25803171082000B40051
:1002F0007008B3003308A9073408AA3D0030AB3DAD
:10030000AC3D0830A935AA0DAB0DAC0D890B822987
:100310002008F9007908F00024088D31BF258031CC
:1003200071082000B4007008B3003308A90734082E
:10033000AA3D0030AB3DAC3D2108F9007908F00042
:1003400026088D31BF25803171082000B400700867
:10035000B3003308AF073408B03D0030B13DB23DC3
:100360002208F9007908F00025088D31BF25803179
:1003700071082000B4007008B3003308AF073408D8
:10038000B03D0030B13DB23D2208F9007908F000DF
:1003900026088D31BF25803171082000B400700817
:1003A000B3003308F9003408FA00FB01FC010830FF
:1003B000F935FA0DFB0DFC0D890BD8297908AF072B
:1003C0007A08B03D7B08B13D7C08B23D2908F900B0
:1003D0002A08FA002B08FB002C08FC001830FC3619
:1003E000FB0CFA0CF90C890BEF297908AF077A0896
:1003F000B03D7B08B13D7C08B23D0830A935AA0D5F
:10040000AB0DAC0D890BFE292E082D07F900FA0162
:10041000FA0D7908823EB300FF307A3DB400272AF6
:100420000130AF35B00DB10DB20D890B112AAC1FE3
:100430001A2A1B2A1C2A2F140130A935AA0DAB0D2C
:10044000AC0D890B1D2AFF30B307FF30B43DB11F3F
:100450002A2A2B2A102AAD01AC1F2F2A302A4C2A17
:10046000FF302905F900FF302A05FA00FF302B057F
:10047000FB007F302C05FC007C087B047A047904A7
:100480000319432A442A472AAD01AD0A4C2A2F1CDE
:100490004A2A4B2A4C2A442A2D080319502A512A49
:1004A000792A0130AF070030B03D0030B13D003057
:1004B000B23D321C5C2A5D2A792A2F08F9003008E7
:1004C000FA003108FB003208FC000130FD00FC3767
:1004D000FB0CFA0CF90CFD0B672A7C08B2007B08B8
:1004E000B1007A08B0007908AF000130B3070030DE
:1004F000B43D3408803AF90080307902031D822A25
:10050000FF303302031C852A862A902A7F30200080
:10051000B2008030B1000030B0000030AF00BF2A20
:1005200020003408803AF90080307902031D9A2AAD
:100530000130330203189D2A9E2AA92A0030200088
:10054000B2000030B1000030B0000030AF00A801B0
:10055000BF2A20003308F9007908AE00FF30AF054C
:10056000FF30B0057F30B1050030B2052E1CB92A2E
:10057000BA2ABB2AB1172E36F9007908B20028082A
:10058000F9007908B2043208A3003108A20030084B
:10059000A1002F08A000080020004908A700480873
:1005A000A6004708A5004608A4004130A30020305B
:1005B000A2000030A1000030A000803175208231FF
:1005C00020002308B8002208B7002108B600200840
:1005D000B50087311727823120003608C30035085F
:1005E000C20002308D316625823170082000C000C3
:1005F0007108C1000A30C136C00C890BFB2A4008C3
:10060000F4004108F500E730F6000330F7008D31C3
:100610008025823175082000D1007408D000243074
:100620008C311B24823121004308303E8C311B2445
:1006300082312C308C311B24823121004208303E23
:100640008C311B2482312C308C311B2482312000D0
:100650005908303E8C311B2482312C308C311B24C4
:10066000823100308C311B2482312C308C311B24A0
:10067000823120005808C000C1014008FA0041083A
:10068000FB008531082582317B082000C5007A08EF
:10069000C40045080F39303E8C311B2482312000C4
:1006A000440E0F39303E8C311B2482312000440827
:1006B0000F39303E8C311B2482312C308C311B247D
:1006C000823120004308FB004208FA0085310825EA
:1006D00082317B082000C5007A08C40045080F3924
:1006E000303E8C311B2482312000440E0F39303EC5
:1006F0008C311B2482312E308C311B24823120001E
:1007000044080F39303E8C311B2482312C308C311F
:100710001B24823120005108FB005008FA0085316B
:10072000082582317B082000C5007A08C400450EE8
:100730000F39303E8C311B248231200045080F399F
:10074000303E8C311B2482312000440E0F39303E64
:100750008C311B2482312E308C311B2482312000BD
:1007600044080F39303E8C311B2482310D308C31DE
:100770001B24823108008E315F2683310630210030
:10078000A0000F30A1008B31EE2383319E30210079
:10079000A0000630A1008B31F72383318C3021007B
:1007A000A0000730A1008C3112248331CC3021000D
:1007B000A0000230A1008C310924833122008D1465
:1007C00000308F31552783318F31A92783318B1723
:1007D0000B178B319F238331003A0319F02BF12B38
:1007E000E92B053021003F020318F72BF82BE92BEA
:1007F0008C319C2483312100B1003108C0004B2C86
:1008000024304006031D052C062C612CC101C10AB1
:10081000E92B40088C31DF248331003A0319112C75
:10082000122C1D2C21004008D03EB1003108BE0022
:100830000230B1003108C100E92B2100C101E92BD0
:1008400040088C31DF248331003A0319282C292CED
:100850001D2C21004008D03EB1003108BD000330FE
:10086000B1003108C100E92B0D304006031D392CC1
:100870003A2C1D2C3E08B1003108C3003D08B100E0
:100880003108C2008E31BE26833101302100B10013
:100890003108BF071D2C4108B100B2013208003AEF
:1008A0000319532C1D2C3108003A0319002C013A6E
:1008B0000319092C033A0319202C013A0319342C8B
:1008C0001D2CE92B80315628F8007808F4007408B4
:1008D000F90072087304031D6E2C6F2C702C072D09
:1008E0007008F40079088600870174088100700898
:1008F000F40072087907F5007508FF3E860087014D
:100900007408810000307302033003197202031867
:100910008A2C8B2C8C2C072D7008F400790A860009
:100920008701740881007008F4007908023E86008F
:100930008701740881007008F40072087907F500D7
:100940007508FE3E86008701740881007008F40077
:1009500072087907F5007508FD3E86008701740866
:100960008100003073020730031972020318B92C9A
:10097000BA2CBB2C072D7008F4007908033E8600C2
:100980008701740881007008F40072087907F50087
:100990007508FC3E860087017408810000307302F0
:1009A0000930031972020318D62CD72CD82C072D26
:1009B0007909F4007A09F500F40A0319F50A0330FD
:1009C0007405F60000307505F7007608F400740829
:1009D000F9077608F2027708F33BFC30F205FF30A6
:1009E000F305012D7008F40079088600870174086A
:1009F00081000130F2020030F33B0130F400740852
:100A0000F90772087304031D062D072DF22C080048
:100A10000030F000F1000430F2000030F300253027
:100A20008431642485317A082000A5007B08A60063
:100A3000A701A801A40128080F39A0000530200251
:100A4000031C232D242D2D2D28080F39033EA00033
:100A500028082006F0392006A800270E0F39A0002C
:100A600005302002031C352D362D402D270E0F3961
:100A7000033EA000A00E270820060F392006A7007D
:100A800027080F39A00005302002031C482D492DEE
:100A9000522D27080F39033EA00027082006F03901
:100AA0002006A700260E0F39A00005302002031CE7
:100AB0005A2D5B2D652D260E0F39033EA000A00E8A
:100AC000260820060F392006A6002508A0002608C3
:100AD000A1002708A2002808A3000130A035A10D1D
:100AE000A20DA30D890B6E2D2308A8002208A700D4
:100AF0002108A6002008A5000130A0002008A407B6
:100B00000C302402031C852D862D1B2D2508A000EA
:100B10002608A1002708A2002808A3000C30A3364D
:100B2000A20CA10CA00C890B8F2D2108FB00200822
:100B3000FA0008000330FC007C082000D9002100E6
:100B4000BC1DA32DA42DAA2D20006B08031DA92DCB
:100B5000AA2DB52D20006B08031DAF2DB02DC22D81
:100B60002100BB1DB42DB52DC22D0030F000F100C9
:100B70008D311E25853100308B319A2385318B31A3
:100B80008C2385318130FC007C082100B30091303A
:100B9000FC007C08B4009130FC007C08B5006E308D
:100BA000FC007C08B600B70120006B080319D92DA2
:100BB000DA2DED2D6030FC007C082100B800C0303B
:100BC000FC007C08B9006030FC007C08BA003C08DE
:100BD000F739FC007C08BC00FF2DC030FC007C080D
:100BE0002100B8006030FC007C08B900C030FC0077
:100BF0007C08BA003B08F739FC007C08BB003A08C7
:100C00003C04FC007C08BA0039083B04FC007C086A
:100C1000B9008D319F25853121003B08031D112E20
:100C2000122E1B2E3C08031D162E172E1B2E0330D2
:100C3000FC007C08CA0008000230FC007C08200090
:100C4000D90021003C1D252E262E2C2E20006B08BD
:100C5000031D2B2E2C2E372E20006B08031D312E4A
:100C6000322E442E21003B1D362E372E442E0030CE
:100C7000F000F1008D311E25863100308B319A2332
:100C800086318B318C2386314330FC007C08210077
:100C9000B3008530FC007C08B4008930FC007C087F
:100CA000B5007130FC007C08B600B70120006B086D
:100CB00003195B2E5C2E6F2E6030FC007C08210037
:100CC000B800C030FC007C08B9006030FC007C0833
:100CD000BA003C08FB39FC007C08BC00812EC03007
:100CE000FC007C082100B8006030FC007C08B900E2
:100CF000C030FC007C08BA003B08FB39FC007C08D3
:100D0000BB003A083C04FC007C08BA0039083B04EC
:100D1000FC007C08B9008D319F25863121003B08FD
:100D2000031D932E942E9D2E3C08031D982E992E64
:100D30009D2E0330FC007C08CA0008002000D90169
:100D4000D90A2100BC1CA52EA62EAC2E20006B08B3
:100D5000031DAB2EAC2EB72E20006B08031DB12E49
:100D6000B22EC42E2100BB1CB62EB72EC42E0030CE
:100D7000F000F1008D311E25863100308B319A2331
:100D800086318B318C2386312100B3014130FC0048
:100D90007C08B400FF30FC007C08B500B601B60A40
:100DA000B70120006B080319D62ED72EEE2E603027
:100DB000FC007C082100B800C030FC007C08B900B1
:100DC0006030FC007C08BA003C08FD39FC007C085F
:100DD000BC000230FC007C08CA00092FC030FC00B7
:100DE0007C082100B8006030FC007C08B900C030ED
:100DF000FC007C08BA003B08FD39FC007C08BB0005
:100E00003B08031D042F052F092F0330FC007C082D
:100E1000CA003A083C04FC007C08BA0039083B04CC
:100E2000FC007C08B9008D319F2586310800031035
:100E30002000370D380DB9003908BF003F08031DE9
:100E4000222F232F2C2F0030B8000030B7000030A5
:100E5000B6000030B5008B2F3508B9003608BA004F
:100E60003708BB003808BC001F30BC36BB0CBA0CBE
:100E7000B90C890B352F3908BD003D08BE00B717E6
:100E8000FF30B505FF30B605FF30B7050030B805B7
:100E90009630BF02BF1F4D2F4E2F662F3F08803A5E
:100EA000973E0318542F552F562F232F0130B83655
:100EB000B70CB60CB50C890B572F0130B9003908A7
:100EC000BF07031D642F652F562F7B2F20303F0255
:100ED000031C6B2F6C2F762F232F0130B535B60DE9
:100EE000B70DB80D890B6E2F0130BF023F08031DEF
:100EF0007A2F7B2F6D2F3E0803197F2F802F8B2F8A
:100F0000B509B609B709B809B50A0319B60A03192C
:100F1000B70A0319B80A0800C02F0030F000F1002A
:100F20008D311E2587312000D601D72F04302000B7
:100F30005602031C9C2F9D2FA32F0330F40074082E
:100F40002100CA00932F0130F4007408D607D72F70
:100F50002C30F0000130F1008D311E2587318B31AE
:100F60008F238731932F2C30F0000130F1008D3129
:100F70001E2587312000D6018B318F238731D72F53
:100F800021004A08F400F5017508003A0319C92F39
:100F9000D72F7408003A03198D2F013A0319962FA1
:100FA000033A0319A82F013A0319B32FD72F2100B1
:100FB0003C080319DC2FDD2FE92F03304A06031903
:100FC000E22FE32FE92F2000EB01EB0A22008C1720
:100FD000ED2F2000EB0122008C13080004302600C6
:100FE0009A009801990187302100A0000B30A100E0
:100FF0008B31E523873120009312210093160800DE
:10100000093400340A3400340B3407340C3401340E
:101010000F3401340F3400340034403401340034D0
:10170E000800080008000800080028001715080047
:10171E0028001711080089302200970008001630A3
:10172E00210097000800F0007008280095000800BE
:10173E002000110E890C013908002000921286310A
:10174E001C268B3108002000121385319A258B310F
:10175E00080021002108C5002008C400080021004F
:10176E002108C9002008C800080021002108C70070
:10177E002008C60008002100A000200828009500BF
:10178E000800640080010131890BC92B00346830D8
:10179E00210099009801220096010800C330210013
:1017AE009E009B019C0101309D000800FF3020002F
:1017BE009B009A01911004309C0008002100210822
:1017CE002000E100210020082000E0000800210098
:1017DE0021082000E900210020082000E800080070
:1017EE00210021082000E700210020082000E6004B
:1017FE0008000C302600930091019201CF30250095
:10180E009E050800210021082000E3002100200889
:10181E002000E2000800210021082000DF00210046
:10182E0020082000DE000800F0002000111E202CF1
:10183E00212C1C2C700823009A0008004030240034
:10184E00940095010130920021000D122400951292
:10185E000800210092128430220091006030920024
:10186E0020009212210092160800210012138430DB
:10187E0022009300613094002000121321001217F1
:10188E00080020006208630403194E2C4F2C542CC0
:10189E0063088A0062080A008C31080020005E0886
:1018AE005F0403195B2C5C2C612C5F088A005E08B8
:1018BE000A008C310800F70022008D107608F10026
:1018CE007508F00077088E3107268C3122008D14B2
:1018DE000800200099010B309700DC3096001110A3
:1018EE001708E5001608E4003130980008002000C3
:1018FE00680869040319842C852C8A2C69088A00CF
:10190E0068080A008C3127001610080020006608AF
:10191E0067040319932C942C992C67088A00660887
:10192E000A008C312700961108002000911EA02C71
:10193E00A12C9C2CD70123009D1CA62CA72CA92CD6
:10194E001D121D16190808002100A70022008D1077
:10195E0021002608A1002508A00027088E31322676
:10196E008C3122008D1408002700161CBF2CC02CB1
:10197E00C32C8C317E248C312700961DC72CC82C8D
:10198E00CB2C8C318D248C310800F330280096003E
:10199E00950120009310210093148B30A0000B3082
:1019AE00A1008C3112248C317F3028009700080062
:1019BE002100A100A00130302102031CE72CE82CED
:1019CE00F02C343021020318ED2CEE2CF02CA0015B
:1019DE00A00A200808002000931226001808F20022
:1019EE007208F3001908F2007208F4007408F1008E
:1019FE007308F000200061088A0060080A008D312B
:101A0E000800200093100130CA070030CB3D003093
:101A1E004B02023003194A02031C162D172D1D2DE1
:101A2E008C3155248D312000CA01CB01080071087C
:101A3E00F3007008F200F336F20CF336F20C720873
:101A4E002600910070080339F2000430F235890B3C
:101A5E002D2D1308CF397204930008000B112000AE
:101A6E006A0895000130CC070030CD3D00304D02A4
:101A7E00053003194C02031C452D462D4C2D8C317F
:101A8E0048248D312000CC01CD010800210015081D
:101A9E00C0391738950016302000950016302100F9
:101AAE00A20022082000EA000B118B168A302100BA
:101ABE00A0000B30A1008C3109248D310800F300F9
:101ACE007308F200F20DF20D21001D087206833923
:101ADE0072069D001D1400320032000021009D147C
:101AEE009D187A2D7B2D772D1C08F1001B08F00018
:101AFE000800F801F901741C852D862D8A2D7608B3
:101B0E00F8077708F93D0130F635F70D890B8B2D67
:101B1E000130F536F40C890B902D74087504031DF5
:101B2E00992D9A2D822D7908F5007808F400080079
:101B3E000830F8007808FB007B08F8007808F900F8
:101B4E007B08B23E860087010108F8007808FA008B
:101B5E000230F5000030F60079308C3162248D3180
:101B6E000130FB027B08031DBD2DBE2DA32D0800E9
:101B7E00F800F401F5017008F200F3017208F600A6
:101B8E007308F700781CCC2DCD2DD12D7608F407D7
:101B9E007708F53D0130F635F70D890BD22D031080
:101BAE00F80C7808031DDC2DDD2DC92D7508F1000C
:101BBE007408F0000800083023009F0090309D004C
:101BCE0024309E0033309B009C0100302100A00089
:101BDE000030A1008B31B6238D3100302100A000E2
:101BEE000030A1008B31BC238D3100302100A000CC
:101BFE000030A1008B31B0238D312000D7010800B9
:101C0E00F3007308F2007208F400252E74088600A3
:101C1E0087010108240091002000911D172E182E17
:101C2E00132E911124001108F2007408860087010A
:101C3E00720881000130F2007208F4070130F002E0
:101C4E000030F13B700A031D302E710A031D302E39
:101C5E00312E0D2E08002100A3002308A200220819
:101C6E00A400522E2408860087010108240091004A
:101C7E002000911D432E442E3F2E91112400110859
:101C8E002100A2002408860087012208810001306D
:101C9E00A2002208A4070130A0020030A13B200AB6
:101CAE00031D5D2E210A031D5D2E5E2E392E0800AA
:101CBE008C3125248E318E318D268E318B31CE2373
:101CCE008E318B3196238E318C313C248E318B317B
:101CDE0092238E318C31CC248E318B31DD238E319B
:101CEE008D314D258E318C3130248E318B31D52373
:101CFE008E318731EE278E318C3100248E318C312E
:101D0E0070248E318D31E2258E31080022008C0137
:101D1E008D01373021008C00ED308D00C030230056
:101D2E008D000F308C00093024008D008C012100B5
:101D3E009513C03022009D0001309E002700161022
:101D4E009611151495151410941188302100A000C9
:101D5E000B30A1008B31EE238E3189302100A00093
:101D6E000B30A1008B31F7238E318B15080001301B
:101D7E002100A100430AC42EA135890BC32E2108D0
:101D8E00A2002208A3000130A100420ACF2EA135E5
:101D9E00890BCE2E2108A2002208A400420843027D
:101DAE000318DA2EDB2EE22E3C0823042404A100B5
:101DBE002108BC00F22E430842020318E72EE82E3B
:101DCE00F22E3C082304A1002108BC003B08240489
:101DDE00A1002108BB0003304A06031DF72EF82E82
:101DEE00012F0230A1002108CA0000308B31C2231E
:101DFE008E31052F0230A1002108CA0008002000F4
:101E0E00D9017E30FC007C082100B3008130FC003B
:101E1E007C08B4008130FC007C08B5007E30FC00EC
:101E2E007C08B600B70120006B0803191F2F202F66
:101E3E00332F6030FC007C082100B800C030FC005D
:101E4E007C08B9006030FC007C08BA003C08FE3902
:101E5E00FC007C08BC00462FC030FC007C08210032
:101E6E00B8006030FC007C08B900C030FC007C0873
:101E7E00BA003B08FE39FC007C08BB00CA018D315C
:101E8E009F258F3121003A083C04FC007C08BA00E3
:101E9E0039083B04FC007C08B90008002100A300AF
:101EAE002400951A5B2F5C2FA82F21002308A00079
:101EBE00A101A035A10DA035A10D0D302007840084
:101ECE008830213D8500000824009400210023085D
:101EDE00A000A101A035A10DA035A10D0C30200749
:101EEE0084008830213D850000082400950096016D
:101EFE0021002308A000A101A035A10DA035A10D40
:101F0E000E30200784008830213D85000008240013
:101F1E00920021002308A000A101A035A10DA0353B
:101F2E00A10D0F30200784008830213D8500000868
:101F3E00A200A20E0D082206EF3922068D00240003
:101F4E00951608002100AD01AE012E08B33E8600A5
:101F5E00870181010130A8002808AE0708302E0243
:101F6E00031CBA2FBB2FAC2FAF01B0012D08003EC2
:101F7E00840088300318013E85000008A800300850
:101F8E00A93E86008701280881002D08013E8400A5
:101F9E0088300318013E85000008A8003008013E75
:101FAE00A93E86008701280881003008023EA8005D
:101FBE002808B00004303002031CE62FE72FBD2F97
:101FCE002D08023EA8002808AD000430A500003000
:101FDE00A600A9308C31AB248F3101302100A8002E
:101FEE002808AF0706302F02031CFE2FFF2FBC2F31
:021FFE000800D9
:020000040001F9
:08000000FF3FFF3FFF3FFF3F00
:04000E00E43FFF3E8E
:00000001FF
